:020000040800F2
:10000000B006002031020008A50600085D060008C1
:10001000A10600087D050008D30E000800000000BE
:10002000000000000000000000000000810800083F
:100030008105000800000000350700089909000844
:100040004B0200084B0200084B0200084B0200085C
:100050004B0200084B0200084B0200084B0200084C
:100060004B0200084B0200084B0200084B0200083C
:100070004B0200084B0200084B0200084B0200082C
:100080004B0200084B0200084B0200084B0200081C
:100090004B0200084B0200084B0200084B0200080C
:1000A0004B0200084B0200084B0200084B020008FC
:1000B0004B0200084B0200084B0200084B020008EC
:1000C0004B0200084B0200084B0200084B020008DC
:1000D0004B0200084B0200084B0200084B020008CC
:1000E0004B0200084B0200084B0200084B020008BC
:1000F0004B0200084B0200084B0200084B020008AC
:100100004B0200084B0200084B0200084B0200089B
:100110004B020008050A00084B0200084B020008C9
:100120004B0200084B0200084B0200084B0200087B
:100130004B0200084B0200084B0200084B0200086B
:100140004B0200084B0200084B0200084B0200085B
:100150004B0200084B0200084B0200084B0200084B
:100160004B0200084B0200084B0200084B0200083B
:100170004B0200084B0200084B0200084B0200082B
:100180004B0200084B02000800F002F800F041F8B2
:100190000AA090E8000C82448344AAF10107DA45E2
:1001A00001D100F036F8AFF2090EBAE80F0013F0F3
:1001B000010F18BFFB1A43F001031847E4100000B9
:1001C00004110000103A24BF78C878C1FAD8520749
:1001D00024BF30C830C144BF04680C6070470000C1
:1001E0000023002400250026103A28BF78C1FBD840
:1001F000520728BF30C148BF0B607047642900F028
:100200007980002070471FB500F0C4FF1FBD10B5F6
:1002100010BD00F081F91146FFF7F5FF00F0CCFEAC
:1002200000F09FF903B4FFF7F2FF03BC00F053FEA8
:100230000948804709480047FEE7FEE7FEE7FEE77A
:10024000FEE7FEE7FEE7FEE7FEE7FEE704480549B6
:10025000054A064B704700009D0900088901000807
:10026000B0000020B0060020B0020020B002002044
:10027000704700000FB4044910B503AA029800F0BB
:10028000F5F810BC5DF814FB0C0000202DE9F041DE
:100290000E460446002020622046E168884730B3BD
:1002A000252805D0D4E901219047206A401CF2E7B7
:1002B000E168204600278847050018D0A5F14100D5
:1002C000192802D820354FF40067324629462046C7
:1002D0002760FFF793FF40B1012804D0F61D26F0F8
:1002E00007060836D8E7361DD6E72846DAE7206A3B
:1002F000BDE8F0812DE9F04106460024106875291B
:10030000314616A510D0AFF30080002802DA404233
:1003100013A507E031688A0701D512A502E0490755
:1003200004D511A5012401E0AFF3008000210A22C9
:1003300006F1240709E0B0FBF2FCB0FBF2F302FB8C
:100340001C00303078541846491C0028F3D123464D
:100350002A463046BDE8F04100F02EB8000000000B
:100360002D0000002B000000200000004FF00002D4
:100370000429C0F0128010F0030C00F08B80CCF147
:10038000040CBCF1020F18BF00F8012BA8BF20F825
:10039000022BA1EB0C0100F07DB85FEAC17C24BF09
:1003A00000F8012B00F8012B48BF00F8012B704723
:1003B00070477047704770472DE9F0470D469946E2
:1003C0009246044600F124080168880604D5E069D5
:1003D00021F01001216000E00120A84201DD471B4F
:1003E00000E00027A1697A1902EB0900081AA06150
:1003F0002078C00602D42046AFF30080002608E033
:10040000D4E901211AF806009047206A401C761CA6
:1004100020624E45F4DB2078C0060AD52046AFF3B3
:10042000008006E0D4E9012130209047206A401C7A
:100430002062381EA7F10107F4DC07E0D4E90121AE
:1004400018F805009047206A401C2062281EA5F17C
:100450000105F3DC2046AFF300802078000602D5CA
:100460000220BDE8F0870120FBE70000074B70B5D4
:100470000D467B4400F039F80446284600F048F861
:1004800010B14FF0FF3070BD204670BD270B00004B
:100490004FF0000200B5134694469646203922BF1D
:1004A000A0E80C50A0E80C50B1F12001BFF4F7AF68
:1004B000090728BFA0E80C5048BF0CC05DF804EB4A
:1004C000890028BF40F8042B08BF704748BF20F8B8
:1004D000022B11F0804F18BF00F8012B704700006D
:1004E00001694A1C02610878704700B58FB0CDE9F8
:1004F00001310021059105497944CDE903101146E8
:100500006846FFF7C3FE0FB000BD0000E5FFFFFF28
:10051000007B00F080007047754600F02BF8AE4677
:1005200005006946534620F00700854618B020B5FF
:10053000FFF78CFEBDE820404FF000064FF00007AB
:100540004FF000084FF0000B21F00701AC46ACE87B
:10055000C009ACE8C009ACE8C009ACE8C0098D46E8
:10056000704710B50446AFF300802046BDE8104048
:10057000FFF758BE004870475000002000BFFEE75C
:100580007047F0B50A4600210023002400BF3DE07B
:10059000012505FA01F3156805EA03049C4234D1EC
:1005A00005684F000326BE40B543056015794E002F
:1005B000B5400668354305601579012D02D01579DF
:1005C000022D16D185684F000326BE40B5438560D5
:1005D00055794E00B54086683543856045680126EB
:1005E0008E40B5434560456896798E40B6B2354336
:1005F0004560C5684F000326BE40B543C560D57948
:100600004E00B540C6683543C560491C1029BFD3AC
:10061000F0BDF0B5002300244D07ED0E02FA05F3FE
:10062000CE1000F1200555F826504E07F70E0F2684
:10063000BE40B543CF1000F1200646F82750CE103B
:1006400000F1200555F8265045EA0304CE1000F1CC
:10065000200545F82640F0BD0183704700BFFEE746
:100660001CB50121102000F067F84FF48060009065
:1006700001208DF8040000208DF8060003208DF87D
:10068000050001208DF8070069460448FFF779FF4F
:100690004FF480610148FFF7DFFF1CBD00100240EE
:1006A00000BFFEE77047000070B5002100230F2255
:1006B000C4781CB3174C246804F4E064C4F5E06407
:1006C000C4F30721C1F10404E3B20A4144789C4019
:1006D000E1B28478144021430C07210E0E4C0578BA
:1006E0006155047804F01F050124AC4005786D11B4
:1006F000AD0005F1E025C5F8004109E0047804F0FB
:100700001F050124AC40054D0678761145F82640BA
:1007100070BD00000CED00E000E400E080E100E0CE
:1007200002490143024A1160704700000000FA05C7
:100730000CED00E07047000029B1064A1268024340
:10074000044B1A6004E0034A12688243014B1A60AA
:10075000704700003038024029B1064A126802434F
:10076000044B1A6004E0034A12688243014B1A608A
:10077000704700004038024029B1064A126802431F
:10078000044B1A6004E0034A12688243014B1A606A
:100790007047000044380240F0B5002100220024D8
:1007A000022500260223324F3F6807F00C0121B1D9
:1007B000042905D0082937D105E02E4F076036E01F
:1007C0002D4F076033E02A4F3F1F3F68C7F3805625
:1007D000274F3F1F3F6807F03F036EB1264FB7FB1F
:1007E000F3F7DFF88CC0ACF1040CDCF800C0CCF3FC
:1007F000881C07FB0CF40CE01E4FB7FBF3F7DFF887
:1008000070C0ACF1040CDCF800C0CCF3881C07FB12
:100810000CF4174F3F1F3F68C7F301477F1C7D0053
:10082000B4FBF5F7076002E0124F076000BF00BF9E
:100830000F4F3F6807F0F0010909104F7A5C076815
:10084000D74047600A4F3F6807F4E051890A0B4FD1
:100850007A5C4768D7408760054F3F6807F460417E
:10086000490B064F7A5C4768D740C760F0BD00006F
:10087000083802400024F40000127A001000002022
:10088000704700000CB500200190009034480068CB
:1008900040F480303249086000BF3148006800F4FD
:1008A000003000900198401C0190009818B9019800
:1008B000B0F5A04FF1D12A48006800F4003010B123
:1008C0000120009001E0002000900098012846D10E
:1008D00023484030006840F0805021494031086092
:1008E0002048006840F440401E4908601C48083019
:1008F00000681B49083108600846006840F4004061
:1009000008600846006840F4A05008601648091FB7
:100910000860081F006840F08070091F086000BF71
:100920000F48006800F000700028F9D040F2057010
:100930000E4908600A480830006820F003000849A2
:10094000083108600846006840F00200086000BFF7
:1009500003480830006800F00C000828F8D10CBDEE
:10096000003802400070004008544007003C02403C
:10097000042808D14FF0E021096941F004014FF04B
:10098000E022116107E04FF0E021096921F0040144
:100990004FF0E022116170477047000010B5154814
:1009A000006840F47000134908601348006840F084
:1009B00001001149086000200F49083108600E4805
:1009C00000680E4908400C4908600D48091D086080
:1009D000081F006820F48020091F086000200649D5
:1009E0000C310860FFF74EFF4FF00060014980397D
:1009F000086010BD88ED00E000380240FFFFF6FE01
:100A00001030002410B540F22551BE4800F0A3F983
:100A100000282CD0BB4800F057FAC4B240F2255150
:100A2000B84800F07DF9B848007805287DDDB64863
:100A300000782A285EDAB4480078032190FBF1F2AE
:100A400001FB1200A0B9B148007800EB4001B048AA
:100A500008440480AC480078401CAB490870AD489D
:100A600000786040C0B2AC49085CAA49087047E110
:100A7000A5480078032190FBF1F201FB1200012848
:100A80001ED1A248007800EB4001A148084400882C
:100A900000EB042081B29D48007800EB40029C48A6
:100AA0001044018098480078401C97490870994884
:100AB00000786040C0B29849085C964908701FE110
:100AC0009248007800EB40019148084484708F48B8
:100AD0000078401C8D4908708B480078401C8A497A
:100AE00008708C4800786040C0B28B49085C894926
:100AF000087005E1844800782A38052872D2DFE8BA
:100B000000F003152B3C52008148801F44857E482D
:100B10000078401C7C4908707E4800786040C0B274
:100B20007D49085C7B4908705DE05DE07848801F86
:100B3000408D00EB04207649891F48857248007873
:100B4000401C71490870734800786040C0B2724917
:100B5000085C7049087046E06D48801F84856A48CB
:100B60000078401C684908706A4800786040C0B24C
:100B70006949085C6749087035E06548801F808DC9
:100B800000EB04206249891F88855F480078401C7B
:100B90005D4908705F4800786040C0B25E49085CFB
:100BA0005C4908701FE05A48801F80F82E4090F87A
:100BB0002E0058490978884207D100F08EF957482D
:100BC0000088401C5549088004E02F215048801FB0
:100BD000FFF7CCFB00204F4908704B4908704B4988
:100BE000087000BF00BF8BE04748007806286ED22F
:100BF000DFE800F0031C35465C6E542C10D14448ED
:100C0000801F047040480078401C3F4908704148EC
:100C100000786040C0B24049085C3E49087004E07A
:100C20000020394908703B49087068E02C2C10D12D
:100C30003748801F447034480078401C324908709F
:100C4000344800786040C0B23349085C31490870CC
:100C500004E000202C4908702E4908704FE02C4811
:100C6000801F448028480078401C27490870294884
:100C700000786040C0B22849085C264908703EE010
:100C80002348801F408800EB04202149891F4880A9
:100C90001D480078401C1C4908701E4800786040C0
:100CA000C0B21D49085C1B49087028E01848801F25
:100CB000848015480078401C134908701548007856
:100CC0006040C0B21449085C1249087017E015E092
:100CD0000F48801F808800EB04200D49891F888001
:100CE00009480078401C084908700A4800786040AC
:100CF000C0B20949085C0749087000E000BF00BFA6
:100D0000002010BD00500040020000200400002020
:100D100026000020030000209E1100080000002093
:100D200010B50022002340F66A14A14200D100BF92
:100D30000A1201249440A3B2DC43048010BD21B107
:100D4000828942F40052828104E082894DF6FF7369
:100D50001A408281704770B50246002400230025A6
:100D6000002040F66A16B14200D100BFC1F342151F
:100D700001F01F03012606FA03F3012D02D1968923
:100D8000334006E0022D02D1168A334001E0968AF4
:100D900033400C12012606FA04F41688344013B1CD
:100DA0000CB1012000E0002070BDF0B50346002426
:100DB00000260025002040F66A17B94200D100BF86
:100DC0001846C1F3421401F01F06012707FA06F581
:100DD000012C01D10C3004E0022C01D1103000E0D4
:100DE00014301AB107682F43076002E00768AF4369
:100DF0000760F0BD2DE9FF4705460E460024A146D9
:100E000000BFA046B08900B100BF2C8A24F4405432
:100E1000F08804432C82AC8941F20C608443B08892
:100E200031890843718908430443AC81AC8A24F4B6
:100E30004074B0890443AC826846FFF7ADFC20489B
:100E4000854202D01F48854202D1DDF80C9001E0B6
:100E5000DDF80890A88900F4004040B109EBC90012
:100E600000EB091031684900B0FBF1F707E009EB2E
:100E7000C90000EB091031688900B0FBF1F764206C
:100E8000B7FBF0F004012009642101FB1078A88968
:100E900000F4004040B1322000EBC800B0FBF1F09C
:100EA00000F00700044308E0322000EB0810642142
:100EB000B0FBF1F000F00F0004432C81BDE8FF8788
:100EC000001001400014014001468888C0F308006A
:100ED000704700BFFEE700BF7047704710B504467B
:100EE0006FF00400FFF744FDE11704EB5171C1F30B
:100EF000C701074A11701046007800EB4001C1EBB2
:100F0000C0104FF6FF7101EAC0000249088010BD11
:100F1000060000200800002070B504464FF407705A
:100F200094FBF0F0C6B24FF4077094FBF0F100FBB5
:100F3000114085B205E04FF4077000F009F8701E0B
:100F4000C6B2002EF7D115B1284600F001F870BDE9
:100F50000146114A12884A434FF0E0235A610022A9
:100F60009A611A46126942F001021A6100BF4FF0FD
:100F7000E022106900F001021AB100F48032002A68
:100F8000F5D04FF0E022126922F001024FF0E02389
:100F90001A6100229A6170470800002000BF054ACC
:100FA000128802F04002002AF9D0C2B2014B9A80A6
:100FB000704700000010014000F014F807E00448FA
:100FC000018804A0FFF756F90520FFF7A5FFF6E713
:100FD00000000020B3C9B9A6BDD3CAD52564B4CEDC
:100FE0000A00000010B5A820FFF778FF4FF4A060BA
:100FF000FFF796FBFFF734FB4FF4FA70FFF78CFF17
:101000004FF4E13000F076F84FF4E13000F002F8F0
:1010100010BD000010B588B0044601210420FFF780
:101020008BFB01210820FFF787FB01210805FFF753
:1010300093FB08220C212C48FFF7EBFA082202212F
:101040002A48FFF7E6FA4FF48050069002208DF808
:101050001C0000208DF81E0002208DF81D000120CC
:101060008DF81F0006A92048FFF78BFA0420069090
:1010700002208DF81C0000208DF81E0002208DF843
:101080001D0001208DF81F0006A91848FFF779FA06
:1010900035208DF8040002208DF8050000208DF821
:1010A000060001208DF8070001A8FFF7FDFA029461
:1010B0000020ADF80C00ADF80E00ADF81000ADF852
:1010C00014000C20ADF8120002A90948FFF792FEA7
:1010D000012240F225510648FFF767FE012104482E
:1010E000FFF72DFE08B010BD00080240000C0240C2
:1010F0000050004010B586B0044601210846FFF7B5
:101100001BFB01211020FFF737FB072209211E4896
:10111000FFF77FFA07220A211B48FFF77AFA4FF4FC
:10112000C060049002208DF814008DF81500002096
:101130008DF8160001208DF8170004A91248FFF75A
:1011400020FA1248006840F48040104908600846C0
:10115000006820F48040086000940020ADF804008E
:10116000ADF80600ADF80800ADF80C000C20ADF8A5
:101170000A0069460648FFF73DFE01210448FFF7D3
:10118000DEFD06B010BD0000000002402438024021
:10119000001001404FF04070E1EE100A7047004D22
:1011A0009AD77934E3AEF2BF68258BC6115CA9E407
:1011B000337ED09D4A075B16C18C226FB8F51F5253
:1011C00085C8662BFCB1EDA0773A94D90E43B6FBE7
:1011D0002C61CF8255184409DE933D70A7EA3E7317
:1011E000A4E9470ADD90CC81561BB5F82F6297DA47
:1011F0000D40EEA374396528FFB21C5186CB216CDB
:10120000BBF65815C28FD39E4904AAE7307D88C526
:10121000125FF1BC6B267A37E0AD034E99D47C3176
:10122000E6AB05489FD28EC31459F7BA6D20D59806
:101230004F02ACE1367B276ABDF05E13C489632E92
:10124000F9B41A5780CD91DC0B46E8A5723FCA87E6
:10125000501DB3FE29643875A2EF410CDB96420F96
:10126000D8953B76A1ECB0FD2A67C984531EEBA646
:10127000713C92DF0845195483CE602DFAB75D109A
:10128000C78A2469BEF3AFE23578D69B4C01F4B926
:101290006E238DC0175A064B9CD17F32E5A8000003
:1012A000C01200080000002020000000C401000857
:1012B000E01200082000002090060000E001000875
:1012C000000000000000000000000000000000001E
:1012D00000000000010203040102030406070809DC
:040000050800018965
:00000001FF
