:10000000781C00209DFF00001DFD0000095D000020
:10001000ABFF0000ABFF0000ABFF0000ABFF000038
:10002000000000000000000000000000ABFF000026
:10003000ABFF000000000000535C00003D320100F7
:100040003BD800006BD70000F7D8000041D9000072
:1000500081EE00003BD800006BD70000F7D800000D
:1000600041D9000095EA0000C9EA0000FDEA00005D
:1000700031EB00009FFA00009FFA000081EE0000C3
:1000800081EE000069DA00000000000000000000BE
:100090000000000000000000000000000000000060
:1000A0000000000000000000000000000000000050
:1000B0000000000000000000000000000000000040
:1000C0000000000000000000000000000000000030
:1000D0000000000000000000000000000000000020
:1000E0000000000000000000000000000000000010
:1000F0000000000000000000000000000000000000
:1001000000000000000000000000000000000000EF
:1001100000000000000000000000000000000000DF
:1001200000000000000000000000000000000000CF
:1001300000000000000000000000000000000000BF
:1001400000000000000000000000000000000000AF
:10015000000000000000000000000000000000009F
:10016000000000000000000000000000000000008F
:10017000000000000000000000000000000000007F
:10018000000000000000000000000000000000006F
:10019000000000000000000000000000000000005F
:1001A000000000000000000000000000000000004F
:1001B000000000000000000000000000000000003F
:1001C000FFFFFFFFFFFFFFFFFFFFFFFFFFFFFFFF3F
:1001D000FFFFFFFFFFFFFFFFFFFFFFFFFFFFFFFF2F
:1001E000FFFFFFFFFFFFFFFFFFFFFFFFFFFFFFFF1F
:1001F000FFFFFFFFFFFFFFFFFFFFFFFFFFFFFFFF0F
:1002000010B5054C237833B9044B13B1044800E012
:1002100000BF0123237010BDB007002000000000C4
:1002200034DD010008B5034B1BB10349034800E06E
:1002300000BF08BD00000000B407002034DD01004D
:1002400080B582B000AF00237B602D4B01221A7075
:100250002C480BF067FB03461A462B4B1A602B48C1
:100260000BF060FB03461A46294B1A6029480BF035
:1002700059FB03461A46284B1A6028480BF052FBDC
:1002800003461A46264B1A601F4B1B68002118466E
:100290000BF0EAFA1E4B1B68002118460BF0E4FA3B
:1002A0001D4B1B68002118460BF0DEFA1C4B1B6827
:1002B000002118460BF0D8FA134B1B680021184692
:1002C0000BF0F2FA124B1B68002118460BF0ECFA07
:1002D000114B1B68002118460BF0E6FA104B1B6807
:1002E000002118460BF0E0FA0E4803F0CFFA01F0B7
:1002F00029FB78607B6818460837BD4680BD00BF83
:1003000000000020AC8C0100CC070020B48C010060
:10031000D0070020BC8C0100D4070020C48C010051
:10032000D8070020CC8C010080B584B000AF786085
:1003300039600023FB600A4B00221A70094B1B68CE
:10034000002118460BF0E6FB074B1B6800211846FE
:100350000BF0E0FBFB6818461037BD4680BD00BFC0
:1003600000000020D0080020D408002080B582B012
:1003700000AF00237B600A4B01221A70094B1B68F7
:10038000002118460BF0F3FB074B1B6800211846B1
:100390000BF0EDFB7B6818460837BD4680BD00BFFB
:1003A00000000020D0080020D408002080B582B0D2
:1003B00000AF00237B601C4B1B68002118460BF02C
:1003C00073FA1A4B1B68012118460BF06DFA184B93
:1003D0001B68002118460BF067FA164B1B680121B9
:1003E00018460BF061FA144B1B68144A1268114648
:1003F000184601F091FB124B1B68124A1268114615
:10040000184601F089FB0C4B1B68002118460BF0C5
:1004100081FB0B4B1B68002118460BF07BFB7B68B4
:1004200018460837BD4680BDCC070020D007002005
:10043000D4070020D8070020D00800205400002056
:10044000D40800205C00002080B582B000AF0023FB
:100450007B601C4B1B68012118460BF025FA1A4BD8
:100460001B68002118460BF01FFA184B1B6801216E
:1004700018460BF019FA164B1B68002118460BF0B2
:1004800013FA144B1B68144A12681146184601F0FF
:1004900043FB124B1B68124A12681146184601F0C2
:1004A0003BFB0C4B1B68002118460BF033FB0B4B3E
:1004B0001B68002118460BF02DFB7B681846083797
:1004C000BD4680BDCC070020D0070020D407002007
:1004D000D8070020D008002054000020D4080020B5
:1004E0005C000020FFFFFFFF80B586B000AF002357
:1004F0007B604F4B1B68002118460BF0D5F94D4B24
:100500001B68012118460BF0CFF94B4B1B680121EA
:1005100018460BF0C9F9494B1B68002118460BF02F
:10052000C3F9474B1B68002118460BF0F3FA454B03
:100530001B68002118460BF0EDFA434B1B68184668
:1005400017F0C4FC38A3D3E9002317F039FD0246A5
:100550000B461046194617F0E3FF03467B613B4B01
:100560001B68184617F0B2FC2FA3D3E9002317F03D
:1005700027FD02460B461046194617F0D1FF0346E9
:100580003B612F4B1B687A691146184601F0C4FA8B
:100590002C4B1B683A691146184601F0BDFA00233E
:1005A000FB602DE00023BB6024E0254B1B687A69CB
:1005B0001146184601F0B0FA224B1B683A69114601
:1005C000184601F0A9FA7B69214A82FB0312D21274
:1005D000DB179B1A7A6913447B613B691C4A82FBD7
:1005E0000312D212DB179B1A3A6913443B61BB68B2
:1005F0000133BB60BB68632BD7DDFB680133FB6055
:10060000FB68312BCEDD0E4B1B68184601F0A6FAB5
:100610000C4B1B68184601F0A1FA7B681846183786
:10062000BD4680BDAFF30080CDCCCCCCCCCCEC3F74
:10063000CC070020D0070020D4070020D8070020D6
:10064000D0080020D40800205000002058000020CE
:10065000AD8BDB68FFFFFFFF80B586B000AF0023E6
:100660007B604F4B1B68012118460BF01DF94D4B69
:100670001B68002118460BF017F94B4B1B68002133
:1006800018460BF011F9494B1B68012118460BF075
:100690000BF9474B1B68002118460BF03BFA454B02
:1006A0001B68002118460BF035FA434B1B681846AF
:1006B00017F00CFC38A3D3E9002317F081FC0246A5
:1006C0000B461046194617F02BFF03467B613B4B48
:1006D0001B68184617F0FAFB2FA3D3E9002317F085
:1006E0006FFC02460B461046194617F019FF0346E9
:1006F0003B612F4B1B687A691146184601F00CFAD2
:100700002C4B1B683A691146184601F005FA002384
:10071000FB602DE00023BB6024E0254B1B687A6959
:100720001146184601F0F8F9224B1B683A69114648
:10073000184601F0F1F97B69214A82FB0312D212BB
:10074000DB179B1A7A6913447B613B691C4A82FB65
:100750000312D212DB179B1A3A6913443B61BB6840
:100760000133BB60BB68632BD7DDFB680133FB60E3
:10077000FB68312BCEDD0E4B1B68184601F0EEF9FD
:100780000C4B1B68184601F0E9F97B6818461837CE
:10079000BD4680BDAFF30080CDCCCCCCCCCCEC3F03
:1007A000CC070020D0070020D4070020D807002065
:1007B000D0080020D408002050000020580000205D
:1007C000AD8BDB68FFFFFFFF80B58AB000AF7860BC
:1007D000794A4FF4827179480DF034FA78480EF076
:1007E0000BFD07F11403194675480EF02DFEBB6989
:1007F0007B62FB693B6207F10C03194670480EF0FF
:1008000042FE6D4B1B78012B40F097806D4B1B68AF
:10081000002B6DD16B4B01221A60FB686A4A136092
:100820006A4B1B686A4A13606A4B1B6840F2892254
:10083000934213DC674B1B680133664A1360644BB9
:100840001B6807EE903AB8EE677A634BD3ED007AF7
:1008500077EE277A604BC3ED007AA3E05E4B93ED11
:10086000007ADFED5E6AC7EE267A5B4BC3ED007A55
:10087000594BD3ED006A7B6A07EE903AB8EE677A7F
:10088000C6EE877A564BC3ED007A554BD3ED007A0E
:10089000F7EE006A86EEA77AF3EE046AC7EE267AD0
:1008A000504BC3ED007A4F4B1B68184617F030FBD6
:1008B0003FA3D3E9002317F083FB02460B46104603
:1008C000194617F075FE0346474A1360464BD3EDB1
:1008D000007AB0EE047A67EE877A444BC3ED007A73
:1008E0003C4B00221A603C4B4FF000021A6059E06A
:1008F000344B00221A60FB683D4A13603C4B1A6877
:10090000314B1B689A4207D3394B1A682E4B1B6830
:10091000D31A2E4A136008E02B4B1B683A6AD21A8E
:10092000334B1B681344294A1360284B1B687A6AAF
:10093000B2FBF3F32F4A136034E0224B1B68012B08
:1009400030D1FB682C4A13602B4B1A681E4B1B6876
:100950009A4207D3284B1A681B4B1B68D31A274AA5
:10096000136008E0184B1B683A6AD21A224B1B68C6
:100970001344224A1360214B1B68642202FB03F3D9
:1009800007EE903AF8EE676A104B1B6807EE903A54
:10099000B8EE677AC6EE877AFCEEE77A17EE902A11
:1009A000174B1A6000BF2837BD4680BDAFF30080EB
:1009B000A7E8482EFF211940DC070020581200202C
:1009C000A0120020E0070020E8070020E407002034
:1009D000200800201C080020240800200080224459
:1009E000280800202C0800203008002034080020AF
:1009F000EC070020F0070020FC070020F80700208B
:100A0000F4070020FFFFFFFF80B58AB000AF7860D9
:100A1000794A40F20B1179480DF014F978480EF03C
:100A2000EBFB07F11403194675480EF00DFDBB6989
:100A30007B62FB693B6207F10C03194670480EF0BC
:100A400022FD6D4B1B78012B40F097806D4B1B688E
:100A5000002B6DD16B4B01221A60FB686A4A136050
:100A60006A4B1B686A4A13606A4B1B6840F2892212
:100A7000934213DC674B1B680133664A1360644B77
:100A80001B6807EE903AB8EE677A634BD3ED007AB5
:100A900077EE277A604BC3ED007AA3E05E4B93EDCF
:100AA000007ADFED5E6AC7EE267A5B4BC3ED007A13
:100AB000594BD3ED006A7B6A07EE903AB8EE677A3D
:100AC000C6EE877A564BC3ED007A554BD3ED007ACC
:100AD000F7EE006A86EEA77AF3EE046AC7EE267A8E
:100AE000504BC3ED007A4F4B1B68184617F010FAB5
:100AF0003FA3D3E9002317F063FA02460B461046E2
:100B0000194617F055FD0346474A1360464BD3ED8F
:100B1000007AB0EE047A67EE877A444BC3ED007A30
:100B20003C4B00221A603C4B4FF000021A6059E027
:100B3000344B00221A60FB683D4A13603C4B1A6834
:100B4000314B1B689A4207D3394B1A682E4B1B68EE
:100B5000D31A2E4A136008E0354B1A683B6A1A44D0
:100B6000294B1B68D31A294A1360284B1B687A6AE1
:100B7000B2FBF3F32F4A136034E0224B1B68012BC6
:100B800030D1FB682C4A13602B4B1A681E4B1B6834
:100B90009A4207D3284B1A681B4B1B68D31A274A63
:100BA000136008E0184B1B683A6AD21A224B1B6884
:100BB0001344224A1360214B1B68642202FB03F397
:100BC00007EE903AF8EE676A104B1B6807EE903A12
:100BD000B8EE677AC6EE877AFCEEE77A17EE902ACF
:100BE000174B1A6000BF2837BD4680BDAFF30080A9
:100BF000A7E8482EFF211940DD07002058120020E9
:100C000080120020E00700200408002000080020D7
:100C10003C080020380800204008002000802244C2
:100C200044080020480800204C08002050080020FC
:100C3000080800200C0800201808002014080020D4
:100C40001008002080B582B000AF474802F01EFEB9
:100C500000237B60454946480CF0A0FF78607B6824
:100C6000002B05D0434B444A1C2144480FF034F874
:100C7000434944480EF068FA78607B68002B05D041
:100C80003C4B3D4A21213D480FF026F800237B6074
:100C90003D493E480EF058FA78607B68002B05D03D
:100CA000344B354A262135480FF016F83849394873
:100CB0000EF03EF878607B68002B05D02D4B2E4A55
:100CC0002B212E480FF008F800237B60324933486F
:100CD0000EF02EF878607B68002B05D0254B264A55
:100CE0002F2126480EF0F8FF26480EF061FA27481B
:100CF0000EF05EFA27480EF081F878607B68002BD2
:100D000005D01C4B1C4A37211C480EF0E5FF002380
:100D10007B6022480EF072F878607B68002B05D06B
:100D2000144B154A3B2115480EF0D6FF0B220B2120
:100D300040F2E6700AF088FA002200210C200AF046
:100D4000C7FA01214FF483700AF0AEFD4FF4FA7038
:100D500004F072F900214FF483700AF0A5FD4FF4FE
:100D6000FA7004F069F9ECE7388D010048CD010014
:100D7000581200204C8D0100F08D0100608D0100A3
:100D80003CCA0100A0120020ECC901008012002022
:100D9000A8C901007012002094C90100601200204F
:100DA00080B582B000AF7860034802F06FFD00BFED
:100DB0000837BD4680BD00BF748D010080B582B08C
:100DC00000AF13480AF0AEFD03467B607968114816
:100DD00002F05CFD786800230F4A00210AF0EEFC67
:100DE00038603B68002B02D00C4802F04FFD7B6856
:100DF000012118460AF010FD38603B68002B02D034
:100E0000074802F043FD00BF0837BD4680BD00BF64
:100E1000888D0100908D0100A10D0000A88D0100BA
:100E2000C08D0100B0B584B002AF7860214B1B6863
:100E30002149184611F062FD1E4B1B681F491846D8
:100E400011F0A0FD1C4BB3F900201D4B1A801A4B6A
:100E5000B3F902201B4B1A80174BB3F904201A4B2D
:100E60001A80164BB3F90020184B1A80134BB3F9B4
:100E70000220174B1A80114BB3F90420154B1A802E
:100E8000124BB3F90000124BB3F90010114BB3F938
:100E900000400B4BB3F900500A4BB3F900300A4A3B
:100EA000B2F90020019200932B46224600F054F83C
:100EB000BCE700BF64080020540800205C08002044
:100EC0009208002094080020960800208C0800203A
:100ED0008E0800209008002080B584B002AF002367
:100EE0007B600021144811F0EDFD0346134A1360A6
:100EF000124B1B68002B03D1114802F0C7FC18E00D
:100F0000104802F0C3FC4FF4FA73019313230093CB
:100F10004FF4806300220C490C4803F0ADFF786069
:100F20007B68002B02D10A4802F0B0FC786803F01D
:100F300001FF0837BD4680BDFC8D0100640800201C
:100F4000048E01001C8E0100250E0000348E01006D
:100F5000408E0100FFFFFFFFB0B584B000AF044634
:100F6000084611461A462346FB800346BB800B46C3
:100F70007B8013463B80B7F90030B7F9002003FBB4
:100F800002F2B7F92030B7F9201001FB03F31A443D
:100F9000B7F92430B7F9241001FB03F313441846C2
:100FA00016F0A4FF02460B4643EC102B13F0B0FBE7
:100FB00053EC102B1046194617F0FAFA0346FB6063
:100FC000B7F9003007EE903AF8EEE76A97ED037A4A
:100FD000C6EE877AFDEEE77A17EE903A3B80B7F9D6
:100FE000203007EE903AF8EEE76A97ED037AC6EE06
:100FF000877AFDEEE77A17EE903A3B84B7F9243012
:1010000007EE903AF8EEE76A97ED037AC6EE877A34
:10101000FDEEE77A17EE903ABB84D04B93ED007A61
:10102000CF4BD3ED007A27EE277ACE4BD3ED006A73
:10103000CD4BD3ED007A66EEA77A77EE677A77EE3E
:10104000A77AFDEEE77A17EE903A1AB2C74B1A80EC
:10105000C44B93ED007AC14BD3ED007A27EE277A8B
:10106000C14BD3ED006ABE4BD3ED007A66EEA77A92
:1010700077EE277A77EEA77AFDEEE77A17EE903AC9
:101080001AB2BB4B1A80B74B93ED007AB54BD3ED38
:10109000007A27EE277AB14BD3ED006AAF4BD3ED40
:1010A000007A66EEA77A37EE677AAF4BD3ED006A27
:1010B000AD4BD3ED007A66EEA77A37EE677AA84B90
:1010C000D3ED006AA64BD3ED007A66EEA77A77EEF1
:1010D000277AFDEEE77A17EE903A1AB2A54B1A80FE
:1010E0003A8CA44BB3F900309BB212FB03F39AB2D3
:1010F000B98C9F4BB3F900309BB211FB03F39BB249
:10110000D31A9BB21AB29C4B1A80BA8C974BB3F984
:1011100000309BB212FB03F39AB23988954BB3F9B6
:1011200000309BB211FB03F39BB2D31A9BB21AB2ED
:10113000924B1A803A888E4BB3F900309BB212FB67
:1011400003F39AB2398C894BB3F900309BB211FB8F
:1011500003F39BB2D31A9BB21AB2894B1A80864B07
:10116000B3F9003007EE903AF8EEE77A9FED857A12
:1011700027EE877A844BD3ED007A77EE277A824B7D
:10118000C3ED007A7D4BB3F9003007EE903AF8EEEC
:10119000E77A9FED7C7A27EE877A7C4BD3ED007A55
:1011A00077EE277A794BC3ED007A754BB3F90030AF
:1011B00007EE903AF8EEE77A9FED727A27EE877A9B
:1011C000734BD3ED007A77EE277A714BC3ED007A3B
:1011D000B7F9063007EE903AB8EEE77A664BB3F906
:1011E000003007EE903AF8EEE77ADFED6A6A67EED4
:1011F000A67A37EE277A644BD3ED007A77EE277A1A
:10120000FDEEE77A17EE903AFB80B7F9043007EE6F
:10121000903AB8EEE77A594BB3F9003007EE903ABE
:10122000F8EEE77ADFED5B6A67EEA67A37EE277AAB
:10123000564BD3ED007A77EE277AFDEEE77A17EE7C
:10124000903ABB80B7F9023007EE903AB8EEE77AF1
:101250004B4BB3F9003007EE903AF8EEE77ADFED4A
:101260004D6A67EEA67A37EE277A494BD3ED007ABE
:1012700077EE277AFDEEE77A17EE903A7B80374BD0
:10128000D3ED007AB1EE677AB7F9063007EE903AFF
:10129000F8EEE77A27EE277AB7F9043007EE903AAE
:1012A000F8EEE76A304BD3ED007A66EEA77A37EEB8
:1012B000677AB7F9023007EE903AF8EEE76A284B02
:1012C000D3ED007A66EEA77A77EE677A9FED327AF1
:1012D00027EE877A234BD3ED007A77EE277A214BDE
:1012E000C3ED007AB7F9063007EE903AB8EEE77A28
:1012F0001C4BD3ED007A27EE277AB7F9023007EEC0
:10130000903AF8EEE76A184BD3ED007A66EEA77ACA
:1013100037EE277AB7F9043007EE903AF8EEE76A2D
:101320000F4BD3ED007A66EEA77A77EE677A9FEDE2
:101330001A7A27EE877A094BD3ED007A77EE277A6F
:10134000064BC3ED007AB7F9043007EE903AB8EED9
:10135000E77A044BD3ED007A20E000BF6808002054
:1013600070080020440000206C0800208C08002039
:101370008E08002090080020920800209408002089
:10138000960800206F12033C7408002078080020A3
:101390007C08002000008C410000000027EE277A26
:1013A000B7F9023007EE903AF8EEE76ACA4BD3ED90
:1013B000007A66EEA77A37EE677AB7F9063007EE5D
:1013C000903AF8EEE76AC54BD3ED007A66EEA77A5D
:1013D00077EE277A9FEDC27A27EE877AC14BD3ED5D
:1013E000007A77EE277ABF4BC3ED007AB7F9023067
:1013F00007EE903AB8EEE77ABB4BD3ED007A27EED2
:10140000277AB7F9043007EE903AF8EEE76AB24B64
:10141000D3ED007A66EEA77A37EE277AB7F9063071
:1014200007EE903AF8EEE76AAE4BD3ED007A66EE3F
:10143000A77A77EE677A9FEDAA7A27EE877AA74B8D
:10144000D3ED007A77EE277AA44BC3ED007AA64B52
:1014500093ED007AA44BD3ED007A27EE277A9E4BCA
:10146000D3ED006A9C4BD3ED007A66EEA77A37EE97
:10147000277A9C4BD3ED006A9A4BD3ED007A66EE47
:10148000A77A37EE277A954BD3ED006A934BD3EDCD
:10149000007A66EEA77A77EE277A17EE900A16F0B2
:1014A00037FD02460B4643EC102B13F031F953EC99
:1014B000102B1046194617F07BF80346FB608A4B49
:1014C000D3ED006A97ED037AC6EE877A864BC3EDBB
:1014D000007A814BD3ED006A97ED037AC6EE877AE6
:1014E0007D4BC3ED007A7F4BD3ED006A97ED037A15
:1014F000C6EE877A7B4BC3ED007A784BD3ED006A5A
:1015000097ED037AC6EE877A744BC3ED007A724B7F
:10151000D3ED007AB8EE007A27EE877A6F4BD3EDE1
:10152000007A27EE277A704BD3ED007A77EEA76A20
:101530006C4BD3ED007A66EEA77A77EE277A17EE3A
:10154000900A16F0E5FC02460B4643EC102B13F014
:10155000A1F851EC100B5EA3D3E9002316F030FD87
:1015600002460B461046194617F022F803465F4A1A
:1015700013605C4BD3ED007A37EEA77A574BD3ED6F
:10158000007A27EE277A584BD3ED007A77EEA76AD8
:10159000514BD3ED007A66EEA77A77EE277A17EEF5
:1015A000900A16F0B5FC04460D464B4BD3ED007A7D
:1015B000B8EE007A27EE877A474BD3ED007A27EE14
:1015C000277A484BD3ED007A77EEA76A454BD3EDE7
:1015D000007A66EEA77A77EE677AB7EE007A77EE52
:1015E000877A17EE900A16F093FC02460B4643ECFE
:1015F000112B45EC104B13F089F851EC100B34A370
:10160000D3E9002316F0DCFC02460B4610461946CF
:1016100016F0CEFF0346364A13602F4BD3ED007A07
:1016200037EEA77A2F4BD3ED007A27EE277A2E4B91
:10163000D3ED007A77EEA76A284BD3ED007A66EEF9
:10164000A77A77EE277A17EE900A16F061FC044627
:101650000D46244BD3ED007AB8EE007A27EE877A58
:10166000204BD3ED007A27EE277A1C4BD3ED007A7E
:1016700077EEA76A194BD3ED007A66EEA77A77EE7C
:10168000677AB7EE007A77EE877A17EE900A16F04F
:101690003FFC02460B4643EC112B45EC104B13F07C
:1016A00035F851EC100B0AA3D3E9002316F088FC9F
:1016B00002460B461046194616F07AFF03460D4ABD
:1016C000136000BF1037BD46B0BD00BFAFF3008050
:1016D0006666666666A64C406808002070080020B2
:1016E000000000006C080020440000208408002056
:1016F000880800208008002080B582B000AF324BFF
:101700001B68324A1360324B1B68324A1360324BFB
:101710001B68324A1360324B1B68324A1360324BEB
:101720001B68324A136000237B602BE0274A7B68EA
:10173000134419782E4A7B6813440A461A707B6852
:10174000043324497A680A441178294AD1547B68C1
:10175000083322497A680A441178254AD1547B68B3
:101760000C3320497A680A441178214AD1547B68A5
:1017700010331E497A680A4411781D4AD1547B6897
:1017800001337B607B68032BD0DD194B0A221A756D
:1017900000233B6010E0174B1868154A3B68134460
:1017A0001B781A460123002100F042FF012003F0BC
:1017B00043FC3B6801333B603B68142BEBDD00BF0F
:1017C00000BF0837BD4680BD2C080020A0080020BF
:1017D00048080020A408002080080020A808002055
:1017E0009C080020AC08002098080020B0080020C9
:1017F000B40800200809002080B584B002AF1A4B5D
:1018000093ED007A194BD3ED007A37EE277AF0EE9C
:10181000006AC7EE267A164BC3ED007A124B93EDA1
:10182000007A124BD3ED007A37EE277AF0EE006A99
:10183000C7EE267A0F4BC3ED007A4FF4FA7301938B
:10184000122300934FF4006300220B490B4803F06E
:1018500013FB78607B68002B02D0786803F06AFA8B
:1018600000BF0837BD4680BD300800204C0800206E
:10187000980800209C080020F9160000748E0100D2
:101880002DE9B04386B004AF786039607B68032BE4
:1018900003DC274801F0FAFF44E03B6804331B688F
:1018A000184613F011FD07EE900AF8EEE77A214B87
:1018B000C3ED007A3B6808331B68184613F004FD3B
:1018C00007EE900AF8EEE77A1B4BC3ED007A3B680F
:1018D0000C331B68184613F0F7FC07EE900AF8EE7D
:1018E000E77A164BC3ED007A124B1B68184616F0C8
:1018F0000FFB80468946104B1B68184616F008FB04
:1019000004460D460D4B1B68184616F001FB0246B7
:101910000B46CDE90223CDE9004542464B46084837
:1019200001F0B4FF002318460837BD46BDE8B08378
:10193000B88E010048000020CC0800204C00002098
:10194000D88E010080B582B000AF224800F04DFD76
:101950000346214A1360214800F047FD0346204A10
:1019600013601D4B1B68002B11D01B4B18681D4BBF
:101970001A681D4B1B6800210AF026F978607B6805
:10198000002B07DA7968194801F080FF02E0184857
:1019900001F07CFF00237B60114B1B68002B11D0F2
:1019A0000F4B1868134B1A68134B1B6800210AF081
:1019B0000BF978607B68002B07DA79680F4801F033
:1019C00065FF02E00E4801F061FF7B6818460837AA
:1019D000BD4680BD108F0100D0080020188F010087
:1019E000D40800205000002054000020208F010067
:1019F000308F0100580000205C000020408F010063
:101A0000508F010080B584B000AF7860396000234A
:101A1000FB600023BB607B68012B03D10023BB600C
:101A2000BB6863E07B68022B07D1324801F02EFFD0
:101A30004FF0FF33BB60BB6858E03B6804331B6862
:101A40002D49184613F040FD0346002B1FD13B687B
:101A500008331B68184613F03BFC03461A46274B15
:101A60001B6802FB03F3264AA2FB03235B09FB600E
:101A7000244B1868214B1A68FB6800210AF0A4F86F
:101A8000204B1B681946204801F000FF2DE03B6801
:101A900004331B681D49184613F016FD0346002B3E
:101AA0001FD13B6808331B68184613F011FC03462E
:101AB0001A46174B1B6802FB03F3114AA2FB0323D0
:101AC0005B09FB60134B1868114B1A68FB68002117
:101AD0000AF07AF80F4B1B6819460B4801F0D6FE46
:101AE00003E00023BB60BB6800E0BB68184610370A
:101AF000BD4680BD608F0100108F010050000020A6
:101B00001F85EB51D0080020948F0100188F010031
:101B100058000020D408002080B584B000AF786061
:101B200039600023FB607B68002B04D165220849E3
:101B3000084801F0E9FF3B68074A002178680AF08D
:101B400043F8F860FB6818461037BD4680BD00BFFB
:101B5000E48F0100A08F010040420F0080B584B0E7
:101B600000AF78600023FB600021786809F0FFFF78
:101B7000F860FB6818461037BD4680BD80B584B05C
:101B800000AF786039600023FB60074B1B68184684
:101B900001F00AF9F860054B01221A80FB6818462B
:101BA0001037BD4680BD00BFDC080020E4080020DF
:101BB00080B500AF09E00C4B1B684FF0FF311846B1
:101BC00001F02AF8094B00221A80094B18680123FA
:101BD000084A4FF0FF3100F0E7FC0346012BEAD141
:101BE000044B1B78184680BDDC080020E408002068
:101BF000E0080020D808002080B582B000AF7860EF
:101C0000694801F043FE694801F040FE684801F070
:101C10003DFE684801F03AFE674801F037FE67482C
:101C200001F034FE614801F031FEADE0644B1B78F9
:101C30001946644801F02AFE614B1B78312B7DD197
:101C4000594801F023FE604801F020FE5F4801F092
:101C50001DFE5F4801F01AFE5E4801F017FE5E4867
:101C600001F014FE5D4801F011FE5CE0544B1B785E
:101C7000772B03D0524B1B78572B08D1504B1B7836
:101C80001946574801F002FEFEF790FB4BE04C4B23
:101C90001B78732B03D04A4B1B78532B08D1484B2E
:101CA0001B7819464F4801F0F1FDFEF7CDFB3AE0F5
:101CB000434B1B78612B03D0414B1B78412B08D140
:101CC0003F4B1B781946484801F0E0FDFEF70CFC3D
:101CD00029E03B4B1B78642B03D0394B1B78442BFA
:101CE00008D1374B1B781946404801F0CFFDFEF76D
:101CF000B3FC18E0324B1B78702B03D0304B1B78B1
:101D0000502B08D12E4B1B781946394801F0BEFDE7
:101D1000FEF72CFB07E02A4B1B78032B03D1354839
:101D200001F0B4FD30E0FFF743FF03461A46244BB1
:101D30001A70234B1B78002B98D125E0204B1B7881
:101D4000322B16D1184801F0A1FD05E0FFF7C4F8C9
:101D50001B4B1B786D2B0AD0FFF72AFF03461A4650
:101D6000174B1A70164B1B78002BEFD10CE000BFFD
:101D70000AE0134B1B78632B06D10B4801F086FD5C
:101D80001D4801F083FD0BE0FFF712FF03461A46E2
:101D90000B4B1A700A4B1B78002B7FF447AF00BF28
:101DA00000BF0837BD4680BDF48F0100FC8F0100E5
:101DB00030900100649001008C900100B49001000B
:101DC000D8080020E4900100F89001002C91010057
:101DD0006091010094910100C8910100FC91010003
:101DE0002C92010040920100549201006492010083
:101DF00074920100849201009892010080B584B031
:101E000002AF314B4FF4E1321A602F4A13790821A7
:101E100061F3030313712C4A13796FF305131371E4
:101E2000294A5368802161F399235360264A137924
:101E30006FF38713137100220021244800F096FEEF
:101E40000346234A1360234800F0CFFA0346224A90
:101E50001360214B1B68002B07D11F4B1B681946D1
:101E60001E4801F013FD01232AE01B4B1B6840F2C2
:101E70004311184600F0C6FA174B1B68124A03219B
:101E8000184600F019FC144B1B681549184600F061
:101E900047FC114B18683A460423002100F0C8FBA8
:101EA00064230193132300934FF4006300220D4930
:101EB0000D4802F0E1FF7860786802F03BFF0023F4
:101EC00018460837BD4680BD60000020B092010072
:101ED000DC080020C0920100E0080020C892010048
:101EE0007D1B0000F91B0000DC92010080B582B070
:101EF00000AF786039603B68002B02D0034800F0E7
:101F000053FF002318460837BD4680BDE80800206F
:101F100080B582B000AF09E0002201210B4800F03B
:101F2000A1FF4FF0FF31094800F076FE084B18681A
:101F3000FA1D0123002100F037FB0346002BEBD0F4
:101F4000FB7918460837BD4680BD00BFE808002071
:101F50000809002080B584B000AFFFF74DFCFFF703
:101F6000D7FF0346FB722D4B186807F10B020123C4
:101F7000002100F05DFBFB7A0D2B3AD10023FB60C2
:101F800017E03A46FB6813441978254AFB68134466
:101F90000A461A70FB68043307F11002134413F861
:101FA000101C204AFB6813440A461A70FB68013370
:101FB000FB60FB68032BE4DD194B1B681A4A1360B6
:101FC000184B1B68194A1360194B1B785A1CD1B265
:101FD000174A117007F110021344002203F8102C65
:101FE0003B461946134801F051FC114B00221A7070
:101FF00013E00F4B1B78092B28BF0923DAB20C4BD7
:102000001A700B4B1B785A1CD1B2094A1170FA7A1C
:1020100007F110010B4403F8102CA0E70809002079
:1020200018090020140900200C09002010090020C4
:102030001C09002010930100B0B590B002AF786089
:10204000396000237B63354B07F10C041D460FCD2F
:102050000FC495E8070003C422800234130C2370D8
:102060007B68022B09D13B680433196807F1280308
:102070000822184601F0E9FA06E007F128030822D1
:102080002749184601F0E1FA07F12803184600F045
:10209000ACF90346234A1360224B1B68002B07D17F
:1020A00007F128031946204801F0F0FB012330E036
:1020B000002300221D491E4800F014FD194B1B6827
:1020C0004FF48071184600F09DF9164B1B681949B2
:1020D000184600F025FB134B186807F10C021A2371
:1020E000002100F0A5FA0A230193192300934FF46D
:1020F000806300221049114802F0BEFE38633B6B3A
:10210000002B03D0386B02F015FE01E001237B6346
:102110007B6B18463837BD46B0BD00BF4C930100FD
:102120001C9301000809002024930100389301004A
:10213000E8080020ED1E0000551F0000409301003C
:1021400080B400AF034B1B681846BD465DF8047BA6
:10215000704700BF2009002080B582B000AF1B4B44
:102160001B68002B02D0194B1B68984703F05AFDDF
:102170007860174B1B680133154A136002F0CEFDDF
:1021800038603B689B6C5A1E3B689A643B689B6C4A
:10219000002B12D13B685A6C3B689A643B6893F8F9
:1021A000343043F00803DAB23B6883F834207868AF
:1021B00003F03CFD02F0BEFA02E0786803F036FD61
:1021C00003F0A2FB00BF0837BD4680BD24090020F4
:1021D0002009002080B485B000AF78607B68002BB8
:1021E00003DA4FF0FF33FB6027E07B68164A82FB7F
:1021F00003129211DB17D31A4FF47A7202FB03F326
:10220000FB607A68104B83FB02139911D317CB1A2A
:102210004FF47A7101FB03F3D31A4FF47A7202FB85
:1022200003F303F2E733084A82FB03129211DB1730
:10223000D31A1A46FB681344FB60FB681846143730
:10224000BD465DF8047B7047D34D621080B400AF8B
:1022500000231846BD465DF8047B704780B400AF8C
:1022600000231846BD465DF8047B704780B400AF7C
:1022700000231846BD465DF8047B704780B400AF6C
:1022800000231846BD465DF8047B704780B582B0D8
:1022900000AF094B7B6005E07B681B6898477B6853
:1022A00004337B607B68054A9342F5D300BF00BFCF
:1022B0000837BD4680BD00BF808C0100908C0100B6
:1022C00080B582B000AF094B7B6005E07B681B687E
:1022D00098477B6804337B607B68054A9342F5D35B
:1022E00000BF00BF0837BD4680BD00BF908C010015
:1022F000A88C010080B500AF00F036F80023184626
:1023000080BD80B582B000AF7860FFF7D9FF0AF0DA
:1023100027FF00BF0837BD4680BDFFFF80B584B0F2
:1023200002AF142301930A2300934FF400630022A9
:1023300009490A4802F0A0FD78607B68002B04D1AF
:10234000D5220749074801F0DFFB786802F0F2FC6C
:1023500000BF0837BD4680BD0323000090930100F5
:10236000A89301009893010080B500AF03F05AFCD8
:1023700010F06EFF01F0D8F903F006FC02F0A2F9AC
:10238000FFF7CCFF03F01AFC00F0A0FA02F0B6F958
:102390000023184680BD80B584B000AFF860B960F6
:1023A0001346FB80FB68002B02D14FF0FF3318E08F
:1023B000B86800F01AF80346002B02D04FF0FF3344
:1023C0000FE0FB68BA680921184601F0EDFEFB68D2
:1023D000FA88DA82FB6800229A76FB6800221A8368
:1023E000002318461037BD4680BD80B582B000AFCF
:1023F00078600921786802F04DF8034618460837DE
:10240000BD4680BD80B584B000AF78600B467B8050
:102410000023FB607B68002B04D1D0223749384869
:1024200001F072FB7B68184602F01AF80346092B8C
:1024300004D0D1223149334801F066FB7B68DB8A46
:1024400003F01003002B14D17B685B6A002B09D0CA
:102450007B685B6A78689847F860FB68002B01D05E
:10246000FB6847E07B68DB8A43F010039AB27B6825
:10247000DA827B68DB8A03F00803002B08D07B68D4
:102480001B8B03F00803002B02D06FF0060331E032
:102490007B689B6A002B07D07B689B6A7A88114611
:1024A00078689847F86007E07B8823F0F0031B0505
:1024B0001B0D9AB27B681A83FB68002B03D0FB6864
:1024C00013F1060F15D17B681B8B43F008039AB2FA
:1024D0007B681A837B689B7E0133DAB27B689A76CD
:1024E0007B689B7E002B04D1FF220449064801F043
:1024F0000BFBFB6818461037BD4680BD7894010081
:10250000BC930100CC9301006494010080B584B0B9
:1025100000AF78600023FB607B68002B05D14FF48F
:1025200089721E491E4801F0EFFA7B68184601F0D7
:1025300097FF0346092B05D040F21312174919489B
:1025400001F0E2FA7B689B7E002B02D14FF0FF3353
:102550001FE07B689B7E013BDAB27B689A767B68E2
:102560009B7E002B01D0002313E07B68DB6A002BED
:1025700004D07B68DB6A78689847F860FB68002BBA
:1025800003D0FB6813F1060F02D17B6800221A8387
:10259000FB6818461037BD4680BD00BF8894010017
:1025A000BC930100CC93010090B585B000AFF860FA
:1025B000B9607A603B60FB68002B05D14FF4A072D4
:1025C0001849194801F0A0FAFB68184601F048FFC5
:1025D0000346092B05D040F241121249134801F07D
:1025E00093FAFB689B7E002B05D14FF0FF3000F083
:1025F000EDFE002311E0FB681B6B002B08D0FB688D
:102600001C6B3B687A68B968F868A047034604E029
:102610006FF0050000F0DAFE002318461437BD46BF
:1026200090BD00BF98940100BC930100CC930100C1
:1026300090B585B000AFF860B9607A603B60FB6828
:10264000002B05D140F26B121849194801F05CFAD1
:10265000FB68184601F004FF0346092B05D04FF430
:10266000B6721249134801F04FFAFB689B7E002BAB
:1026700005D14FF0FF3000F0A9FE002311E0FB6808
:102680005B6B002B08D0FB685C6B3B687A68B968B1
:10269000F868A047034604E06FF0050000F096FEDE
:1026A000002318461437BD4690BD00BFA894010012
:1026B000BC930100CC93010080B584B000AFF860FA
:1026C000B9607A60FB68002B05D140F28F12114986
:1026D000114801F019FAFB68184601F0C1FE0346E3
:1026E000092B05D04FF4C8720A490C4801F00CFAC6
:1026F000FB689B6B002B07D0FB689B6B7A68B96803
:10270000F8689847034601E06FF005031846103754
:10271000BD4680BDB8940100BC930100CC9301007C
:1027200080B582B000AF786039607B68002B05D13E
:1027300040F2AB120C490D4801F0E6F97B681846EF
:1027400001F08EFE0346092B05D04FF4D6720649E0
:10275000074801F0D9F97B683A68DA610023184626
:102760000837BD4680BD00BFCC940100BC9301007A
:10277000CC93010080B483B000AF786039607B688F
:102780001B683A685A607B681A683B681A607B6805
:102790003A681A603B687A685A6000BF0C37BD46D9
:1027A0005DF8047B704780B483B000AF78607B68CD
:1027B0001B687A6852685A607B685B687A6812683E
:1027C0001A607B687A685A607B685A687B681A600E
:1027D00000BF0C37BD465DF8047B704780B582B002
:1027E00000AF78607B68143319460348FFF7C2FFD7
:1027F00000BF0837BD4680BD6C00002090B583B097
:1028000000AF00237B600D4B3B603B681B683A6860
:102810009A420ED03B681B68143B7B6003F002FABF
:1028200004467B6814331846FFF7BDFF204603F0CB
:10283000FDF97B6818460C37BD4690BD6C00002042
:1028400080B582B000AFFFF7D9FF78607B68002BBE
:102850001BD07B689B6F3B603B68002B02D03B68C2
:1028600078689847786801F0DDFD0346012B03D1B5
:10287000786801F0FFFCE6E77B689B6A184601F088
:1028800011F9786801F090FDDDE700BF00BF08375F
:10289000BD4680BD80B584B000AF78600023FB608A
:1028A0000CE0094AFB6852F82330BB60BB68002B80
:1028B00001D0BB689847FB680133FB60FB68032BC2
:1028C000EFD9FFF7BDFFE9E7A80A002080B588B07F
:1028D00004AF0023FB6024E03B1DFA68154918464D
:1028E00000F05AFFFB68DB01134A9818FB681B02D3
:1028F000124A1344391D202203921F2202924FF4E0
:1029000080720192009300230D4A02F0CFF9FB6818
:10291000DB01094A1344184602F00CFAFB68013344
:10292000FB60FB68002BD7D000BF00BF1037BD464F
:1029300080BD00BFE894010028090020A8090020FC
:102940009528000080B483B000AF78607B687A6817
:102950005A607B685A687B681A6000BF0C37BD46B6
:102960005DF8047B704780B483B000AF7860396055
:102970007B685B683A681A607B685A683B685A6093
:102980007B683A685A603B687A681A6000BF0C3707
:10299000BD465DF8047B704780B483B000AF7860BB
:1029A0007B681B687A689A420CBF01230023DBB264
:1029B00018460C37BD465DF8047B704780B582B081
:1029C00000AF78607B6814331846FFF7BBFF002325
:1029D00018460837BD4680BD80B586B000AFF860A8
:1029E000B9601346FB71B86802F0B4FBFB79002BA9
:1029F00002D0012B07D031E0BB6814331946F868C8
:102A0000FFF7B1FF31E0FB681B687B6117E07B6972
:102A1000143B3B61BB6893F835203B6993F8353034
:102A20009A4209D23B6903F11402BB681433194678
:102A30001046FFF798FF06E07B691B687B617A69A7
:102A4000FB689A42E3D17A69FB689A420CD1BB6871
:102A500014331946F868FFF786FF05E0A3220549FD
:102A6000054801F051F800E000BF00231846183770
:102A7000BD4680BDF8990100F094010080B584B096
:102A800000AF78607B681B68143BFB60F86802F05D
:102A9000C5FB002318461037BD4680BD90B585B0F4
:102AA00000AF786012E003F0BDF803461C467B6877
:102AB0001B68143BFB60FB684FF0FF321A63F86839
:102AC00002F0ACFB2346184603F0B0F87868FFF735
:102AD00063FF0346002BE6D0002318461437BD469B
:102AE00090BDFFFF80B584B000AFF860B9607A6038
:102AF000FB70FB68002B05D14FF4967217491848FC
:102B000001F002F87B68B3F5803F05D340F22D1247
:102B10001249144800F0F8FFFB78002B08D0FB782E
:102B2000012B05D04FF497720C490F4800F0ECFFD1
:102B3000FB68BA680221184601F036FBFB681846AC
:102B4000FFF73CFF7B689AB2FB689A83FB68FA78D0
:102B50005A72002318461037BD4680BDD099010037
:102B6000F4940100049501001895010080B586B029
:102B700000AFF860B9601346FB71BB68B3F5803FE6
:102B800005D340F289121F491F4800F0BDFFFB79B1
:102B9000002B08D0FB79012B05D04FF4C5721949E1
:102BA0001A4800F0B1FF03F03DF8786100F0FAFB3D
:102BB0000346002B09D01349154800F067FE4FF477
:102BC000C6721049134800F09FFF786903F02EF891
:102BD000F968022001F07CFB38613B69002B01D1D0
:102BE0003B690BE03B691846FFF7E8FEBB689AB209
:102BF0003B699A833B69FA795A723B6918461837E0
:102C0000BD4680BDDC9901000495010018950100C6
:102C1000CC950100F094010090B587B000AF7860CA
:102C200039607B68002B05D140F2E51255495648C2
:102C300000F06AFF7B68184601F012FC0346022B85
:102C400005D04FF4F3724F49504800F05DFF504BF0
:102C50001B68002B04D04E4B1B687A6810469847BF
:102C600002F0E0FF04467B689B8B002B09D07B6859
:102C70009B8B013B9AB27B689A83204602F0D6FF79
:102C800071E03B68002B05D1204602F0CFFF6FF0CA
:102C9000010372E002F0C6FF786101F0E7FE03462F
:102CA000002B09D037493B4800F0F0FD40F20622E6
:102CB0003449394800F028FF02F0B4FF386102F0CF
:102CC0002DF80346002B09D12E49344800F0DEFDD3
:102CD00040F206222B49304800F016FF02F0A2FF16
:102CE000F86000F05FFB0346002B09D025492C4813
:102CF00000F0CCFD40F206222249274800F004FFF4
:102D0000F86802F093FF386902F090FF786902F0EA
:102D10008DFF02F003F8B860BB6800221A637B687D
:102D200003F114007B685B7A1A46B968FFF754FE1A
:102D30003B68002B0BDDBB684C333A46002118463C
:102D400002F066FDBB684C33184602F005FC2046D5
:102D500002F06CFF01F0EEFCBB681B6B002B02D095
:102D6000BB681B6B09E00F4B1B68002B04D00D4B9D
:102D70001B687A6810469847002318461C37BD46E2
:102D800090BD00BFEC990100F4940100549501003E
:102D9000880B002030960100F09401005C96010041
:102DA000CC9501008C0B0020B0B582B000AF7860EC
:102DB0007B68002B05D140F25F222649264800F0AF
:102DC000A3FE7B68184601F04BFB0346022B05D09F
:102DD0004FF418721F49214800F096FE204B1B68E3
:102DE000002B04D01E4B1B687A68104698470025BC
:102DF00002F018FF04467B6814331846FFF7CCFD39
:102E00000346002B06D17B6814331846FFF736FEC5
:102E1000012512E07B689B8B4FF6FF72934206D030
:102E20007B689B8B01339AB27B689A8305E02046CE
:102E300002F0FCFE6FF0020307E0204602F0F6FE0F
:102E4000012D01D101F076FC002318460837BD465C
:102E5000B0BD00BF0C9A0100F4940100549501002C
:102E6000900B002080B586B000AFF860B9607A6042
:102E7000FB68002B05D14FF428721849184800F060
:102E800043FEFB68184601F0EBFA0346022B05D01F
:102E900040F2A1221149134800F036FEBB68012B15
:102EA00016D17B687B6102F0BDFE03463B61FB6887
:102EB00014331846FFF7F2FD7B699AB2FB689A83D8
:102EC0003B69184602F0B2FE01F034FC002301E039
:102ED0004FF0FF3318461837BD4680BD1C9A0100DD
:102EE000F49401005495010080B584B000AFF860FF
:102EF000B9601346FB71FB68002B05D140F2E62256
:102F00001049114800F000FEFB68BA68032118461A
:102F100001F04AF9FB681846FFF750FDFB680122F3
:102F20009A83FB6800221A62FB68FF229A77FB688B
:102F30000022DA77FB6801225A7200231846103704
:102F4000BD4680BD2C9A01009496010090B587B0D3
:102F500000AF7860396002F065FE786101F086FDAF
:102F60000346002B09D07749774800F08FFC4FF4D7
:102F700065727449754800F0C7FD02F053FE386170
:102F800001F0CCFE0346002B09D16E49704800F0D9
:102F90007DFC4FF465726B496C4800F0B5FD02F0A2
:102FA00041FEF86000F0FEF90346002B09D06549A8
:102FB000684800F06BFC4FF465726249634800F0AA
:102FC000A3FDF86802F032FE386902F02FFE78693E
:102FD00002F02CFE7B68002B05D140F29732594954
:102FE0005D4800F091FD7B68184601F039FA034610
:102FF000032B05D04FF466725249584800F084FD07
:1030000001F08CFEB86002F00DFE0446544B1B68C4
:10301000002B04D0524B1B687A6810469847BB6857
:1030200000221A637B681B6ABA689A4210D17B68D7
:10303000DB7FFF2B06D07B68DB7F0133DAB27B6856
:10304000DA776DE0204602F0F1FD6FF0020374E0E4
:103050007B689B8B002B1ED07B689B8B013B9AB2BD
:103060007B689A837B68BA681A62BB6893F83520DC
:103070007B689A777B68DB7FFF2B06D07B68DB7FE2
:103080000133DAB27B68DA774AE0204602F0CEFDFF
:103090006FF0020351E03B68002B09D1BB686FF071
:1030A00001021A63204602F0C1FD6FF0010344E003
:1030B000BB6893F835207B681B6A93F835309A42D9
:1030C00007D27B68186ABB6835331A46022101F0C3
:1030D000C3FF7B6803F114007B685B7A1A46B9680A
:1030E000FFF77AFC3B68002B0BDDBB684C333A469C
:1030F0000021184602F08CFBBB684C33184602F0E6
:103100002BFA204602F092FD01F014FBBB681B6B0A
:10311000002B02D0BB681B6B0FE002F083FD04465E
:10312000204602F083FD0F4B1B68002B04D00D4B93
:103130001B687A6810469847002318461C37BD461E
:1031400090BD00BF3C9A010030960100F094010050
:103150005C960100CC95010094960100A8960100B0
:10316000880B00208C0B002090B587B000AF7860F2
:103170007B68002B05D140F244426349634800F06C
:10318000C3FC7B68184601F06BF90346032B05D09E
:1031900040F245425C495E4800F0B6FC00237B618A
:1031A00002F040FD386101F0B9FD0346002B09D162
:1031B0005549584800F06AFB40F24A425249564885
:1031C00000F0A2FC02F02EFDF86000F0EBF80346E0
:1031D000002B09D04C49514800F058FB40F24A42BC
:1031E00049494D4800F090FCF86802F01FFD38692D
:1031F00002F01CFD01F092FDB86002F013FD0446E0
:10320000474B1B68002B04D0454B1B687A6810465F
:1032100098477B681B6ABA689A4209D0BB684FF02E
:10322000FF321A63204602F001FD4FF0FF3367E0E2
:103230007B68DB7F013BDAB27B68DA777B68DB7F18
:10324000002B54D17B689A7F7B681B6A93F83530DA
:103250009A4207D07B68186A7B681E331A4602219F
:1032600001F0FAFE7B6814331846FFF795FB03461E
:10327000002B23D17B685B69143BBB607B68BA6819
:103280001A62BB6893F835207B689A777B68DB7F8E
:10329000FF2B0DD07B68DB7F0133DAB27B68DA77F6
:1032A0007B6814331846FFF7E9FB01237B611EE0BE
:1032B000204602F0BBFC6FF0020321E07B689B8B91
:1032C0004FF6FF7293420CD07B689B8B01339AB20E
:1032D0007B689A837B6800221A627B68FF229A7758
:1032E00005E0204602F0A2FC6FF0020308E0204651
:1032F00002F09CFC7B69012B01D101F01BFA002339
:1033000018461C37BD4690BD4C9A010094960100AA
:10331000A89601005C960100F0940100CC95010094
:10332000900B002080B582B000AF02F07BFC78608B
:103330000A4B1B78DBB20133DAB2084B1A70084B28
:103340001B68002B02D0064B1B689847786802F078
:103350006DFC00BF0837BD4680BD00BFC00A00201D
:10336000B80A002080B582B000AF02F05BFC786044
:103370000A4B1B68002B02D0084B1B689847084B70
:103380001B78DBB2013BDAB2054B1A70786802F0A9
:103390004DFC00BF0837BD4680BD00BFBC0A002001
:1033A000C00A002080B582B000AF02F03BFC78601C
:1033B000054B1B78FB70786802F038FCFB781846E8
:1033C0000837BD4680BD00BFC00A002080B584B06C
:1033D00000AF7860FFF7E6FF0346002B03D00A4AF0
:1033E0007B6813600CE001F099FCF860FB68002B2F
:1033F00003D1054A7B68136002E0FB687A681A63B0
:103400001037BD4680BD00BFC40A002080B582B021
:1034100000AFFFF7C7FF0346002B01D0074B09E0C1
:1034200001F07CFC78607B68002B02D07B68303335
:1034300000E0024B18460837BD4680BDC40A002094
:1034400080B489B000AFF860B9607A60FB68FB6156
:10345000BB68DBB27B617B68032B40D9FB6803F060
:103460000303002B3BD1FB68BB617B691B027A69BC
:1034700013433B613B691B043A6913433B6116E00C
:10348000BB691A1DBA613A691A60BB691A1DBA6133
:103490003A691A60BB691A1DBA613A691A60BB6958
:1034A0001A1DBA613A691A607B68103B7B607B68C1
:1034B0000F2BE5D807E0BB691A1DBA613A691A609B
:1034C0007B68043B7B607B68032BF4D8BB69FB61A2
:1034D00005E0FB695A1CFA617A69D2B21A707B68FE
:1034E0005A1E7A60002BF4D1FB6818462437BD467B
:1034F0005DF8047B704780B48BB000AFF860B960B2
:103500007A60FB687B62BB683B627B687B617B693E
:103510000F2B4DD93A6A7B6A134303F00303002B48
:1035200046D17B6AFB613B6ABB6122E0BA69131D2D
:10353000BB61FB69191DF96112681A60BA69131D34
:10354000BB61FB69191DF96112681A60BA69131D24
:10355000BB61FB69191DF96112681A60BA69131D14
:10356000BB61FB69191DF96112681A607B69103B28
:103570007B617B690F2BD9D80AE0BA69131DBB6147
:10358000FB69191DF96112681A607B69043B7B6154
:103590007B69032BF1D8FB697B62BB693B6207E067
:1035A0003A6A531C3B627B6A591C796212781A7022
:1035B0007B695A1E7A61002BF2D1FB6818462C37C2
:1035C000BD465DF8047B704780B487B000AFF860FB
:1035D000B9607A60FB687B61BB683B613A697B6973
:1035E0009A4226D23A697B6813447A699A4220D279
:1035F0007A697B6813447B613A697B6813443B6159
:1036000009E03B69013B3B617B69013B7B613B69B5
:103610001A787B691A707B685A1E7A60002BF0D189
:103620000CE03A69531C3B617B69591C7961127843
:103630001A707B685A1E7A60002BF2D1FB6818461C
:103640001C37BD465DF8047B704780B487B000AF7F
:10365000F860B9607A607B68002B21D0FB687B61E1
:10366000BB683B613A69531C3B617B69591C7961BA
:1036700012781A701B78002B0CD104E07B695A1C5D
:103680007A6100221A707B68013B7B607B68002BAB
:10369000F4D105E07B68013B7B607B68002BE1D1C6
:1036A000FB6818461C37BD465DF8047B704790B434
:1036B00084B000AFF860B9607A60002413E0FB6862
:1036C0001A78BB68591CB9601B78D31ADBB25CB29C
:1036D000002C0BD1FB685A1CFA601B78002B05D01C
:1036E0007B68013B7B607B68002BE8D12346184652
:1036F0001037BD4690BC704780B485B000AF78608D
:103700007B68FB6002E0FB680133FB60FB681B78B1
:10371000002BF8D1FA687B68D31A18461437BD46D7
:103720005DF8047B7047FFFF80B582B002AF0B48A5
:1037300000F0ACF80A4800F0A9F80A4B01930A4BD4
:103740000093002301220421084800F09FF8084854
:1037500000F09CF800BFBD4680BD00BF609A01002C
:103760006C9A0100B49A0100C09A0100909A01007D
:10377000CC9A010080B584B000AFF860B9607A607F
:103780007B68BA684FF0FF31F8680EF029FD0346F8
:1037900018461037BD4680BD0EB480B585B000AF69
:1037A000786007F12003BB60BA68F9697868FFF7B1
:1037B000E1FFF860FB6818461437BD46BDE880405D
:1037C00003B0704780B400AF034B1B681846BD467A
:1037D0005DF8047B704700BFC80A002080B584B044
:1037E00000AF7860124B1B68FB607868FEF7FDFD48
:1037F000B860BA68FB689A4201D1002313E0BB6845
:10380000002B0FD00A4B1B68002B04D0084B1B6801
:103810001846FEF77BFE4321B868FEF7F3FD044A25
:10382000BB681360FB6818461037BD4680BD00BFFB
:10383000C80A002080B483B000AF786000BF0C37A6
:10384000BD465DF8047B704790B583B000AF7860EB
:103850007B68002B13D00C4B1B68002B03D17868BE
:10386000FFF7E8FF0CE0084B1C687868FFF744FF9F
:1038700003467A6800212046FEF7DAFE00E000BF2A
:103880000C37BD4690BD00BFC80A00200FB480B5FC
:1038900082B000AF07F114033B603B683A697F21B7
:1038A00010480EF09DFC03467B607B687F2B01D99E
:1038B0007F237B600C4B1B68002B03D10948FFF76B
:1038C000B9FF06E0084B18687B68064A0021FEF73E
:1038D000AFFE7B6818460837BD46BDE8804004B09F
:1038E000704700BF000B0020C80A002080B500AF61
:1038F000012203490348FFF7F7FA00BF80BD00BF6C
:10390000009B0100D40A002080B500AF01F006FA48
:103910000346002B06D04FF0FF310448FFF716FB9B
:10392000034600E00023184680BD00BFD40A0020F3
:1039300080B582B000AF78607B68002B05D04FF473
:10394000AC620849084800F0DFF801F0E7F90346E7
:10395000002B02D00548FFF707FC00BF0837BD4623
:1039600080BD00BF7C9B0100089B0100D40A0020A1
:1039700080B485B000AFF860B9607A60FB68002B56
:1039800004D00D4B1B68DA69FB681A60BB68002B1A
:1039900004D0094B1B681A6ABB681A607B68002B4D
:1039A00004D0054B1B685A6A7B681A6000BF143745
:1039B000BD465DF8047B7047F80A002080B584B0EE
:1039C00000AF786039607B68033323F00303FB604A
:1039D0003B6823F00303BB60BA68FB689A4205D8D2
:1039E00040F2B6520A490B4800F08EF8BA68FB68FC
:1039F000D31A1A467968084800F028F90346074A9E
:103A00001360FFF773FF00BF1037BD4680BD00BFD6
:103A1000689B0100189B0100009B0100F80A002030
:103A200080B584B000AF7860FFF76EFFF8600C4B94
:103A30001B687968184600F08BF9B860F868FFF7E2
:103A400077FF084B1B68002B04D0064B1B68796876
:103A5000B8689847BB6818461037BD4680BD00BFA0
:103A6000F80A0020CC0A002080B584B000AF78604E
:103A700039607B683A6802FB03F31846FFF7D0FF12
:103A8000F860FB68002B08D07B683A6802FB03F300
:103A90001A460021F868FFF7D3FCFB681846103778
:103AA000BD4680BD80B584B000AF78600A4B1B680E
:103AB000002B03D0084B1B6878689847FFF724FF5A
:103AC000F860786800F078FAF868FFF731FF00BF17
:103AD0001037BD4680BD00BFD00A002080B586B03B
:103AE00000AFF860B9607A60FFF70EFF78617A681E
:103AF000B968F868FFF73CFF7869FFF719FF00BF66
:103B00001837BD4680BDFFFF80B586B000AFF860B6
:103B1000B9607A600023FB750C4B1B68002B0BD13E
:103B20007B68BA68F9680A48FFF7B0FE00BFFB7D02
:103B3000DBB2002BFBD005E0044B1B687A68B96848
:103B4000F868984700BF1837BD4680BDFC0A0020C2
:103B5000309B010080B584B000AF786039607B682D
:103B60009B6A3A689A4204D2822235493548FFF767
:103B7000CBFF7B68DB6A3A689A4204D383223049E0
:103B80003148FFF7C1FF7B689A6A3B685B68134462
:103B9000FB603A68FB689A4224D0FB681B6803F01C
:103BA0000103002B1ED17B68DB6AFA689A4219D0A8
:103BB0007B681B6BFA689A4202D17B683A681A6389
:103BC000FB6800221A60FB685A683B685A607B6891
:103BD0009B6A3A68D11A7B689A6AFB685B681344EF
:103BE0000A469A607B689A6A3B689B681344BB608C
:103BF000BA683B689A421FD0BB681B6803F0010398
:103C0000002B19D17B681B6B3A689A4202D17B6802
:103C1000BA681A633B6800221A603B685A68BB683E
:103C20005A607B689B6ABA68D11A7B689A6A3B685B
:103C30005B6813440A469A6000BF1037BD4680BDDA
:103C4000A89F01008C9B0100B09B010080B58AB049
:103C500000AFF860B9607A60BB68033323F00303F8
:103C60007B627B6A38333B623B6A033323F0030396
:103C7000FB61BA687B68134423F00303BB61BB6933
:103C8000182B53D9BB69183B3A6A9A424ED8BA6985
:103C9000FB69D31A183B7B6138220021786AFFF751
:103CA000CFFB7B6AFA680C21184600F07DFA7B6A2C
:103CB000254A5A617B6AFA699A617B6A7A69DA6194
:103CC0007B6A7A695A63FA697B6A9A627B6A9B6A41
:103CD0003B617B6A23F001023B691A607B6A5B6B84
:103CE00003F10C023B695A603B6900229A607B6ACF
:103CF0009A6A3B695B681A447B6ADA627A6A7B6A11
:103D0000DB6A42F001021A607B6A5A6B7B6ADB6AEB
:103D10000C325A607B6A5A6B7B6ADB6A0C329A609F
:103D20007B6A9A6A7B6A1A637B6A08E0B968BA6838
:103D30007B6813441A460548FFF7A8FD0023184680
:103D40002837BD4680BD00BFE09B0100E89B010015
:103D500080B588B000AF786039603B68002B01D136
:103D6000002315E17B68002B05D14FF490728A493E
:103D70008A48FFF7C9FE7B68184600F071FB0346CE
:103D80000C2B05D040F2211283498548FFF7BCFE79
:103D90007B68184600F046FB0346002B05D14FF424
:103DA00091727D497F48FFF7AFFE7B68BB613B683E
:103DB000033323F003033B60BB695B6B3A689A42B1
:103DC00001D90023E4E03B680B2B01D80C233B60B6
:103DD000BB691A6BBB699B6AD31AFB61CFE0BB69F5
:103DE0009A6AFB6913447B617B691B6803F00103DA
:103DF000002B40F0BE807B695A68FB69D31A0C3BEC
:103E00003A689A4200F2B5807B695A68FB69D31A16
:103E1000A3F10C023B6818339A4239D3FA693B6824
:103E200013440C333B61BB699A6A3B691344FB60E2
:103E3000BB6923F00102FB681A607B695A68FB6862
:103E40005A60FB68FA699A607B693A695A60FB6854
:103E50005A68BB695B6B0C339A4206D0BB699A6A9D
:103E6000FB685B6813443A699A60BB691A6A3B68ED
:103E7000134403F10C02BB691A62BB695A6ABB693D
:103E80001B6A9A421AD2BB691A6ABB695A6215E068
:103E9000BB691A6A7B695B68B969896A7869411A82
:103EA0005B1A1A44BB691A62BB695A6ABB691B6A0E
:103EB0009A4203D2BB691A6ABB695A62BB6943F072
:103EC00001027B691A60BB691B6B7A699A4228D12F
:103ED00007E0BB699A6ABB691B6B5B681A44BB69E4
:103EE0001A63BB691B6B1B6803F00103002B05D031
:103EF000BB691A6BBB69DB6A9A42EAD1BB691A6B70
:103F0000BB69DB6A9A420CD0BB691B6B1B6803F070
:103F10000103002B05D040F283121F492248FFF70E
:103F2000F3FD7A693B6813440C33BA69D26A934251
:103F300005D940F2851218491C48FFF7E5FD7B6959
:103F40000C3303F00303002B05D04FF4C372124966
:103F50001748FFF7D9FD7B6903F00303002B05D059
:103F600040F287120C491348FFF7CEFD7B690C33F2
:103F70000EE0BB699A6AFB6913445B68FB61BB692D
:103F80005A6B3B68D31AFA699A427FF628AF00232E
:103F900018462037BD4680BDB49F0100249C010017
:103FA000349C0100709C0100989C0100E89C010079
:103FB000389D0100849D010080B584B000AF786019
:103FC0007B68002B00F083807B6803F00303002BE9
:103FD00005D04FF4027240494048FFF795FD7B68D9
:103FE0000C3BFB60FB681B6823F00103BB60BB68F4
:103FF000002B05D14FF4057237493948FFF784FD8E
:10400000FB681B6803F00103002B05D140F2152269
:1040100031493448FFF778FDBB68184600F020FAB4
:1040200003460C2B05D040F216222B492E48FFF7F1
:104030006BFDBB68184600F0F5F90346002B05D16F
:1040400040F2172224492948FFF75EFDBB689B6AAE
:104050007A689A4204D3BB68DB6A7A689A4205D3CD
:104060004FF406721C492248FFF74EFDBB689A6A5E
:10407000FB685B6813441B6823F001031A46BB68A6
:10408000934205D040F21A2213491A48FFF73CFD2B
:10409000BB6823F00102FB681A60BB681B6BFA68FF
:1040A0009A4202D2BB68FA681A63BB681A6ABB6894
:1040B0009B6AF968CB1A1946FB685B68CB1A1A44ED
:1040C000BB681A62F968B868FFF744FD00E000BFFA
:1040D0001037BD4680BD00BFC49F0100B49D0100E4
:1040E000549E01006C9E01007C9E0100C49E010054
:1040F000FC9E0100709F010080B483B000AF786027
:1041000039607B681B683A685A607B681A683B684C
:104110001A607B683A681A603B687A685A6000BF28
:104120000C37BD465DF8047B704780B483B000AFA8
:1041300078607B681B687A6852685A607B685B6845
:104140007A6812681A607B687A685A607B685A6875
:104150007B681A6000BF0C37BD465DF8047B704772
:1041600080B485B000AF0346FB710023FB600FE015
:104170000C4AFB681B0113441B78FA799A4204D15C
:10418000FB681B01074A134406E0FB680133FB6030
:10419000FB68082BECDD002318461437BD465DF89C
:1041A000047B70477400002090B589B000AFF860C0
:1041B0000B467A60FB720023FB61FB7A1846FFF71F
:1041C000CFFFB861BB69002B05D14FF4AB72254915
:1041D0002548FFF799FC00F009FCBB695B68FB61AF
:1041E00012E0FB690C3B7B617B69002B09D07A698B
:1041F000FB689A4205D14FF4B3721A491B48FFF786
:1042000083FCFB691B68FB61BB690433FA699A4252
:10421000E7D100F001FCFB7A63F07F03DAB2FB68C0
:104220001A72FB68082279681846FFF70EFA104BDD
:104230001B68002B03D00E4B1B68F868984701F0F1
:10424000F1FC0446BB691A1DFB680C331946104685
:10425000FFF752FF204601F0E9FC00BF2437BD46BE
:1042600090BD00BF68A00100D49F0100EC9F010039
:10427000800B002090B583B000AF78607B68002B86
:1042800005D140F293120F490F48FFF73DFC0F4B49
:104290001B68002B03D00D4B1B68786898477B6820
:1042A00000221A7201F0BEFC04467B680C331846EB
:1042B000FFF73BFF204601F0B9FC00BF0C37BD46BD
:1042C00090BD00BF78A00100FC9F0100840B00207E
:1042D00090B587B000AF03463960FB7101F0A2FCD6
:1042E0007861FFF75FF80346002B09D029492A4877
:1042F000FFF7CCFA40F2B71226492848FFF704FC32
:10430000786901F093FCFB791846FFF729FF3861C3
:104310003B69002B05D140F2BB121E492048FFF734
:10432000F3FB3B69DB681846FFF77AFBF860FB6834
:10433000002B01D1002329E03B69DB681A460021EC
:10434000F868FFF77DF8FB68FA791A72FB680022BB
:104350005A72FB68082239681846FFF776F9114B44
:104360001B68002B03D00F4B1B68F868984701F0BF
:1043700059FC04463B691A1DFB680C33194610466C
:10438000FFF7BAFE204601F051FCFB6818461C37C7
:10439000BD4690BD8CA0010010A0010038A0010016
:1043A000D49F0100800B002090B583B000AF7860EF
:1043B0007B68002B05D140F2F51216491648FFF72D
:1043C000A3FB7B681B7A5BB2002B05DA4FF4FB7210
:1043D00010491248FFF798FB114B1B68002B03D0C4
:1043E0000F4B1B68786898477B6800221A7201F0AF
:1043F00019FC04467B680C331846FFF796FE2046EE
:1044000001F014FC7868FFF74DFB00BF0C37BD4688
:1044100090BD00BFA0A00100FC9F01003CA00100D6
:10442000840B002080B582B000AF78607B68002BE1
:1044300005D14FF4067208490848FFF765FB7B6811
:104440001B7A5BB2002B01DA012300E0002318463F
:104450000837BD4680BD00BFB4A00100FC9F01002D
:1044600080B582B000AF78607B68002B05D140F248
:104470002B2206490648FFF747FB7B681B7A03F0AF
:104480007F03DBB218460837BD4680BDD0A00100CF
:10449000FC9F010080B586B000AF78600B46FB70D2
:1044A00000233B6100237B610023FB60FB781846FF
:1044B000FFF756FEF8607B68002B02D0FB68002BEC
:1044C00001D1002335E001F0ADFBB860FEF76AFFD3
:1044D0000346002B09D019491948FFF7D7F940F2D4
:1044E000492216491748FFF70FFBB86801F09EFBF9
:1044F00000F07CFAFB685B687B6112E07B690C3B37
:104500003B613B69082279681846FFF7D0F80346FB
:10451000002B03D100F080FA3B690AE07B691B683D
:104520007B61FB6804337A699A42E7D100F074FA40
:10453000002318461837BD4680BD00BFE4A0010027
:1045400010A0010038A0010080B483B000AF7860F3
:104550007B687A685A607B685A687B681A6000BF1B
:104560000C37BD465DF8047B704780B483B000AF64
:10457000786039607B685B683A681A607B685A6863
:104580003B685A607B683A685A603B687A681A6090
:1045900000BF0C37BD465DF8047B704780B483B024
:1045A00000AF78607B681B687A6852685A607B68E5
:1045B0005B687A6812681A607B687A685A607B6800
:1045C0005A687B681A6000BF0C37BD465DF8047BF3
:1045D000704780B483B000AF78607B681B687A68EE
:1045E0009A420CBF01230023DBB218460C37BD46AC
:1045F0005DF8047B7047FFFF80B584B000AF786042
:104600007B68002B04D15F221C491D48FFF77CFA10
:104610007B689B6A1B78232B11D17B68DB691A4668
:104620007B689B6A9A420AD97B68DB691A467B6879
:104630009B6A19467B68DB6A0B449A420CD97B68FB
:1046400019461048FFF722F901F0ECFA0346FB6027
:10465000FB68002BFCD10DE07B68DB691A467B68A8
:104660009B6A20339A4205D87B6819460648FFF7B3
:104670000DF9FFE700BF1037BD4680BD5CA101000A
:10468000F4A0010008A1010024A10100B0B582B08E
:1046900000AF7860094B1B68184601F0C9FD03465E
:1046A000013B1C46064B53F83430A3F114057B68DC
:1046B0001C602B4618460837BD46B0BD940C002040
:1046C000940B002098B500AF094B00221A800024FB
:1046D00006E0E300074A13441846FFF735FF0134AC
:1046E0001F2CF6DD044B00221A6000BF98BD00BFEE
:1046F000980C0020940B0020940C002090B583B0FF
:1047000000AF3B1D1846FFF7C1FF0446084B1C6075
:10471000204600F033F9032384F8343004F11C03FD
:10472000184601F0CCFA00BF0C37BD4690BD00BF63
:104730009C0C002080B586B000AF01F073FAF860E1
:104740005C4BB3F90030002B40F0AC805A4B1B6837
:10475000002B00F0A78000233B613B1D1846FFF7AC
:1047600095FF7861554B1B6893F8343003F00703CD
:10477000032B2CD1514B1B6893F835301A467B68BC
:104780009A4203D24D4B1B687B6115E04B4B1B6873
:1047900093F835301A467B689A420BD1474B1B6819
:1047A00093F8343003F00803002B03D1434B1B680C
:1047B0007B6101E001233B61404B1B6893F834208F
:1047C0003E4B1B6822F00802D2B283F834203B4BE8
:1047D0001B687A699A4250D07B68DAB2384B1A70FB
:1047E000364B1B68BB60354A7B691360354B1B68D1
:1047F000002B04D0334B1B687969B86898473B6934
:10480000002B02D0B86800F063F8786900F0B6F8C1
:104810007B6993F834305BB223F007035BB243F05B
:1048200003035BB2DAB27B6983F834207869FFF75F
:10483000E3FE254B1B78DBB2002B14D1234B1B6806
:10484000002B03D0214B1B68B8689847BB681C330A
:104850001A467B691C331946104601F0EAF9F868DC
:1048600001F0E4F922E0BB681C331A467B691C3373
:104870001946104601F0DDF914E0104B1B6818468C
:1048800000F07CF80D4B1B6893F834305BB223F0DA
:1048900007035BB243F003035AB2084B1B68D2B262
:1048A00083F83420F86801F0C1F900BF1837BD461D
:1048B00080BD00BF980C0020940C00209C0C0020B0
:1048C000A00C0020A40C0020C00A0020A80C00208E
:1048D00090B583B000AF78607B68002B05D140F2C3
:1048E000D22221492148FFF70FF901F09BF9044634
:1048F0001F4B1B687A689A420ED17B6893F834305C
:104900005BB223F007035BB243F003035BB2DAB29E
:104910007B6883F8342020E07B6893F834305BB206
:1049200023F007035BB243F001035BB2DAB27B68AA
:1049300083F834207B6893F83530DB000D4A1A4445
:104940007B68143319461046FFF70FFE7B689A6B9D
:10495000094B1B681343084A1360204601F066F9AF
:1049600000BF0C37BD4690BD78A10100F4A0010046
:104970009C0C0020940B0020940C002090B583B078
:1049800000AF78607B68002B05D140F233321349C9
:104990001348FFF7B9F801F045F904467B68143372
:1049A0001846FFF7FBFD7B6893F83530DB000D4AB6
:1049B00013441846FFF70DFE0346002B07D07B6813
:1049C0009B6BDA43084B1B681340074A1360204671
:1049D00001F02CF900BF0C37BD4690BD94A1010039
:1049E000F4A00100940B0020940C002098B500AFB7
:1049F00001F018F90446074BB3F900309BB20133BC
:104A00009BB21AB2034B1A80204601F00FF900BF87
:104A100098BD00BF980C002098B500AF01F002F9D6
:104A20000446104BB3F900309BB2013B9BB21AB263
:104A30000C4B1A800B4BB3F90030002B0CDC094BEC
:104A400000221A80204601F0F1F8074B1B68002B6A
:104A500005D0FFF76FFE02E0204601F0E7F800BF47
:104A600098BD00BF980C00209C0C002080B400AFC3
:104A7000044BB3F900309BB21846BD465DF8047B89
:104A8000704700BF980C002080B483B000AF7860FE
:104A90007B687A685A607B685A687B681A6000BFD6
:104AA0000C37BD465DF8047B704780B483B000AF1F
:104AB00078607B681B687A6852685A607B685B68BC
:104AC0007A6812681A607B687A685A607B685A68EC
:104AD0007B681A6000BF0C37BD465DF8047B7047E9
:104AE00090B583B000AF00F019F9786001F09AF842
:104AF00004467868FFF742FF7B684C33184600F0A5
:104B0000E3FC7B68042283F834207868FDF766FEB6
:104B1000204601F08BF8FFF70DFE00BF0C37BD46B5
:104B200090BDFFFF90B585B000AF78607B68FB60FB
:104B3000FB68002B04D1872219491A48FEF7E4FFCD
:104B4000FB6893F8343003F00703022B04D088226B
:104B500013491548FEF7D8FFF868FFF781FC0346B4
:104B6000012B04D089220E491048FEF7CDFF01F039
:104B700059F80446FB686FF001021A63FB681433AE
:104B80001846FFF792FFF868FFF7A2FE204601F0F3
:104B90004DF8FFF7CFFD00BF1437BD4690BD00BFF5
:104BA00050A30100B0A10100C4A1010000A20100B6
:104BB00080B586B002AFF860B9607A603B60FB6890
:104BC00014331846FFF760FFFB687A681A62FB68C7
:104BD0003A685A62FB68BA699A62FB68FA69DA62F3
:104BE000FB68986AFB68DB6A1A462321FEF728FCFB
:104BF000FB68186AFB68596AFB689A6AFB68DB6A9B
:104C0000043B1A44244B01F0ABF80246FB68DA611E
:104C100097F820301F2B04D9BE2220492048FEF7E8
:104C200073FFFB6897F8202083F83520FB6800228B
:104C30009A63FB680022DA63FB68002283F8402055
:104C4000FB687A6A5A64FB687A6A9A64FB68002295
:104C50001A63FB68002283F83420FB6800229A67FD
:104C6000FB680022DA67FB6803F14C00F968002357
:104C7000019300230093FB680A4A00F0E7FB0A4B0C
:104C80001B68002B03D0084B1B68F868984700236B
:104C900018461037BD4680BDE14A000060A3010000
:104CA00044A20100254B0000B40C002080B588B060
:104CB00004AFF860B9607A603B60FB68002B05D1F7
:104CC00040F2311212491348FEF71EFFBB69002B58
:104CD00005D14FF499720E490F48FEF715FFBA68D7
:104CE0000121F868FFF760FA7B6A039397F8203098
:104CF0000293FB690193BB6900933B687A68B968CA
:104D0000F868FFF755FF034618461037BD4680BDCB
:104D100070A30100B0A1010068A2010080B400AF3F
:104D2000034B1B681846BD465DF8047B704700BF07
:104D30009C0C002080B582B000AF78607B68002BAF
:104D400005D14FF4B2721C491C48FEF7DDFE7B68AA
:104D500093F8343003F00703002B05D040F26512BE
:104D600015491748FEF7D0FE7868FFF779FB034630
:104D7000012B05D04FF4B3720F491248FEF7C4FE61
:104D80007B6893F835301A46012393401A467B68B6
:104D90009A637B68022283F83420786800F03EFA38
:104DA000FFF7BCFF0346002B01D0FFF7C3FC002335
:104DB00018460837BD4680BD80A30100B0A10100A0
:104DC00080A2010000A2010080B584B000AF78602D
:104DD0007B68002B05D140F28F1223492348FEF750
:104DE00093FE7868FFF73CFB0346012B05D04FF498
:104DF000C8721D491E48FEF787FE7868FFF712FB50
:104E00000346002B05D140F2911217491948FEF7CD
:104E10007BFE7B6893F8343003F00703042B01D149
:104E200000231CE07B6893F8343003F00703002B69
:104E300002D07868FFF7A2FD00F0F4FEF8607B680E
:104E40004C33184600F040FB7B68042283F8342082
:104E50007868FDF7C3FCF86800F0E8FE0023184608
:104E60001037BD4680BD00BF94A30100B0A1010072
:104E700000A20100B8A2010080B58AB004AFF860BA
:104E8000B9607A603B60F9680120FFF721FA786128
:104E90007B69002B01D100231BE03868FEF7C0FDC1
:104EA00038613B69002B04D17869FFF77DFA002354
:104EB0000FE07B6A039397F8203002933B680193DD
:104EC0003B6900937B68BA68F9687869FFF770FE00
:104ED0007B6918461837BD4680BDFFFF80B584B09A
:104EE00000AF78607B68002B05D14FF4FB7223493B
:104EF0002348FEF709FE7868FFF7B2FA0346012B54
:104F000005D040F2F7121D491E48FEF7FDFD7868F6
:104F1000FFF788FA0346002B05D04FF4FC721749BF
:104F20001948FEF7F1FD7B6893F8343003F007036E
:104F3000042B01D100231CE07B6893F8343003F08C
:104F40000703002B02D07868FFF718FD00F06AFE17
:104F5000F8607B684C33184600F0B6FA7B68042290
:104F600083F834207868FDF739FCF86800F05EFEBD
:104F7000002318461037BD4680BD00BFA8A301001E
:104F8000B0A1010000A20100E8A2010090B585B027
:104F900000AF7860FFF7C2FEF860FB68002B05D118
:104FA00040F23F221B491C48FEF7AEFDF868FFF7B0
:104FB00057FA0346012B05D04FF4107215491748D4
:104FC000FEF7A2FD00F02EFE0446FB6800221A63E5
:104FD000F86800F0BFF8FB684C333A1D0021184612
:104FE00000F016FCFB684C33184600F0B5FA20467A
:104FF00000F01CFEFFF79EFBFB681B6B13F1020F1A
:1050000002D1FB6800221A63FB681B6B1846143739
:10501000BD4690BDBCA30100B0A1010000A20100EB
:1050200080B582B000AF78607868FFF7AFFF0346C5
:1050300018460837BD4680BD80B584B000AF7860A3
:105040007868FDF7C7F8F860F868FFF79FFF034638
:1050500018461037BD4680BD90B587B000AFF860E8
:10506000B9607A60FB68002B05D140F2D522364941
:105070003648FEF749FDF868FFF7F2F90346012BC1
:1050800005D040F2D62230493148FEF73DFDBB68DD
:10509000022B09D0BB68022B4FDCBB68002B34D03D
:1050A000BB68012B36D048E000F0BCFD0446FB682D
:1050B00093F8343003F00703012B14D1F868FFF79D
:1050C0005DFC7B681A78FB6883F83520FB6893F8F1
:1050D00035301A46012393401A46FB689A63F868F4
:1050E000FFF7F6FB0DE07B681A78FB6883F8352044
:1050F000FB6893F835301A46012393401A46FB6843
:105100009A63204600F092FD18E0F868FFF712FE5F
:10511000034614E0F868FFF785F90346012B04D134
:10512000F868FFF751FE786103E0F868FFF7D6FEF4
:105130007861FFF7FFFA7B6901E000BF00231846A2
:105140001C37BD4690BD00BFCCA30100B0A101003B
:1051500000A2010090B583B000AF78607B68002B9F
:1051600005D140F24B3228492848FEF7CDFC78683B
:10517000FFF776F90346012B05D04FF4537222490D
:105180002348FEF7C1FCFFF7C9FD02467B68934246
:1051900005D040F24D321C491E48FEF7B5FC7B6835
:1051A00093F8343003F00704012C04D0032C02D010
:1051B0004FF0FF3324E000F035FD04467868FFF738
:1051C000DDFB7B6893F834305BB223F007035BB2FE
:1051D00043F002035BB2DAB27B6883F834207B6869
:1051E0004C33184600F0CAFA204600F01FFD0A4B67
:1051F0001B68002B03D0084B1B6878689847002376
:1052000018460C37BD4690BDE0A30100B0A10100D7
:1052100000A2010034A30100AC0C002090B583B0C3
:1052200000AF78607B68002B05D140F279321D49D0
:105230001D48FEF769FC7868FFF712F90346012B59
:1052400005D040F27A3217491848FEF75DFC7B68BA
:1052500093F8343003F00703022B02D04FF0FF33F2
:105260001BE000F0DFFC04467B6814331846FFF7B0
:105270001CFC7B684C33184600F080FA7868FFF716
:1052800027FB204600F0D2FC094B1B68002B03D003
:10529000074B1B6878689847002318460C37BD46B3
:1052A00090BD00BFF4A30100B0A1010000A2010065
:1052B000B00C002080B483B000AF78607B687A685F
:1052C0005A607B685A687B681A6000BF0C37BD461D
:1052D0005DF8047B704780B483B000AF78603960BC
:1052E0007B681B683A685A607B681A683B681A607A
:1052F0007B683A681A603B687A685A6000BF0C376E
:10530000BD465DF8047B704780B483B000AF786021
:105310007B681B687A6852685A607B685B687A6849
:1053200012681A607B687A685A607B685A687B6882
:105330001A6000BF0C37BD465DF8047B704780B42F
:1053400083B000AF78607B681B687A689A420CBFB4
:1053500001230023DBB218460C37BD465DF8047B01
:10536000704780B586B000AFF860B9607A603B6086
:10537000FB6897F820205A72FB685B7A23F00103E0
:10538000DAB2FB685A72FB68BA68DA61FB687A685D
:105390001A62FB6800229A62FB683A685A6200232C
:1053A0007B610BE07B690233DB00FA681344043352
:1053B0001846FFF77FFF7B6901337B617B69002B18
:1053C000F0DD00BF00BF1837BD4680BD90B585B089
:1053D00000AF7860396000F025FC04467868FFF77C
:1053E000AEFF0346002B0CD17B681B68143BFB60AF
:1053F000FB689A6A3B681A60204600F017FC00239D
:1054000004E0204600F012FC4FF0FF33184614373A
:10541000BD4690BD80B584B000AF78600023FB60CE
:105420000BE0FB680233DB007A6813440433184650
:10543000FFF76AFFFB680133FB60FB68002BF0DDC0
:1054400000BF00BF1037BD4680BDFFFF80B586B0EE
:1054500002AFF860B9607A603B60FB68002B05D151
:1054600040F20F1214491548FEF74EFB7B68002BE3
:1054700005D14FF4887210491148FEF745FBBB690E
:105480006FF00042934205D340F211120A490D48D1
:10549000FEF73AFBFB68BA680A211846FEF784FE5D
:1054A0003B7F0093BB693A687968F868FFF759FF5A
:1054B00000BF1037BD4680BD18A5010008A401003B
:1054C0001CA4010030A4010090B583B000AF786047
:1054D0007B68002B05D14FF493721B491B48FEF7E4
:1054E00013FB7B681846FEF7BBFF03460A2B05D06B
:1054F00040F2271214491648FEF706FB7B6818464F
:10550000FEF790FF0346002B05D14FF494720E492D
:105510001048FEF7F9FA00F085FB04467868FFF7BB
:1055200079FF7B685B7A23F00103DAB27B685A72F9
:10553000204600F07BFB7B681846FEF79BFE0023AD
:1055400018460C37BD4690BD28A5010008A40100EF
:1055500048A4010084A40100B0B588B000AF786011
:105560007B68002B05D14FF4CC727B497B48FEF75A
:10557000CBFA7B681846FEF773FF03460A2B05D06B
:1055800040F2991274497648FEF7BEFA002400F002
:1055900049FB05467868FFF73DFF7B685B7A23F09F
:1055A0000103DAB27B685A726E4B1B68002B04D081
:1055B0006C4B1B687A6810469847FCF7C1FD0246A1
:1055C0007B685B6A1A447B689A627B685B7A03F04B
:1055D0000403002B02D0644BBB6101E0634BBB6151
:1055E000BB69BB600023FB6155E0FB699B0007F1D1
:1055F0002002134453F8183C1B683B61FB69DB0035
:1056000014335B423A691344FB60FB689A6A7B6817
:105610009B6A9A4209D0FB689A6A7B689B6AD31A94
:105620006FF0004293421FD300E000BFFB699B0074
:1056300007F12002134453F8183C1A68FB699B00D9
:1056400007F120010B4443F8182CFB699B0007F17C
:105650002002134453F8182CFB69DB00B9690B4492
:105660005B689A42C1D100E000BFFB69002B0FD0FC
:10567000FB699B0007F12002134453F8182CFB69C7
:10568000013308329B0007F120010B4443F8182C2A
:10569000FB690133FB61FB69002BD6D0344B1B68DF
:1056A0000133334A1360324B1B687B61BA687B68F5
:1056B000143319461046FFF70EFE0223FB611EE06D
:1056C0007B6903F00303002B1DD1FB69C3F10103C8
:1056D0009B0007F12002134453F8180CFB69C3F137
:1056E00001030233DB007A68134404331946FFF7E1
:1056F000F2FD7B699B087B61FB690133FB61FB6900
:10570000012BDDD900E000BF7B685B7A43F0010329
:10571000DAB27B685A727B685B7A03F00403002B71
:105720000ED0144B1B78012B0AD1134B93F8343055
:1057300003F00703022B03D10F48FFF76FFD01248D
:10574000284600F073FA002C01D0FEF7F3FF002387
:1057500018462037BD46B0BD38A5010008A4010099
:1057600048A401008C0B0020C00C0020B80C0020C5
:10577000500F002004010020C80C002090B583B019
:1057800000AF78607B68002B05D14FF404721C4990
:105790001C48FEF7B9F97B681846FEF761FE034620
:1057A0000A2B05D040F2112215491748FEF7ACF933
:1057B0007B685B7A03F00103002B02D14FF0FF33CB
:1057C00019E0124B1B68002B04D0104B1B687A6841
:1057D0001046984700F026FA04467868FFF71AFE4C
:1057E0007B685B7A23F00103DAB27B685A72204649
:1057F00000F01CFA002318460C37BD4690BD00BFD0
:1058000048A5010008A4010048A40100900B002055
:1058100090B585B000AFF860B9607A60FB68002B86
:1058200005D14FF40D7234493448FEF76DF9FB6829
:105830001846FEF715FE03460A2B05D040F2352226
:105840002D492F48FEF760F900F0ECF90446BB68DB
:10585000052B47D801A252F823F000BF7F58000063
:1058600075580000A1580000B1580000C158000050
:10587000DB580000FB685A6A7B681A6033E07B687B
:105880001B686FF00042934205D340F23F221A4951
:105890001C48FEF739F97B681A68FB685A6222E0F7
:1058A000FB685B7A23F00203DAB2FB685A721AE0F3
:1058B000FB685B7A43F00203DAB2FB685A7212E0CB
:1058C000FB685B7A03F00103002B03D07B680122A5
:1058D0001A6002E07B6800221A60FB689A6A7B68A3
:1058E0001A6000E000BF204600F0A0F9002318462F
:1058F0001437BD4690BD00BF58A5010008A40100A3
:1059000048A40100E8A4010090B585B000AF3B4673
:105910001846FFF7CFFCFCF713FCF86000F082F9A3
:1059200004465FE0374B1B68143BBB60BB689B6A57
:10593000FA68D31A6FF0004293425AD2324B1B6876
:10594000002B03D0304B1B68B8689847B868FFF746
:1059500061FDBB685B7A03F00203002B06D1BB68D4
:105960005B7A23F00103DAB2BB685A72BB6803F1B9
:1059700014023B4611461846FFF7ADFCBB68DB69D5
:10598000BA68126A10469847FCF7DAFBF8601F4BBA
:105990001B68002B03D01D4B1B68B86898473B461B
:1059A0001846FFF7CCFC0346002B00D01AE0BB687A
:1059B00014331846FFF7A8FCBB685B7A03F00203B8
:1059C000002B0FD0BB685B7A03F00103002B09D0DA
:1059D000BB685B7A23F00103DAB2BB685A72B8681D
:1059E000FFF7BAFD0748FFF7AAFC0346002B99D042
:1059F00000E000BF204600F019F900BF1437BD4693
:105A000090BD00BFB80C0020480F00204C0F0020B4
:105A100090B585B000AF3B461846FFF74BFC00F051
:105A200001F904466BE03D4B1B68143BFB60FCF73F
:105A300087FBB860FB689B6ABA68D31A6FF00042B4
:105A4000934263D2364B1B68002B03D0344B1B6848
:105A5000F8689847F868FFF7DDFCFB685B7A03F0AD
:105A60000203002B06D1FB685B7A23F00103DAB254
:105A7000FB685A72FB6803F114023B461146184654
:105A8000FFF729FC274B00221A70204600F0CEF8C1
:105A9000FB68DB69FA68126A10469847224B1B685C
:105AA000002B03D0204B1B68F868984700F0BAF829
:105AB00004461C4B01221A703B461846FFF73FFC78
:105AC0000346002B00D01AE0FB6814331846FFF79A
:105AD0001BFCFB685B7A03F00203002B0FD0FB6812
