:10000000B81B0020ADFB00002DF90000115B0000C3
:10001000BBFB0000BBFB0000BBFB0000BBFB000008
:10002000000000000000000000000000BBFB00001A
:10003000BBFB0000000000005B5A0000ED0C01005B
:1000400043D6000073D50000FFD6000049D700005A
:10005000D5EB000043D6000073D50000FFD60000AA
:1000600049D70000E9E700001DE8000051E8000062
:1000700085E80000D5EB0000D5EB00000000000093
:100080000000000000000000000000000000000070
:100090000000000000000000000000000000000060
:1000A0000000000000000000000000000000000050
:1000B0000000000000000000000000000000000040
:1000C0000000000000000000000000000000000030
:1000D0000000000000000000000000000000000020
:1000E0000000000000000000000000000000000010
:1000F0000000000000000000000000000000000000
:1001000000000000000000000000000000000000EF
:1001100000000000000000000000000000000000DF
:1001200000000000000000000000000000000000CF
:1001300000000000000000000000000000000000BF
:1001400000000000000000000000000000000000AF
:10015000000000000000000000000000000000009F
:10016000000000000000000000000000000000008F
:10017000000000000000000000000000000000007F
:10018000000000000000000000000000000000006F
:10019000000000000000000000000000000000005F
:1001A000000000000000000000000000000000004F
:1001B000000000000000000000000000000000003F
:1001C000FFFFFFFFFFFFFFFFFFFFFFFFFFFFFFFF3F
:1001D000FFFFFFFFFFFFFFFFFFFFFFFFFFFFFFFF2F
:1001E000FFFFFFFFFFFFFFFFFFFFFFFFFFFFFFFF1F
:1001F000FFFFFFFFFFFFFFFFFFFFFFFFFFFFFFFF0F
:1002000010B5054C237833B9044B13B1044800E012
:1002100000BF0123237010BDB007002000000000C4
:10022000ECAD010008B5034B1BB10349034800E0E6
:1002300000BF08BD00000000B4070020ECAD0100C5
:10024000B0B584B000AF786039600023FB607B6894
:10025000062B02D0284803F01DFA3B6804331B68C4
:10026000184611F073FF03461C463B6808331B68B1
:10027000184611F06BFF03461D463B680C331B68A4
:10028000184611F063FF03461A46294620460AF035
:10029000DFFEF860FB68002B04D0184803F0FAF981
:1002A000FB6825E03B6810331B68184611F04EFFD1
:1002B00003461C463B6814331B68184611F046FF82
:1002C00003461D463B6818331B68184611F03EFF75
:1002D00003461A46294620460AF0FEFEF860FB68EF
:1002E000002B04D0064803F0D5F9FB6800E0FB685A
:1002F00018461037BD46B0BD485B0100745B010075
:100300008C5B010080B582B000AF00237B602D4B79
:1003100001221A702C480BF009FA03461A462B4B9F
:100320001A602B480BF002FA03461A46294B1A6052
:1003300029480BF0FBF903461A46284B1A60284857
:100340000BF0F4F903461A46264B1A601F4B1B6844
:10035000002118460BF08CF91E4B1B680021184633
:100360000BF086F91D4B1B68002118460BF080F935
:100370001C4B1B68002118460BF07AF9134B1B68C5
:10038000002118460BF094F9124B1B680021184607
:100390000BF08EF9114B1B68002118460BF088F901
:1003A000104B1B68002118460BF082F90E4803F031
:1003B00071F900F0CBFF78607B6818460837BD46BE
:1003C00080BD00BF08000020C05B0100CC070020FA
:1003D000C85B0100D0070020D05B0100D4070020DB
:1003E000D85B0100D8070020E05B010080B584B035
:1003F00000AF786039600023FB600A4B00221A705E
:10040000094B1B68002118460BF088FA074B1B6844
:10041000002118460BF082FAFB6818461037BD46DB
:1004200080BD00BF080000204C08002050080020BC
:1004300080B582B000AF00237B600A4B01221A70A6
:10044000094B1B68002118460BF095FA074B1B68F7
:10045000002118460BF08FFA7B6818460837BD4616
:1004600080BD00BF080000204C080020500800207C
:1004700080B582B000AF00237B601C4B1B6800215D
:1004800018460BF015F91A4B1B68012118460BF0A2
:100490000FF9184B1B68002118460BF009F9164B91
:1004A0001B68012118460BF003F9144B1B68144A12
:1004B00012681146184601F085F8124B1B68124A63
:1004C00012681146184601F07DF80C4B1B6800219C
:1004D00018460BF023FA0B4B1B68002118460BF053
:1004E0001DFA7B6818460837BD4680BDCC07002042
:1004F000D0070020D4070020D80700204C08002097
:1005000000000020500800200400002080B582B0C8
:1005100000AF00237B601C4B1B68012118460BF0C9
:10052000C7F81A4B1B68002118460BF0C1F8184B8E
:100530001B68012118460BF0BBF8164B1B68002105
:1005400018460BF0B5F8144B1B68144A1268114694
:10055000184601F037F8124B1B68124A1268114610
:10056000184601F02FF80C4B1B68002118460BF0C1
:10057000D5F90B4B1B68002118460BF0CFF97B68AF
:1005800018460837BD4680BDCC070020D0070020A4
:10059000D4070020D80700204C08002000000020CD
:1005A000500800200400002080B586B000AF002372
:1005B0007B60354B1B68002118460BF079F8334BF4
:1005C0001B68012118460BF073F8314B1B680121A1
:1005D00018460BF06DF82F4B1B68002118460BF0E6
:1005E00067F82D4B1B68002118460BF097F92B4B31
:1005F0001B68002118460BF091F9294B7B61284BB1
:100600003B61254B1B687A691146184600F0DAFFFA
:10061000224B1B683A691146184600F0D3FF0023AD
:10062000FB601FE00023BB6016E01B4B1B687A6970
:100630001146184600F0C6FF184B1B683A69114670
:10064000184600F0BFFF7B69783B7B613B69783BD4
:100650003B61BB680133BB60BB68312BE5DDFB68E8
:100660000133FB60FB68312BDCDD0B4B1B6818464C
:1006700000F0CAFF094B1B68184600F0C5FF7B68F5
:1006800018461837BD4680BDCC070020D007002093
:10069000D4070020D80700204C0800205008002074
:1006A000E093040080B586B000AF00237B60354B3B
:1006B0001B68012118460AF0FBFF334B1B68002121
:1006C00018460AF0F5FF314B1B68002118460AF066
:1006D000EFFF2F4B1B68012118460AF0E9FF2D4B55
:1006E0001B68002118460BF019F92B4B1B680021E1
:1006F00018460BF013F9294B7B61284B3B61254BC6
:100700001B687A691146184600F05CFF224B1B6893
:100710003A691146184600F055FF0023FB601FE0C0
:100720000023BB6016E01B4B1B687A691146184614
:1007300000F048FF184B1B683A691146184600F054
:1007400041FF7B69783B7B613B69783B3B61BB68E0
:100750000133BB60BB68312BE5DDFB680133FB6017
:10076000FB68312BDCDD0B4B1B68184600F04CFF9F
:10077000094B1B68184600F047FF7B68184618377E
:10078000BD4680BDCC070020D0070020D407002044
:10079000D80700204C08002050080020E0930400F7
:1007A00080B586B000AF0023BB602A4B1B682A4986
:1007B000184600F007FF294B1B682949184600F02E
:1007C00001FF284802F066FF00237B611AE0002346
:1007D0003B6110E00023FB6007E000237B607B6847
:1007E00001337B60FB680133FB60FB68042BF4DDA5
:1007F0003B6901333B613B69B3F57A7FEADB7B6997
:1008000001337B617B69B3F57A7FE0DB164802F048
:1008100041FF104B1B68154A92F82C20114642F2FA
:10082000107201FB02F21146184600F0CBFE0B4B92
:100830001B680E4A92F82D20114642F2107201FBFD
:1008400002F21146184600F0BDFEBB681846183784
:10085000BD4680BD4C0800203057050050080020E0
:1008600040420F00FC5B0100085C01000800002012
:1008700080B586B000AF0023BB602A4B1B682A49B5
:10088000184600F09FFE294B1B682949184600F0C6
:1008900099FE284802F0FEFE00237B611AE0002347
:1008A0003B6110E00023FB6007E000237B607B6876
:1008B00001337B60FB680133FB60FB68042BF4DDD4
:1008C0003B6901333B613B69B3F57A7FEADB7B69C6
:1008D00001337B617B69B3F57A7FE0DB164802F078
:1008E000D9FE104B1B68154A92F82C20114642F293
:1008F000107201FB02F21146184600F063FE0B4B2A
:100900001B680E4A92F82D20114642F2107201FB2C
:1009100002F21146184600F055FEBB68184618371B
:10092000BD4680BD4C08002040420F00500800200A
:1009300030570500FC5B0100185C01000800002036
:1009400080B58EB000AF786039600023FB61002372
:10095000BB6100237B613B6804331B68184611F0C0
:10096000F5FB0346BB613B6808331B68184611F072
:10097000EDFB03467B6103F03DFF494B1B68002103
:1009800018460AF095FE474B1B68012118460AF0ED
:100990008FFE454B1B68012118460AF089FE434B28
:1009A0001B68002118460AF083FE414B1B68414931
:1009B000184600F007FE404B1B683E49184600F001
:1009C00001FE3B4B1B68002118460AF0A7FF3A4B7B
:1009D0001B68002118460AF0A1FF00237B631AE080
:1009E00000233B6310E00023FB6207E00023FB6071
:1009F000FB680133FB60FB6A0133FB62FB6A052B7A
:100A0000F4DD3B6B01333B633B6BBA699A42EAD836
:100A10007B6B01337B637B6BB3F57A7FE0DB204B31
:100A20001B68012118460AF043FE1E4B1B6800217B
:100A300018460AF03DFE1C4B1B68012118460AF0BF
:100A400037FE1A4B1B68002118460AF031FE0023BE
:100A5000BB621AE000237B6210E000233B6207E0E8
:100A600000233B613B6901333B613B6A01333B62DD
:100A70003B6A032BF4DD7B6A01337B627B6A7A6914
:100A80009A42EAD8BB6A0133BB62BB6AB3F57A7F8C
:100A9000E0DB03F0C5FEFB6918463837BD4680BD74
:100AA000CC070020D0070020D4070020D807002062
:100AB0004C08002000350C005008002080B58EB096
:100AC00002AF78607C4A4FF482717C480CF064FF7E
:100AD00007F1140319467A480EF038FBBB69FB6234
:100AE000FB69BB6207F10C03194675480EF04DFB1C
:100AF000714B1B78012B32D1724B1B68002B09D133
:100B0000704B01221A60FB686F4A13606F4B002222
:100B10001A6059E06B4B00221A60FB686C4A136044
:100B20006B4B1A68684B1B689A4207D3684B1A686C
:100B3000654B1B68D31A674A136045E0624B1B681C
:100B4000BA6AD21A624B1B681344624A1360614B43
:100B50001B68FA6AB2FBF3F35F4A136034E0594B47
:100B60001B68012B30D1FB685C4A13605B4B1A6831
:100B7000554B1B689A4207D3584B1A68524B1B6857
:100B8000D31A524A13601FE04F4B1B68BA6AD21A3D
:100B9000524B1B6813444D4A13604C4B1B68642234
:100BA00002FB03F307EE903AF8EE676A494B1B68C5
:100BB00007EE903AB8EE677AC6EE877AFCEEE77AEF
:100BC00017EE902A464B1A60464B1A68414B1B6839
:100BD0001344444A1360444B1A683C4B1B6813444B
:100BE000414A1360414B1B68002B26D13D4B1B68CB
:100BF00000933F4B01223F49062005F025FE3A4B6A
:100C00001B6800933C4B01223A49062005F01CFE6C
:100C1000002006F05DFA02460B46C7E9082307F1FB
:100C20002003184606F044FA03460093334B012292
:100C30003049062005F008FE3AE02C4B1B680D2BCE
:100C400031DD2A4B00221A60264B1B682C4AA2FB7E
:100C500003239B0800932B4B01222649062005F015
:100C6000F3FD214B1B68264AA2FB03239B0800933C
:100C7000254B01221F49062005F0E6FD002006F065
:100C800027FA02460B46C7E9082307F12003184656
:100C900006F00EFA034600931C4B0122154906206C
:100CA00005F0D2FD04E0114B1B6801330F4A1360BD
:100CB00000BF3037BD4680BDDC0700209811002002
:100CC000E0110020E0070020E8070020F8070020DE
:100CD000EC070020E4070020F0070020FC070020BC
:100CE000F407002020080020240800201C08002011
:100CF000045D01002C5D0100345D0100685D0100B0
:100D00004FECC44E8C5D0100B85D0100EC5D01004C
:100D100080B58EB002AF78607C4A40F20B117C48FF
:100D20000CF03AFE07F1140319467A480EF00EFA59
:100D3000BB69FB62FB69BB6207F10C03194675488E
:100D40000EF023FA714B1B78012B32D1724B1B68CA
:100D5000002B09D1704B01221A60FB686F4A1360A7
:100D60006F4B00221A6059E06B4B00221A60FB683F
:100D70006C4A13606B4B1A68684B1B689A4207D326
:100D8000684B1A68654B1B68D31A674A136045E0C5
:100D9000644B1A68BB6A1A44644B1B68D31A624AD4
:100DA0001360614B1B68FA6AB2FBF3F3604A13608D
:100DB00034E0594B1B68012B30D1FB685D4A13604E
:100DC0005C4B1A68554B1B689A4207D3594B1A68FB
:100DD000524B1B68D31A524A13601FE04F4B1B68DB
:100DE000BA6AD21A544B1B6813444D4A13604C4BD9
:100DF0001B68642202FB03F307EE903AF8EE676A81
:100E00004E4B1B6807EE903AB8EE677AC6EE877ACB
:100E1000FCEEE77A17EE902A494B1A60494B1A68A4
:100E2000414B1B681344474A1360474B1A683C4BBD
:100E30001B681344444A1360444B1B68002B26D1A3
:100E4000404B1B680093424B01224249062005F0AB
:100E5000FBFC3D4B1B6800933F4B01223D490620A4
:100E600005F0F2FC002006F033F902460B46C7E914
:100E7000082307F12003184606F01AF903460093E9
:100E8000364B01223349062005F0DEFC3AE0344BB4
:100E90001B680D2B31DD2D4B00221A60294B1B687E
:100EA000304AA2FB03239B0800932F4B01222949C0
:100EB000062005F0C9FC244B1B682A4AA2FB032329
:100EC0009B080093294B01222249062005F0BCFC17
:100ED000002006F0FDF802460B46C7E9082307F19B
:100EE0002003184606F0E4F803460093204B012245
:100EF0001849062005F0A8FC04E0144B1B680133D8
:100F0000124A136000BF3037BD4680BDDD070020A8
:100F100098110020C0110020E007002004080020E4
:100F2000140800200808002000080020E80700201E
:100F30000C08002018080020FC070020E40700200F
:100F4000100800202C08002030080020280800206D
:100F5000105E01002C5D0100385E01006C5E010036
:100F60001C0800204FECC44E905E0100BC5E0100E6
:100F7000F05E010080B582B000AF474802F08AFB06
:100F800000237B60454946480CF0B2FC78607B68E2
:100F9000002B05D0434B444A242144480EF0A4FCC6
:100FA000434944480DF052FF78607B68002B05D020
:100FB0003C4B3D4A29213D480EF096FC00237B60C6
:100FC0003D493E480DF042FF78607B68002B05D01C
:100FD000344B354A2E2135480EF086FC38493948C5
:100FE0000DF050FD78607B68002B05D02D4B2E4A0C
:100FF00033212E480EF078FC00237B6032493348C1
:101000000DF040FD78607B68002B05D0254B264A0B
:10101000372126480EF068FC26480DF04BFF274884
:101020000DF048FF27480DF093FD78607B68002B9A
:1010300005D01C4B1C4A40211C480EF055FC0023D7
:101040007B6022480DF084FD78607B68002B05D022
:10105000144B154A442115480EF046FC0A220B2178
:1010600040F2E67009F0F4FF1422112114200AF076
:1010700033F801214FF483700AF01AFB4FF4FA7031
:1010800003F0DEFE00214FF483700AF011FB4FF4F1
:10109000FA7003F0D5FEECE7145F01002C9F01000D
:1010A00098110020285F0100CC5F01003C5F010027
:1010B000189C0100E0110020C89B0100C011002015
:1010C000849B0100B0110020709B0100A011002042
:1010D00080B582B000AF7860034802F0DBFA00BF51
:1010E0000837BD4680BD00BF505F010080B582B0AB
:1010F00000AF13480AF01AFB03467B607968114879
:1011000002F0C8FA786800230F4A00210AF05AFA60
:1011100038603B68002B02D00C4802F0BBFA7B68B9
:10112000012118460AF07CFA38603B68002B02D097
:10113000074802F0AFFA00BF0837BD4680BD00BFC8
:10114000645F01006C5F0100D1100000845F01004A
:101150009C5F010080B584B000AF78600023FB6025
:1011600035E0214B1B68214918460FF01FF91E4B33
:101170001B681F4918460FF05DF9F9681D4802F019
:1011800089FA1A4BB3F900301946184BB3F90230FB
:101190001A46164BB3F90430174802F07BFA144B89
:1011A000B3F900301946124BB3F902301A46104B0E
:1011B000B3F90430114802F06DFA114802F06AFAEE
:1011C0004FF47A7003F03CFEFB680133FB60FB6870
:1011D000312BC6DD044B1B6818460FF067FB00BFC0
:1011E0001037BD4680BD00BF4408002034080020F1
:1011F0003C080020D85F01000C6001004060010045
:101200007460010080B586B002AF78600023FB6097
:10121000002116480FF0AEF90346154A1360144B2F
:101220001B68002B05D1134802F034FA4FF0FF334E
:1012300018E0114802F02EFA4FF4FA7301931623C6
:1012400000934FF4007300220C490D4803F018FD81
:10125000F860FB68002B02D10A4802F01BFAF8681C
:1012600003F06CFC18461037BD4680BDA860010035
:1012700044080020B0600100C86001005511000062
:10128000E0600100EC6001002DE9B04386B004AFDE
:10129000786039607B68032B03DC274802F0FAF999
:1012A00044E03B6804331B68184610F04BFF07EE20
:1012B000900AF8EEE77A214BC3ED007A3B680833D9
:1012C0001B68184610F03EFF07EE900AF8EEE77A2A
:1012D0001B4BC3ED007A3B680C331B68184610F0BB
:1012E00031FF07EE900AF8EEE77A164BC3ED007A6D
:1012F000124B1B68184613F051FD80468946104B6F
:101300001B68184613F04AFD04460D460D4B1B683A
:10131000184613F043FD02460B46CDE90223CDE902
:10132000004542464B46084802F0B4F900231846EF
:101330000837BD46BDE8B083486101004C0000207D
:1013400048080020500000206861010080B582B08C
:1013500000AF454800F01BFC0346444A1360424876
:1013600000F015FC0346424A1360404B1B68002BFB
:1013700034D03E4B18683F4B1A683F4B1B68002126
:101380000AF026FB78603C4B1B685B093B4AA2FBDA
:101390000323DB0919463A4802F07CF9354B1B68F8
:1013A0005B09364AA2FB0323DB091946354802F0E4
:1013B00071F9314B1A682F4B1B68B2FBF3F36422AF
:1013C00002FB03F31946304802F064F97B68002BF6
:1013D00007DA79682D4802F05DF902E02C4802F046
:1013E00059F900237B60224B1B68002B34D0204B23
:1013F0001868284B1A68284B1B6801210AF0E8FA84
:101400007860254B1B685B091C4AA2FB0323DB09A0
:101410001946224802F03EF91E4B1B685B09174A29
:10142000A2FB0323DB0919461D4802F033F91A4BCE
:101430001A68184B1B68B2FBF3F3642202FB03F338
:101440001946184802F026F97B68002B07DA7968FC
:10145000154802F01FF902E0144802F01BF97B68FE
:1014600018460837BD4680BDA06101004C08002029
:10147000500800205400002058000020C55A7C0A63
:10148000A8610100C0610100D86101000062010093
:10149000106201005C00002060000020206201005A
:1014A0003862010050620100786201008862010028
:1014B00080B584B000AF786039600023FB60002302
:1014C000BB607B68012B03D10023BB60BB6863E07A
:1014D0007B68022B07D1324802F0DCF84FF0FF3373
:1014E000BB60BB6858E03B6804331B682D49184655
:1014F00010F028FF0346002B1FD13B6808331B6800
:10150000184610F023FE03461A46274B1B6802FBC1
:1015100003F3264AA2FB03235B09FB60244B1868F4
:10152000214B1A68FB6800210AF052FA204B1B6815
:101530001946204802F0AEF82DE03B6804331B68E2
:101540001D49184610F0FEFE0346002B1FD13B68D4
:1015500008331B68184610F0F9FD03461A46174B6E
:101560001B6802FB03F3114AA2FB03235B09FB6028
:10157000134B1868114B1A68FB6800210AF028FA0F
:101580000F4B1B6819460B4802F084F803E0002358
:10159000BB60BB6800E0BB6818461037BD4680BD25
:1015A00098620100A0610100540000201F85EB51EA
:1015B0004C080020CC620100D86201005C000020D1
:1015C0005008002080B584B000AF786039600023F7
:1015D000FB607B68002B04D16B220849084802F0AD
:1015E00097F93B68074A002178680AF0F1F9F8603A
:1015F000FB6818461037BD4680BD00BF246301005C
:10160000E062010040420F0080B584B000AF786016
:101610000023FB60002178680AF0ADF9F860FB68F0
:1016200018461037BD4680BD80B584B000AF7860E5
:1016300039600023FB60054B1B68184600F062FF11
:10164000F860FB6818461037BD4680BD540800207E
:1016500080B582B000AF0023FB7106E00B4B1B6826
:101660004FF0FF31184600F085FE094B1868FA1D4F
:1016700001234FF0FF3100F069FB0346012BEDD150
:10168000FB7918460837BD4680BD00BF54080020CE
:101690005808002080B584B000AF78600023FB605C
:1016A0000023BB6042480DF029FC42480DF026FCA7
:1016B000414801F0EFFF414801F0ECFF404801F0E4
:1016C000E9FF404801F0E6FF3F4801F0E3FF3F48F3
:1016D00001F0E0FF3E4801F0DDFF61E0F9683D48C0
:1016E00001F0D8FFFB68002B5AD00123BB60FB68D8
:1016F000002B00DA54E0FB68772B02D0FB68572BF5
:1017000008D1F968344801F0C5FFFEF7B1FE0023A7
:10171000BB6045E0FB68732B02D0FB68532B08D1FC
:10172000F9682E4801F0B6FFFEF7F0FE0023BB601B
:1017300036E0FB68612B02D0FB68412B08D1F968C9
:10174000274801F0A7FFFEF72FFF0023BB6027E02B
:10175000FB68642B02D0FB68442B08D1F968214850
:1017600001F098FFFEF79EFF0023BB6018E0FB68C6
:10177000702B02D0FB68502B08D1F9681A4801F091
:1017800089FFFEF755FE0023BB6009E0FB68032BD1
:1017900005D1164801F07EFF0023BB6006E000BFC4
:1017A000FFF756FFF860FB68002B97D1F8E700BF02
:1017B000E0110020C01100203463010058630100D3
:1017C00088630100B8630100E86301001864010048
:1017D00048640100786401008C640100A064010089
:1017E000B4640100C4640100D4640100E464010035
:1017F00080B584B002AF324B4FF4E1321A60304A08
:101800001379082161F3030313712D4A13796FF3E0
:10181000051313712A4A5368802161F39923536099
:10182000274A13796FF3871313710022002125488B
:1018300000F04AFD0346244A1360244800F0A7F94B
:101840000346234A1360224B1B68002B07D1204B11
:101850001B6819461F4801F01DFF01232BE01C4B9C
:101860001B6840F24311184600F09EF9184B1B68A4
:10187000134A0321184600F0F1FA154B1B6816496C
:10188000184600F01FFB124B18683A46042300214B
:1018900000F0A0FA4FF47A7301930F2300934FF4F2
:1018A000006300220D490E4803F0EAF97860786879
:1018B00003F044F9002318460837BD4680BD00BF39
:1018C00064000020F4640100540800200465010055
:1018D000580800200C65010029160000951600002C
:1018E0002065010080B400AF034B1B681846BD465D
:1018F0005DF8047B704700BF5C08002080B582B0B3
:1019000000AF1B4B1B68002B02D0194B1B6898477C
:1019100004F08CF87860174B1B680133154A13608C
:1019200003F000F938603B689B6C5A1E3B689A6470
:101930003B689B6C002B12D13B685A6C3B689A64E5
:101940003B6893F8343043F00803DAB23B6883F81D
:101950003420786804F06EF802F0F0FD02E0786858
:1019600004F068F803F0D4FE00BF0837BD4680BD20
:10197000600800205C08002080B485B000AF78606B
:101980007B68002B03DA4FF0FF33FB6027E07B68B6
:10199000164A82FB03129211DB17D31A4FF47A72A4
:1019A00002FB03F3FB607A68104B83FB021399116F
:1019B000D317CB1A4FF47A7101FB03F3D31A4FF408
:1019C0007A7202FB03F303F2E733084A82FB031245
:1019D0009211DB17D31A1A46FB681344FB60FB68AD
:1019E00018461437BD465DF8047B7047D34D62102E
:1019F00080B400AF00231846BD465DF8047B7047F5
:101A000080B400AF00231846BD465DF8047B7047E4
:101A100080B400AF00231846BD465DF8047B7047D4
:101A200080B400AF00231846BD465DF8047B7047C4
:101A300080B582B000AF094B7B6005E07B681B6816
:101A400098477B6804337B607B68054A9342F5D3F3
:101A500000BF00BF0837BD4680BD00BF1C5B010052
:101A60002C5B010080B582B000AF094B7B6005E0C4
:101A70007B681B6898477B6804337B607B68054AFA
:101A80009342F5D300BF00BF0837BD4680BD00BFFD
:101A90002C5B0100445B010080B500AF00F036F81C
:101AA0000023184680BD80B582B000AF7860FFF794
:101AB000D9FF0BF059FA00BF0837BD4680BDFFFFC4
:101AC00080B584B002AF142301930A2300934FF42E
:101AD0000063002209490A4803F0D2F878607B6865
:101AE000002B04D1D5220749074801F011FF78687F
:101AF00003F024F800BF0837BD4680BDA71A0000D8
:101B0000546501006C6501005C65010080B500AFA3
:101B100003F08CFF0FF0F4F801F072F903F038FFD6
:101B200002F0D4FCFFF7CCFF03F04CFF00F0A0FA6A
:101B300002F0E8FC0023184680BD80B584B000AFF9
:101B4000F860B9601346FB80FB68002B02D14FF0B0
:101B5000FF3318E0B86800F01AF80346002B02D0F3
:101B60004FF0FF330FE0FB68BA680921184602F016
:101B70001FFAFB68FA88DA82FB6800229A76FB6813
:101B800000221A83002318461037BD4680BD80B559
:101B900082B000AF78600921786802F07FFB0346CD
:101BA00018460837BD4680BD80B584B000AF786068
:101BB0000B467B800023FB607B68002B04D1D02286
:101BC0003749384801F0A4FE7B68184602F04CFB08
:101BD0000346092B04D0D1223149334801F098FE45
:101BE0007B68DB8A03F01003002B14D17B685B6AEF
:101BF000002B09D07B685B6A78689847F860FB68BF
:101C0000002B01D0FB6847E07B68DB8A43F01003C0
:101C10009AB27B68DA827B68DB8A03F00803002BC8
:101C200008D07B681B8B03F00803002B02D06FF0F9
:101C3000060331E07B689B6A002B07D07B689B6AB8
:101C40007A88114678689847F86007E07B8823F027
:101C5000F0031B051B0D9AB27B681A83FB68002BEF
:101C600003D0FB6813F1060F15D17B681B8B43F083
:101C700008039AB27B681A837B689B7E0133DAB2D1
:101C80007B689A767B689B7E002B04D1FF220449F7
:101C9000064801F03DFEFB6818461037BD4680BD82
:101CA0003C66010080650100906501002866010026
:101CB00080B584B000AF78600023FB607B68002BA8
:101CC00005D14FF489721E491E4801F021FE7B6840
:101CD000184602F0C9FA0346092B05D040F2131248
:101CE0001749194801F014FE7B689B7E002B02D136
:101CF0004FF0FF331FE07B689B7E013BDAB27B68CD
:101D00009A767B689B7E002B01D0002313E07B68D2
:101D1000DB6A002B04D07B68DB6A78689847F86040
:101D2000FB68002B03D0FB6813F1060F02D17B6820
:101D300000221A83FB6818461037BD4680BD00BFDD
:101D40004C660100806501009065010090B585B08A
:101D500000AFF860B9607A603B60FB68002B05D18A
:101D60004FF4A0721849194801F0D2FDFB681846DB
:101D700002F07AFA0346092B05D040F241121249CB
:101D8000134801F0C5FDFB689B7E002B05D14FF089
:101D9000FF3000F087FE002311E0FB681B6B002B77
:101DA00008D0FB681C6B3B687A68B968F868A04784
:101DB000034604E06FF0050000F074FE00231846AF
:101DC0001437BD4690BD00BF5C6601008065010010
:101DD0009065010090B585B000AFF860B9607A6099
:101DE0003B60FB68002B05D140F26B121849194883
:101DF00001F08EFDFB68184602F036FA0346092B07
:101E000005D04FF4B6721249134801F081FDFB680A
:101E10009B7E002B05D14FF0FF3000F043FE0023E6
:101E200011E0FB685B6B002B08D0FB685C6B3B68C8
:101E30007A68B968F868A047034604E06FF00500C7
:101E400000F030FE002318461437BD4690BD00BF99
:101E50006C660100806501009065010080B584B06A
:101E600000AFF860B9607A60FB68002B05D140F2E2
:101E70008F121149114801F04BFDFB68184602F022
:101E8000F3F90346092B05D04FF4C8720A490C48F0
:101E900001F03EFDFB689B6B002B07D0FB689B6B42
:101EA0007A68B968F8689847034601E06FF005035F
:101EB00018461037BD4680BD7C6601008065010074
:101EC0009065010080B582B000AF786039607B68B2
:101ED000002B05D140F2AB120C490D4801F018FD62
:101EE0007B68184602F0C0F90346092B05D04FF471
:101EF000D6720649074801F00BFD7B683A68DA6143
:101F0000002318460837BD4680BD00BF906601001B
:101F1000806501009065010080B483B000AF7860F7
:101F200039607B681B683A685A607B681A683B684E
:101F30001A607B683A681A603B687A685A6000BF2A
:101F40000C37BD465DF8047B704780B483B000AFAA
:101F500078607B681B687A6852685A607B685B6847
:101F60007A6812681A607B687A685A607B685A6877
:101F70007B681A6000BF0C37BD465DF8047B704774
:101F800080B582B000AF78607B681433194603488F
:101F9000FFF7C2FF00BF0837BD4680BD70000020BC
:101FA00090B583B000AF00237B600D4B3B603B6876
:101FB0001B683A689A420ED03B681B68143B7B60F2
:101FC00003F034FD04467B6814331846FFF7BDFF69
:101FD000204603F02FFD7B6818460C37BD4690BDA8
:101FE0007000002080B582B000AFFFF7D9FF7860A5
:101FF0007B68002B1BD07B689B6F3B603B68002B92
:1020000002D03B6878689847786802F00FF9034679
:10201000012B03D1786802F031F8E6E77B689B6A10
:10202000184601F043FC786802F0C2F8DDE700BF13
:1020300000BF0837BD4680BD80B584B000AF786072
:102040000023FB600CE0094AFB6852F82330BB60B8
:10205000BB68002B01D0BB689847FB680133FB606D
:10206000FB68032BEFD9FFF7BDFFE9E7E409002088
:1020700080B588B004AF0023FB6024E03B1DFA6804
:102080001549184601F08CFAFB68DB01134A9818D1
:10209000FB681B02124A1344391D202203921F229F
:1020A00002924FF480720192009300230D4A02F0D5
:1020B00001FDFB68DB01094A1344184602F03EFDAE
:1020C000FB680133FB60FB68002BD7D000BF00BF6B
:1020D0001037BD4680BD00BFAC660100640800201B
:1020E000E40800203920000080B483B000AF78609D
:1020F0007B687A685A607B685A687B681A6000BFA0
:102100000C37BD465DF8047B704780B483B000AFE8
:10211000786039607B685B683A681A607B685A68E7
:102120003B685A607B683A685A603B687A681A6014
:1021300000BF0C37BD465DF8047B704780B483B0A8
:1021400000AF78607B681B687A689A420CBF0123F5
:102150000023DBB218460C37BD465DF8047B7047A0
:1021600080B582B000AF78607B6814331846FFF703
:10217000BBFF002318460837BD4680BD80B586B03A
:1021800000AFF860B9601346FB71B86802F0E6FE74
:10219000FB79002B02D0012B07D031E0BB68143350
:1021A0001946F868FFF7B1FF31E0FB681B687B61F7
:1021B00017E07B69143B3B61BB6893F835203B69B2
:1021C00093F835309A4209D23B6903F11402BB6897
:1021D000143319461046FFF798FF06E07B691B6829
:1021E0007B617A69FB689A42E3D17A69FB689A421B
:1021F0000CD1BB6814331946F868FFF786FF05E079
:10220000A3220549054801F083FB00E000BF00233D
:1022100018461837BD4680BDBC6B0100B46601008E
:1022200080B584B000AF78607B681B68143BFB60AE
:10223000F86802F0F7FE002318461037BD4680BD4F
:1022400080B584B000AFF860B9607A60FB70FB685D
:10225000002B05D14FF496721749184801F058FB2E
:102260007B68B3F5803F05D340F22D121249144824
:1022700001F04EFBFB78002B08D0FB78012B05D03A
:102280004FF497720C490F4801F042FBFB68BA68A3
:102290000221184601F08CFEFB681846FFF760FF2C
:1022A0007B689AB2FB689A83FB68FA785A720023BB
:1022B00018461037BD4680BD946B0100B86601001A
:1022C000C8660100DC66010080B586B000AFF8602A
:1022D000B9601346FB71BB68B3F5803F05D340F28C
:1022E00089121F491F4801F013FBFB79002B08D00E
:1022F000FB79012B05D04FF4C57219491A4801F03A
:1023000007FB03F093FB786100F0B8FB0346002B5A
:1023100009D01349154801F0BDF94FF4C6721049B0
:10232000134801F0F5FA786903F084FBF96802209C
:1023300001F0D2FE38613B69002B01D13B690BE013
:102340003B691846FFF70CFFBB689AB23B699A835A
:102350003B69FA795A723B6918461837BD4680BD09
:10236000A06B0100C8660100DC66010090670100F7
:10237000B466010090B587B000AF786039607B68C3
:10238000002B05D140F2E5125549564801F0C0FA3C
:102390007B68184601F068FF0346022B05D04FF416
:1023A000F3724F49504801F0B3FA504B1B68002BB1
:1023B00004D04E4B1B687A681046984703F036FBF2
:1023C00004467B689B8B002B09D07B689B8B013B71
:1023D0009AB27B689A83204603F02CFB71E03B683D
:1023E000002B05D1204603F025FB6FF0010372E0BE
:1023F00003F01CFB786102F03DFA0346002B09D084
:1024000037493B4801F046F940F206223449394841
:1024100001F07EFA03F00AFB386102F083FB034609
:10242000002B09D12E49344801F034F940F206223C
:102430002B49304801F06CFA03F0F8FAF86000F02C
:102440001DFB0346002B09D025492C4801F022F939
:1024500040F206222249274801F05AFAF86803F0B0
:10246000E9FA386903F0E6FA786903F0E3FA02F072
:1024700059FBB860BB6800221A637B6803F1140043
:102480007B685B7A1A46B968FFF778FE3B68002BD9
:102490000BDDBB684C333A460021184603F0BCF80C
:1024A000BB684C33184602F05BFF204603F0C2FACB
:1024B00002F044F8BB681B6B002B02D0BB681B6B9F
:1024C00009E00F4B1B68002B04D00D4B1B687A688A
:1024D00010469847002318461C37BD4690BD00BFE4
:1024E000B06B0100B866010018670100C40A002043
:1024F000F4670100B46601002068010090670100E4
:10250000C80A0020B0B582B000AF78607B68002BAD
:1025100005D140F25F222649264801F0F9F97B688F
:10252000184601F0A1FE0346022B05D04FF41872A5
:102530001F49214801F0ECF9204B1B68002B04D007
:102540001E4B1B687A6810469847002503F06EFA08
:1025500004467B6814331846FFF7F0FD0346002B52
:1025600006D17B6814331846FFF75AFE012512E0A6
:102570007B689B8B4FF6FF72934206D07B689B8BE8
:1025800001339AB27B689A8305E0204603F052FA41
:102590006FF0020307E0204603F04CFA012D01D151
:1025A00001F0CCFF002318460837BD46B0BD00BF80
:1025B000D06B0100B866010018670100CC0A00204A
:1025C00080B584B000AFF860B9601346FB71FB685A
:1025D000002B05D140F2E6221049114801F098F98C
:1025E000FB68BA680321184601F0E2FCFB68184654
:1025F000FFF7B6FDFB6801229A83FB6800221A628E
:10260000FB68FF229A77FB680022DA77FB680122D9
:102610005A72002318461037BD4680BDE06B01009A
:102620005868010090B587B000AF7860396003F05A
:10263000FDF9786102F01EF90346002B09D07749B5
:10264000774801F027F84FF465727449754801F036
:102650005FF903F0EBF9386102F064FA0346002BEE
:1026600009D16E49704801F015F84FF465726B4955
:102670006C4801F04DF903F0D9F9F86000F0FEF96B
:102680000346002B09D06549684801F003F84FF470
:1026900065726249634801F03BF9F86803F0CAF9D2
:1026A000386903F0C7F9786903F0C4F97B68002B37
:1026B00005D140F2973259495D4801F029F97B680C
:1026C000184601F0D1FD0346032B05D04FF4667286
:1026D0005249584801F01CF902F024FAB86003F09E
:1026E000A5F90446544B1B68002B04D0524B1B68C1
:1026F0007A6810469847BB6800221A637B681B6A99
:10270000BA689A4210D17B68DB7FFF2B06D07B68CA
:10271000DB7F0133DAB27B68DA776DE0204603F0C5
:1027200089F96FF0020374E07B689B8B002B1ED04D
:102730007B689B8B013B9AB27B689A837B68BA6803
:102740001A62BB6893F835207B689A777B68DB7FD9
:10275000FF2B06D07B68DB7F0133DAB27B68DA7748
:102760004AE0204603F066F96FF0020351E03B684F
:10277000002B09D1BB686FF001021A63204603F0F9
:1027800059F96FF0010344E0BB6893F835207B688A
:102790001B6A93F835309A4207D27B68186ABB6887
:1027A00035331A46022102F05BFB7B6803F114000B
:1027B0007B685B7A1A46B968FFF7E0FC3B68002B40
:1027C0000BDDBB684C333A460021184602F024FF6B
:1027D000BB684C33184602F0C3FD204603F02AF9CB
:1027E00001F0ACFEBB681B6B002B02D0BB681B6BFF
:1027F0000FE003F01BF90446204603F01BF90F4BD2
:102800001B68002B04D00D4B1B687A681046984754
:10281000002318461C37BD4690BD00BFF06B010079
:10282000F4670100B46601002068010090670100B0
:10283000586801006C680100C40A0020C80A002022
:1028400090B587B000AF78607B68002B05D140F26F
:1028500044426349634801F05BF87B68184601F025
:1028600003FD0346032B05D040F245425C495E4818
:1028700001F04EF800237B6103F0D8F8386102F0D4
:1028800051F90346002B09D15549584800F002FF81
:1028900040F24A425249564801F03AF803F0C6F86D
:1028A000F86000F0EBF80346002B09D04C49514882
:1028B00000F0F0FE40F24A4249494D4801F028F844
:1028C000F86803F0B7F8386903F0B4F802F02AF9B1
:1028D000B86003F0ABF80446474B1B68002B04D0EC
:1028E000454B1B687A68104698477B681B6ABA6834
:1028F0009A4209D0BB684FF0FF321A63204603F0BA
:1029000099F84FF0FF3367E07B68DB7F013BDAB279
:102910007B68DA777B68DB7F002B54D17B689A7FFA
:102920007B681B6A93F835309A4207D07B68186A37
:102930007B681E331A46022102F092FA7B68143338
:102940001846FFF7FBFB0346002B23D17B685B692E
:10295000143BBB607B68BA681A62BB6893F8352089
:102960007B689A777B68DB7FFF2B0DD07B68DB7FF2
:102970000133DAB27B68DA777B6814331846FFF7E5
:102980004FFC01237B611EE0204603F053F86FF0FB
:10299000020321E07B689B8B4FF6FF7293420CD0C1
:1029A0007B689B8B01339AB27B689A837B68002299
:1029B0001A627B68FF229A7705E0204603F03AF816
:1029C0006FF0020308E0204603F034F87B69012B26
:1029D00001D101F0B3FD002318461C37BD4690BD60
:1029E000006C0100586801006C680100206801005B
:1029F000B466010090670100CC0A002080B582B067
:102A000000AF03F013F878600A4B1B78DBB2013398
:102A1000DAB2084B1A70084B1B68002B02D0064B29
:102A20001B689847786803F005F800BF0837BD4673
:102A300080BD00BFFC090020F409002080B582B0F1
:102A400000AF02F0F3FF78600A4B1B68002B02D046
:102A5000084B1B689847084B1B78DBB2013BDAB286
:102A6000054B1A70786802F0E5FF00BF0837BD46D5
:102A700080BD00BFF8090020FC09002080B582B0AD
:102A800000AF02F0D3FF7860054B1B78FB707868CD
:102A900002F0D0FFFB7818460837BD4680BD00BF66
:102AA000FC09002080B584B000AF7860FFF7E6FF36
:102AB0000346002B03D00A4A7B6813600CE002F047
:102AC00031F8F860FB68002B03D1054A7B6813607E
:102AD00002E0FB687A681A631037BD4680BD00BF0C
:102AE000000A002080B582B000AFFFF7C7FF0346A1
:102AF000002B01D0074B09E002F014F878607B68E6
:102B0000002B02D07B68303300E0024B18460837B8
:102B1000BD4680BD000A002080B489B000AFF860D7
:102B2000B9607A60FB68FB61BB68DBB27B617B6884
:102B3000032B40D9FB6803F00303002B3BD1FB6858
:102B4000BB617B691B027A6913433B613B691B04D0
:102B50003A6913433B6116E0BB691A1DBA613A69D1
:102B60001A60BB691A1DBA613A691A60BB691A1DFD
:102B7000BA613A691A60BB691A1DBA613A691A608A
:102B80007B68103B7B607B680F2BE5D807E0BB6957
:102B90001A1DBA613A691A607B68043B7B607B68E6
:102BA000032BF4D8BB69FB6105E0FB695A1CFA6191
:102BB0007A69D2B21A707B685A1E7A60002BF4D1FF
:102BC000FB6818462437BD465DF8047B704780B427
:102BD0008BB000AFF860B9607A60FB687B62BB685D
:102BE0003B627B687B617B690F2B4DD93A6A7B6ABC
:102BF000134303F00303002B46D17B6AFB613B6A5E
:102C0000BB6122E0BA69131DBB61FB69191DF96143
:102C100012681A60BA69131DBB61FB69191DF9615D
:102C200012681A60BA69131DBB61FB69191DF9614D
:102C300012681A60BA69131DBB61FB69191DF9613D
:102C400012681A607B69103B7B617B690F2BD9D8B6
:102C50000AE0BA69131DBB61FB69191DF9611268AD
:102C60001A607B69043B7B617B69032BF1D8FB69AC
:102C70007B62BB693B6207E03A6A531C3B627B6A3A
:102C8000591C796212781A707B695A1E7A61002B7E
:102C9000F2D1FB6818462C37BD465DF8047B7047BF
:102CA00080B487B000AFF860B9607A60FB687B6180
:102CB000BB683B613A697B699A4226D23A697B6874
:102CC00013447A699A4220D27A697B6813447B6103
:102CD0003A697B6813443B6109E03B69013B3B6116
:102CE0007B69013B7B613B691A787B691A707B6861
:102CF0005A1E7A60002BF0D10CE03A69531C3B61FC
:102D00007B69591C796112781A707B685A1E7A6047
:102D1000002BF2D1FB6818461C37BD465DF8047BDA
:102D2000704780B487B000AFF860B9607A607B68A4
:102D3000002B21D0FB687B61BB683B613A69531C67
:102D40003B617B69591C796112781A701B78002BE2
:102D50000CD104E07B695A1C7A6100221A707B68EE
:102D6000013B7B607B68002BF4D105E07B68013B75
:102D70007B607B68002BE1D1FB6818461C37BD46A1
:102D80005DF8047B704790B484B000AFF860B96020
:102D90007A60002413E0FB681A78BB68591CB9609C
:102DA0001B78D31ADBB25CB2002C0BD1FB685A1C27
:102DB000FA601B78002B05D07B68013B7B607B6849
:102DC000002BE8D1234618461037BD4690BC70470B
:102DD00080B485B000AF78607B68FB6002E0FB6880
:102DE0000133FB60FB681B78002BF8D1FA687B6825
:102DF000D31A18461437BD465DF8047B7047FFFFB1
:102E000080B582B002AF0B4800F044FC0A4800F0E5
:102E100041FC0A4B01930A4B009300230122042139
:102E2000084800F037FC084800F034FC00BFBD46FD
:102E300080BD00BF146C0100206C0100686C0100B3
:102E4000746C0100446C0100806C010080B485B09A
:102E500000AF786039603B680A2B17D17B681B682C
:102E60001946134BA3FB0123DA0813469B001344B6
:102E70005B00CA1AFA607B681B681A460C4BA3FBFE
:102E80000223DB081A467B681A600AE07B681B682D
:102E900003F00F03FB607B681B681B091A467B6805
:102EA0001A60FB6818461437BD465DF8047B70470E
:102EB000CDCCCCCC90B482B000AF786000240DE0D3
:102EC00023469B0023445B0018467B681B68591C03
:102ED0007A6811601B780344A3F130047B681B6897
:102EE0001B78303B092BEBD9234618460837BD46E3
:102EF00090BC7047B0B58CB000AFF860B9607A6034
:102F00003B607B6CBB623C6CBB6C03F04003002BF2
:102F100001D06D4B00E06D4B7B62BB6C03F0100386
:102F2000002B03D0BB6C23F00103BB64BB6C03F02C
:102F30000103002B01D0302300E0202387F8233049
:102F4000002387F82F30BB6C03F00203002B1AD04C
:102F50007B68002B06DA2D2387F82F307B685B42D5
:102F60007B6010E0BB6C03F00403002B03D02B2329
:102F700087F82F3007E0BB6C03F00803002B02D06A
:102F8000202387F82F3000257B68002B19D12B4692
:102F90005D1C07F130021344302203F8202C13E0AB
:102FA0003B1D39681846FFF751FF03461A467B6AF6
:102FB0001A442B465D1C127807F130010B4403F8CC
:102FC000202C7B68002BEBD17B6C9D4200DD7D6467
:102FD0007B6CE41ABB6C03F01103002B15D197F83E
:102FE0002F30002B0DD0002C0BDD013C09E0FA68DE
:102FF000BB689A4202D2FB6820221A70FB68013338
:10300000FB6023465C1E002BF1DC97F82F30002B71
:103010000BD0FA68BB689A4203D2FB6897F82F205E
:103020001A70013CFB680133FB60BB6C03F01003BA
:10303000002B1AD10AE0FA68BB689A4203D2FB68F7
:1030400097F823201A70FB680133FB6023465C1E4F
:10305000002BF0DC09E0FA68BB689A4202D2FB68F8
:1030600030221A70FB680133FB607B6C5A1E7A6455
:103070009D42F0DB0DE0FA68BB689A4206D207F188
:1030800030032B4413F8202CFB681A70FB680133C3
:10309000FB602B465D1E002B0DDDBB6A002BEAD1C9
:1030A00009E0FA68BB689A4202D2FB6820221A70D3
:1030B000FB680133FB6023465C1E002BF1DCFB68E0
:1030C00018463037BD46B0BD1C6D0100306D0100A3
:1030D00080B592B004AFF860B9607A603B60FB687D
:1030E000BB62FA68BB6813447B627A6AFB689A42E7
:1030F00080F026824FF0FF337B627A6AFB68D31A36
:10310000BB601DE27B681B78252B0BD0BA6A7B6AFB
:103110009A4203D27B681A78BB6A1A70BB6A013381
:10312000BB620AE20023BB777B6801337B607B686C
:103130001B782D2B04D1BB7F43F01003BB77F3E743
:103140007B681B782B2B04D1BB7F43F00403BB7738
:10315000EAE77B681B78202B04D1BB7F43F0080390
:10316000BB77E1E77B681B78232B04D1BB7F43F05F
:103170002003BB77D8E77B681B78302B04D1BB7F5B
:1031800043F00103BB77CFE700BF4FF0FF33BB61D4
:103190007B681B78303B092B05D83B1D1846FFF791
:1031A00089FEB86115E07B681B782A2B11D17B68FA
:1031B00001337B603B681A1D3A601B68BB61BB69C9
:1031C000002B06DABB695B42BB61BB7F43F0100397
:1031D000BB774FF0FF337B617B681B782E2B1ED1B2
:1031E0007B6801337B607B681B78303B092B05D8FB
:1031F0003B1D1846FFF75EFE78610BE07B681B788D
:103200002A2B07D17B6801337B603B681A1D3A602B
:103210001B687B617B69002B01DA00237B61002343
:103220007B777B681B78682B03D07B681B786C2BC3
:1032300005D17B681B787B777B6801337B600A2331
:10324000FB777B681B78252B00F00881252BC0F2CB
:103250001F81782B00F31C81582BC0F21981583B39
:10326000202B00F2158101A252F823F079340000DE
:10327000913400009134000091340000913400003A
:10328000913400009134000091340000913400002A
:103290009134000091340000F132000087340000C6
:1032A000913400009134000091340000913400000A
:1032B0008734000091340000913400009134000004
:1032C0009134000091340000733400002534000074
:1032D00091340000913400005F330000913400000D
:1032E000CD3400009134000091340000813400009E
:1032F000BB7F03F01003002B10D109E0BA6A7B6A90
:103300009A4202D2BB6A20221A70BB6A0133BB62A6
:10331000BB69013BBB61BB69002BEFDC3B681A1D3D
:103320003A601B68FB74BA6A7B6A9A4202D2BB6A33
:10333000FA7C1A70BB6A0133BB6209E0BA6A7B6A25
:103340009A4202D2BB6A20221A70BB6A0133BB6266
:10335000BB69013BBB61BB69002BEFDCEDE03B6867
:103360001A1D3A601B683B623B6A002B01D1824BFD
:103370003B620023FB6202E0FB6A0133FB62FA6AF4
:10338000BB699A4205D0FB6A3A6A13441B78002B4A
:10339000F2D17B69002B05DDFA6A7B699A4201DD77
:1033A0007B69FB62BB7F03F01003002B10D109E0A7
:1033B000BA6A7B6A9A4202D2BB6A20221A70BB6A3E
:1033C0000133BB62BB695A1EBA61FA6A9A42EFDBEB
:1033D00000233B6310E0BA6A7B6A9A4203D23B6ADD
:1033E0001A78BB6A1A70BB6A0133BB623B6A01334D
:1033F0003B623B6B01333B633A6BFB6A9A42EADB0D
:1034000009E0BA6A7B6A9A4202D2BB6A20221A7029
:10341000BB6A0133BB62BB695A1EBA61FA6A9A423F
:10342000EFDB8AE0BB69B3F1FF3F05D10823BB6145
:10343000BB7F43F00103BB773B681A1D3A601B68F2
:103440001A46BB7F02937B690193BB6900931023EB
:10345000796AB86AFFF74EFDB8626EE0BA6A7B6AB5
:103460009A4202D2BB6A25221A70BB6A0133BB6240
:1034700063E00823FB772AE0BB7F43F04003BB7780
:103480001023FB7723E0BB7F43F00203BB771DE0F3
:10349000BA6A7B6A9A4202D2BB6A25221A70BB6A58
:1034A0000133BB627B681B78002B0BD0BA6A7B6A46
:1034B0009A4203D27B681A78BB6A1A70BB6A0133DE
:1034C000BB623AE07B68013B7B6036E000BF7B7FFC
:1034D0006C2B09D13B681A1D3A601B687B63BB7F6C
:1034E00003F00203002B1AE07B7F682B0ED13B68B0
:1034F0001A1D3A601B689BB27B63BB7F03F002031B
:10350000002B0CD07B6B1BB27B6308E03B681A1D61
:103510003A601B687B63BB7F03F00203002B7A6B6E
:10352000F97FBB7F02937B690193BB6900930B46D4
:10353000796AB86AFFF7DEFCB8627B6801337B60AA
:103540007B681B78002B7FF4DDADBB68002B0BD0B4
:10355000BA6A7B6A9A4203D2BB6A00221A7003E0FD
:103560007B6A013B00221A70BA6AFB68D31A1846BC
:103570003837BD4680BD00BFAC6C010080B584B05B
:1035800000AFF860B9607A607B68BA684FF0FF31CD
:10359000F868FFF79DFD034618461037BD4680BD0D
:1035A0000EB480B585B000AF786007F12003BB6032
:1035B000BA68F9697868FFF7E1FFF860FB681846B8
:1035C0001437BD46BDE8804003B0704780B400AFFB
:1035D000034B1B681846BD465DF8047B704700BF6F
:1035E000040A002080B584B000AF7860124B1B68DD
:1035F000FB607868FEF7CBFAB860BA68FB689A425D
:1036000001D1002313E0BB68002B0FD00A4B1B68CD
:10361000002B04D0084B1B681846FEF749FB4321DA
:10362000B868FEF7C1FA044ABB681360FB68184625
:103630001037BD4680BD00BF040A002080B483B0AF
:1036400000AF786000BF0C37BD465DF8047B704763
:1036500090B583B000AF78607B68002B13D00C4B23
:103660001B68002B03D17868FFF7E8FF0CE0084BDC
:103670001C687868FFF7ACFB03467A680021204697
:10368000FEF7A8FB00E000BF0C37BD4690BD00BFB1
:10369000040A00200FB480B582B000AF07F1140314
:1036A0003B603B683A697F211048FFF711FD0346F4
:1036B0007B607B687F2B01D97F237B600C4B1B6871
:1036C000002B03D10948FFF7B9FF06E0084B186843
:1036D0007B68064A0021FEF77DFB7B6818460837A9
:1036E000BD46BDE8804004B0704700BF3C0A0020E2
:1036F000040A002080B500AF012203490348FEF709
:103700005FFF00BF80BD00BFB46C0100100A002045
:1037100080B500AF01F006FA0346002B06D04FF04B
:10372000FF310448FEF77EFF034600E00023184601
:1037300080BD00BF100A002080B582B000AF786065
:103740007B68002B05D04FF4AC620849084800F0B4
:10375000DFF801F0E7F90346002B02D00548FFF738
:103760006FF800BF0837BD4680BD00BF586D01002F
:10377000BC6C0100100A002080B485B000AFF86076
:10378000B9607A60FB68002B04D00D4B1B68DA69C6
:10379000FB681A60BB68002B04D0094B1B681A6ACF
:1037A000BB681A607B68002B04D0054B1B685A6A03
:1037B0007B681A6000BF1437BD465DF8047B704714
:1037C000340A002080B584B000AF786039607B682F
:1037D000033323F00303FB603B6823F00303BB6068
:1037E000BA68FB689A4205D840F2B6520A490B48BB
:1037F00000F08EF8BA68FB68D31A1A467968084850
:1038000000F028F90346074A1360FFF773FF00BF73
:103810001037BD4680BD00BF446D0100CC6C010077
:10382000B46C0100340A002080B584B000AF786029
:10383000FFF76EFFF8600C4B1B687968184600F0C4
:103840008BF9B860F868FFF777FF084B1B68002B0F
:1038500004D0064B1B687968B8689847BB6818465F
:103860001037BD4680BD00BF340A0020080A002082
:1038700080B584B000AF786039607B683A6802FB3D
:1038800003F31846FFF7D0FFF860FB68002B08D061
:103890007B683A6802FB03F31A460021F868FFF7D9
:1038A0003BF9FB6818461037BD4680BD80B584B033
:1038B00000AF78600A4B1B68002B03D0084B1B68D5
:1038C00078689847FFF724FFF860786800F078FA86
:1038D000F868FFF731FF00BF1037BD4680BD00BF5D
:1038E0000C0A002080B586B000AFF860B9607A603D
:1038F000FFF70EFF78617A68B968F868FFF73CFF58
:103900007869FFF719FF00BF1837BD4680BDFFFF7C
:1039100080B586B000AFF860B9607A600023FB75AF
:103920000C4B1B68002B0BD17B68BA68F9680A48FE
:10393000FFF7B0FE00BFFB7DDBB2002BFBD005E044
:10394000044B1B687A68B968F868984700BF183755
:10395000BD4680BD380A0020E46C010080B584B00B
:1039600000AF786039607B689B6A3A689A4204D2FB
:10397000822235493548FFF7CBFF7B68DB6A3A681E
:103980009A4204D3832230493148FFF7C1FF7B6854
:103990009A6A3B685B681344FB603A68FB689A422A
:1039A00024D0FB681B6803F00103002B1ED17B6849
:1039B000DB6AFA689A4219D07B681B6BFA689A42F4
:1039C00002D17B683A681A63FB6800221A60FB68C0
:1039D0005A683B685A607B689B6A3A68D11A7B6870
:1039E0009A6AFB685B6813440A469A607B689A6A25
:1039F0003B689B681344BB60BA683B689A421FD01F
:103A0000BB681B6803F00103002B19D17B681B6B9B
:103A10003A689A4202D17B68BA681A633B6800220E
:103A20001A603B685A68BB685A607B689B6ABA68D0
:103A3000D11A7B689A6A3B685B6813440A469A60AD
:103A400000BF1037BD4680BD84710100686D010064
:103A50008C6D010080B58AB000AFF860B9607A6003
:103A6000BB68033323F003037B627B6A38333B621A
:103A70003B6A033323F00303FB61BA687B6813449A
:103A800023F00303BB61BB69182B53D9BB69183BF7
:103A90003A6A9A424ED8BA69FB69D31A183B7B61DD
:103AA00038220021786AFFF737F87B6AFA680C2120
:103AB000184600F07DFA7B6A254A5A617B6AFA69EA
:103AC0009A617B6A7A69DA617B6A7A695A63FA6910
:103AD0007B6A9A627B6A9B6A3B617B6A23F0010284
:103AE0003B691A607B6A5B6B03F10C023B695A60AD
:103AF0003B6900229A607B6A9A6A3B695B681A4458
:103B00007B6ADA627A6A7B6ADB6A42F001021A60D7
:103B10007B6A5A6B7B6ADB6A0C325A607B6A5A6B2F
:103B20007B6ADB6A0C329A607B6A9A6A7B6A1A63E8
:103B30007B6A08E0B968BA687B6813441A4605488E
:103B4000FFF7A8FD002318462837BD4680BD00BFFB
:103B5000BC6D0100C46D010080B588B000AF786015
:103B600039603B68002B01D1002315E17B68002BF5
:103B700005D14FF490728A498A48FFF7C9FE7B68E5
:103B8000184600F071FB03460C2B05D040F22112C1
:103B900083498548FFF7BCFE7B68184600F046FB6A
:103BA0000346002B05D14FF491727D497F48FFF702
:103BB000AFFE7B68BB613B68033323F003033B60CC
:103BC000BB695B6B3A689A4201D90023E4E03B6829
:103BD0000B2B01D80C233B60BB691A6BBB699B6A3A
:103BE000D31AFB61CFE0BB699A6AFB6913447B611E
:103BF0007B691B6803F00103002B40F0BE807B69EA
:103C00005A68FB69D31A0C3B3A689A4200F2B580B5
:103C10007B695A68FB69D31AA3F10C023B6818331D
:103C20009A4239D3FA693B6813440C333B61BB6950
:103C30009A6A3B691344FB60BB6923F00102FB688D
:103C40001A607B695A68FB685A60FB68FA699A6077
:103C50007B693A695A60FB685A68BB695B6B0C33D5
:103C60009A4206D0BB699A6AFB685B6813443A695A
:103C70009A60BB691A6A3B68134403F10C02BB6982
:103C80001A62BB695A6ABB691B6A9A421AD2BB693B
:103C90001A6ABB695A6215E0BB691A6A7B695B687C
:103CA000B969896A7869411A5B1A1A44BB691A6250
:103CB000BB695A6ABB691B6A9A4203D2BB691A6A1A
:103CC000BB695A62BB6943F001027B691A60BB6938
:103CD0001B6B7A699A4228D107E0BB699A6ABB6973
:103CE0001B6B5B681A44BB691A63BB691B6B1B685F
:103CF00003F00103002B05D0BB691A6BBB69DB6ABB
:103D00009A42EAD1BB691A6BBB69DB6A9A420CD052
:103D1000BB691B6B1B6803F00103002B05D040F24D
:103D200083121F492248FFF7F3FD7A693B68134469
:103D30000C33BA69D26A934205D940F28512184908
:103D40001C48FFF7E5FD7B690C3303F00303002BF0
:103D500005D04FF4C37212491748FFF7D9FD7B69AC
:103D600003F00303002B05D040F287120C491348DF
:103D7000FFF7CEFD7B690C330EE0BB699A6AFB69E5
:103D800013445B68FB61BB695A6B3B68D31AFA69E1
:103D90009A427FF628AF002318462037BD4680BDE3
:103DA00090710100006E0100106E01004C6E010068
:103DB000746E0100C46E0100146F0100606F010099
:103DC00080B584B000AF78607B68002B00F0838002
:103DD0007B6803F00303002B05D04FF402724049C7
:103DE0004048FFF795FD7B680C3BFB60FB681B6858
:103DF00023F00103BB60BB68002B05D14FF40572B3
:103E000037493948FFF784FDFB681B6803F001035D
:103E1000002B05D140F2152231493448FFF778FDD7
:103E2000BB68184600F020FA03460C2B05D040F280
:103E300016222B492E48FFF76BFDBB68184600F091
:103E4000F5F90346002B05D140F2172224492948F1
:103E5000FFF75EFDBB689B6A7A689A4204D3BB6831
:103E6000DB6A7A689A4205D34FF406721C492248ED
:103E7000FFF74EFDBB689A6AFB685B6813441B68DA
:103E800023F001031A46BB68934205D040F21A2280
:103E900013491A48FFF73CFDBB6823F00102FB6899
:103EA0001A60BB681B6BFA689A4202D2BB68FA6858
:103EB0001A63BB681A6ABB689B6AF968CB1A194611
:103EC000FB685B68CB1A1A44BB681A62F968B86869
:103ED000FFF744FD00E000BF1037BD4680BD00BFC6
:103EE000A0710100906F0100307001004870010066
:103EF00058700100A0700100D87001004C710100E1
:103F000080B483B000AF786039607B681B683A6822
:103F10005A607B681A683B681A607B683A681A6066
:103F20003B687A685A6000BF0C37BD465DF8047B79
:103F3000704780B483B000AF78607B681B687A6894
:103F400052685A607B685B687A6812681A607B689E
:103F50007A685A607B685A687B681A6000BF0C37C1
:103F6000BD465DF8047B704780B485B000AF034662
:103F7000FB710023FB600FE00C4AFB681B0113443C
:103F80001B78FA799A4204D1FB681B01074A134453
:103F900006E0FB680133FB60FB68082BECDD0023C7
:103FA00018461437BD465DF8047B70477800002042
:103FB00090B589B000AFF8600B467A60FB720023C1
:103FC000FB61FB7A1846FFF7CFFFB861BB69002B96
:103FD00005D14FF4AB7225492548FFF799FC00F055
:103FE00009FCBB695B68FB6112E0FB690C3B7B6110
:103FF0007B69002B09D07A69FB689A4205D14FF49E
:10400000B3721A491B48FFF783FCFB691B68FB610D
:10401000BB690433FA699A42E7D100F001FCFB7AEC
:1040200063F07F03DAB2FB681A72FB6808227968D2
:104030001846FEF776FE104B1B68002B03D00E4B84
:104040001B68F868984701F0F1FC0446BB691A1D2B
:10405000FB680C3319461046FFF752FF204601F06B
:10406000E9FC00BF2437BD4690BD00BF447201008B
:10407000B0710100C8710100BC0A002090B583B086
:1040800000AF78607B68002B05D140F293120F4996
:104090000F48FFF73DFC0F4B1B68002B03D00D4B67
:1040A0001B68786898477B6800221A7201F0BEFC92
:1040B00004467B680C331846FFF73BFF204601F0AF
:1040C000B9FC00BF0C37BD4690BD00BF5472010063
:1040D000D8710100C00A002090B587B000AF034638
:1040E0003960FB7101F0A2FC7861FEF7C7FC034662
:1040F000002B09D029492A48FFF7CCFA40F2B71221
:1041000026492848FFF704FC786901F093FCFB7905
:104110001846FFF729FF38613B69002B05D140F2B3
:10412000BB121E492048FFF7F3FB3B69DB681846CA
:10413000FFF77AFBF860FB68002B01D1002329E030
:104140003B69DB681A460021F868FEF7E5FCFB686E
:10415000FA791A72FB6800225A72FB6808223968E1
:104160001846FEF7DEFD114B1B68002B03D00F4BEA
:104170001B68F868984701F059FC04463B691A1D12
:10418000FB680C3319461046FFF7BAFE204601F0D3
:1041900051FCFB6818461C37BD4690BD6872010093
:1041A000EC71010014720100B0710100BC0A002022
:1041B00090B583B000AF78607B68002B05D140F2EA
:1041C000F51216491648FFF7A3FB7B681B7A5BB212
:1041D000002B05DA4FF4FB7210491248FFF798FBE9
:1041E000114B1B68002B03D00F4B1B687868984756
:1041F0007B6800221A7201F019FC04467B680C33BC
:104200001846FFF796FE204601F014FC7868FFF789
:104210004DFB00BF0C37BD4690BD00BF7C72010056
:10422000D871010018720100C00A002080B582B068
:1042300000AF78607B68002B05D14FF40672084907
:104240000848FFF765FB7B681B7A5BB2002B01DA3D
:10425000012300E0002318460837BD4680BD00BF9B
:1042600090720100D871010080B582B000AF786013
:104270007B68002B05D140F22B2206490648FFF748
:1042800047FB7B681B7A03F07F03DBB218460837D5
:10429000BD4680BDAC720100D871010080B586B00A
:1042A00000AF78600B46FB7000233B6100237B610D
:1042B0000023FB60FB781846FFF756FEF8607B682A
:1042C000002B02D0FB68002B01D1002335E001F068
:1042D000ADFBB860FEF7D2FB0346002B09D01949AD
:1042E0001948FFF7D7F940F2492216491748FFF756
:1042F0000FFBB86801F09EFB00F07CFAFB685B687E
:104300007B6112E07B690C3B3B613B690822796869
:104310001846FEF738FD0346002B03D100F080FA63
:104320003B690AE07B691B687B61FB6804337A693F
:104330009A42E7D100F074FA002318461837BD46B8
:1043400080BD00BFC0720100EC7101001472010059
:1043500080B483B000AF78607B687A685A607B680D
:104360005A687B681A6000BF0C37BD465DF8047B55
:10437000704780B483B000AF786039607B685B6859
:104380003A681A607B685A683B685A607B683A688A
:104390005A603B687A681A6000BF0C37BD465DF80A
:1043A000047B704780B483B000AF78607B681B6883
:1043B0007A6852685A607B685B687A6812681A602B
:1043C0007B687A685A607B685A687B681A6000BFAD
:1043D0000C37BD465DF8047B704780B483B000AFF6
:1043E00078607B681B687A689A420CBF01230023BF
:1043F000DBB218460C37BD465DF8047B7047FFFF03
:1044000080B584B000AF78607B68002B04D15F2258
:104410001C491D48FFF77CFA7B689B6A1B78232B9D
:1044200011D17B68DB691A467B689B6A9A420AD97C
:104430007B68DB691A467B689B6A19467B68DB6A86
:104440000B449A420CD97B6819461048FFF722F9B1
:1044500001F0ECFA0346FB60FB68002BFCD10DE099
:104460007B68DB691A467B689B6A20339A4205D8D1
:104470007B6819460648FFF70DF9FFE700BF1037C4
:10448000BD4680BD38730100D0720100E4720100A6
:1044900000730100B0B582B000AF7860094B1B68B3
:1044A000184601F0C9FD0346013B1C46064B53F874
:1044B0003430A3F114057B681C602B46184608377E
:1044C000BD46B0BDD00B0020D00A002098B500AF8B
:1044D000094B00221A80002406E0E300074A134437
:1044E0001846FFF735FF01341F2CF6DD044B002280
:1044F0001A6000BF98BD00BFD40B0020D00A002076
:10450000D00B002090B583B000AF3B1D1846FFF7DD
:10451000C1FF0446084B1C60204600F033F903231A
:1045200084F8343004F11C03184601F0CCFA00BFC3
:104530000C37BD4690BD00BFD80B002080B586B0BB
:1045400000AF01F073FAF8605C4BB3F90030002B58
:1045500040F0AC805A4B1B68002B00F0A780002372
:104560003B613B1D1846FFF795FF7861554B1B6873
:1045700093F8343003F00703032B2CD1514B1B6805
:1045800093F835301A467B689A4203D24D4B1B682C
:104590007B6115E04B4B1B6893F835301A467B68FE
:1045A0009A420BD1474B1B6893F8343003F0080351
:1045B000002B03D1434B1B687B6101E001233B616E
:1045C000404B1B6893F834203E4B1B6822F00802D6
:1045D000D2B283F834203B4B1B687A699A4250D0A0
:1045E0007B68DAB2384B1A70364B1B68BB60354AB1
:1045F0007B691360354B1B68002B04D0334B1B6861
:104600007969B86898473B69002B02D0B86800F018
:1046100063F8786900F0B6F87B6993F834305BB2E0
:1046200023F007035BB243F003035BB2DAB27B69AA
:1046300083F834207869FFF7E3FE254B1B78DBB263
:10464000002B14D1234B1B68002B03D0214B1B687C
:10465000B8689847BB681C331A467B691C331946F7
:10466000104601F0EAF9F86801F0E4F922E0BB68CD
:104670001C331A467B691C331946104601F0DDF9DC
:1046800014E0104B1B68184600F07CF80D4B1B68BB
:1046900093F834305BB223F007035BB243F00303BB
:1046A0005AB2084B1B68D2B283F83420F86801F084
:1046B000C1F900BF1837BD4680BD00BFD40B002034
:1046C000D00B0020D80B0020DC0B0020E00B0020DA
:1046D000FC090020E40B002090B583B000AF7860A7
:1046E0007B68002B05D140F2D22221492148FFF7F7
:1046F0000FF901F09BF904461F4B1B687A689A4238
:104700000ED17B6893F834305BB223F007035BB2C1
:1047100043F003035BB2DAB27B6883F8342020E015
:104720007B6893F834305BB223F007035BB243F04D
:1047300001035BB2DAB27B6883F834207B6893F8BC
:104740003530DB000D4A1A447B6814331946104695
:10475000FFF70FFE7B689A6B094B1B681343084AEF
:104760001360204601F066F900BF0C37BD4690BDCE
:1047700054730100D0720100D80B0020D00A002031
:10478000D00B002090B583B000AF78607B68002B21
:1047900005D140F2333213491348FFF7B9F801F05D
:1047A00045F904467B6814331846FFF7FBFD7B6828
:1047B00093F83530DB000D4A13441846FFF70DFE21
:1047C0000346002B07D07B689B6BDA43084B1B68C2
:1047D0001340074A1360204601F02CF900BF0C3744
:1047E000BD4690BD70730100D0720100D00A002058
:1047F000D00B002098B500AF01F018F90446074B24
:10480000B3F900309BB201339BB21AB2034B1A804A
:10481000204601F00FF900BF98BD00BFD40B002067
:1048200098B500AF01F002F90446104BB3F900301F
:104830009BB2013B9BB21AB20C4B1A800B4BB3F9E3
:104840000030002B0CDC094B00221A80204601F0BE
:10485000F1F8074B1B68002B05D0FFF76FFE02E055
:10486000204601F0E7F800BF98BD00BFD40B002040
:10487000D80B002080B400AF044BB3F900309BB2DA
:104880001846BD465DF8047B704700BFD40B00207E
:1048900080B483B000AF78607B687A685A607B68C8
:1048A0005A687B681A6000BF0C37BD465DF8047B10
:1048B000704780B483B000AF78607B681B687A680B
:1048C00052685A607B685B687A6812681A607B6815
:1048D0007A685A607B685A687B681A6000BF0C3738
:1048E000BD465DF8047B704790B583B000AF00F023
:1048F00019F9786001F09AF804467868FFF742FFEA
:104900007B684C33184600F0E3FC7B68042283F894
:1049100034207868FDF734FB204601F08BF8FFF770
:104920000DFE00BF0C37BD4690BDFFFF90B585B0B2
:1049300000AF78607B68FB60FB68002B04D18722A6
:1049400019491A48FEF7E4FFFB6893F8343003F086
:104950000703022B04D0882213491548FEF7D8FF1D
:10496000F868FFF781FC0346012B04D089220E4929
:104970001048FEF7CDFF01F059F80446FB686FF0D0
:1049800001021A63FB6814331846FFF792FFF868B8
:10499000FFF7A2FE204601F04DF8FFF7CFFD00BF64
:1049A0001437BD4690BD00BF2C7501008C7301000B
:1049B000A0730100DC73010080B586B002AFF8601F
:1049C000B9607A603B60FB6814331846FFF760FFFC
:1049D000FB687A681A62FB683A685A62FB68BA69CF
:1049E0009A62FB68FA69DA62FB68986AFB68DB6ABC
:1049F0001A462321FEF790F8FB68186AFB68596A8B
:104A0000FB689A6AFB68DB6A043B1A44244B01F09A
:104A1000ABF80246FB68DA6197F820301F2B04D907
:104A2000BE2220492048FEF773FFFB6897F820203C
:104A300083F83520FB6800229A63FB680022DA6362
:104A4000FB68002283F84020FB687A6A5A64FB689E
:104A50007A6A9A64FB6800221A63FB68002283F872
:104A60003420FB6800229A67FB680022DA67FB6843
:104A700003F14C00F9680023019300230093FB68C5
:104A80000A4A00F0E7FB0A4B1B68002B03D0084BD7
:104A90001B68F8689847002318461037BD4680BD4C
:104AA000E94800003C750100207401002D49000018
:104AB000F00B002080B588B004AFF860B9607A6070
:104AC0003B60FB68002B05D140F2311212491348BC
:104AD000FEF71EFFBB69002B05D14FF499720E49FA
:104AE0000F48FEF715FFBA680121F868FFF760FA72
:104AF0007B6A039397F820300293FB690193BB69AB
:104B000000933B687A68B968F868FFF755FF034679
:104B100018461037BD4680BD4C7501008C730100EE
:104B20004474010080B400AF034B1B681846BD46B7
:104B30005DF8047B704700BFD80B002080B582B0C1
:104B400000AF78607B68002B05D14FF4B2721C492E
:104B50001C48FEF7DDFE7B6893F8343003F0070352
:104B6000002B05D040F2651215491748FEF7D0FE1C
:104B70007868FFF779FB0346012B05D04FF4B37239
:104B80000F491248FEF7C4FE7B6893F835301A4689
:104B9000012393401A467B689A637B68022283F85C
:104BA0003420786800F03EFAFFF7BCFF0346002B84
:104BB00001D0FFF7C3FC002318460837BD4680BD6F
:104BC0005C7501008C7301005C740100DC730100F2
:104BD00080B584B000AF78607B68002B05D140F2CF
:104BE0008F1223492348FEF793FE7868FFF73CFBBA
:104BF0000346012B05D04FF4C8721D491E48FEF72D
:104C000087FE7868FFF712FB0346002B05D140F2C0
:104C1000911217491948FEF77BFE7B6893F83430F0
:104C200003F00703042B01D100231CE07B6893F8F9
:104C3000343003F00703002B02D07868FFF7A2FDA1
:104C400000F0F4FEF8607B684C33184600F040FB3F
:104C50007B68042283F834207868FDF791F9F868BE
:104C600000F0E8FE002318461037BD4680BD00BFA7
:104C7000707501008C730100DC73010094740100F5
:104C800080B58AB004AFF860B9607A603B60F968BB
:104C90000120FFF721FA78617B69002B01D1002305
:104CA0001BE03868FEF7C0FD38613B69002B04D17A
:104CB0007869FFF77DFA00230FE07B6A039397F88A
:104CC000203002933B6801933B6900937B68BA688C
:104CD000F9687869FFF770FE7B6918461837BD469A
:104CE00080BDFFFF80B584B000AF78607B68002B8B
:104CF00005D14FF4FB7223492348FEF709FE78687B
:104D0000FFF7B2FA0346012B05D040F2F7121D4916
:104D10001E48FEF7FDFD7868FFF788FA0346002B72
:104D200005D04FF4FC7217491948FEF7F1FD7B6876
:104D300093F8343003F00703042B01D100231CE067
:104D40007B6893F8343003F00703002B02D07868B7
:104D5000FFF718FD00F06AFEF8607B684C331846D8
:104D600000F0B6FA7B68042283F834207868FDF7F7
:104D700007F9F86800F05EFE002318461037BD46BC
:104D800080BD00BF847501008C730100DC730100DD
:104D9000C474010090B585B000AF7860FFF7C2FE23
:104DA000F860FB68002B05D140F23F221B491C48EC
:104DB000FEF7AEFDF868FFF757FA0346012B05D062
:104DC0004FF4107215491748FEF7A2FD00F02EFEB1
:104DD0000446FB6800221A63F86800F0BFF8FB681D
:104DE0004C333A1D0021184600F016FCFB684C338A
:104DF000184600F0B5FA204600F01CFEFFF79EFBB7
:104E0000FB681B6B13F1020F02D1FB6800221A63CF
:104E1000FB681B6B18461437BD4690BD98750100A2
:104E20008C730100DC73010080B582B000AF786044
:104E30007868FFF7AFFF034618460837BD4680BDC8
:104E400080B584B000AF78607868FCF795FDF860B5
:104E5000F868FFF79FFF034618461037BD4680BD30
:104E600090B587B000AFF860B9607A60FB68002B3E
:104E700005D140F2D52236493648FEF749FDF8689B
:104E8000FFF7F2F90346012B05D040F2D622304954
:104E90003148FEF73DFDBB68022B09D0BB68022BF1
:104EA0004FDCBB68002B34D0BB68012B36D048E008
:104EB00000F0BCFD0446FB6893F8343003F00703B0
:104EC000012B14D1F868FFF75DFC7B681A78FB684A
:104ED00083F83520FB6893F835301A460123934058
:104EE0001A46FB689A63F868FFF7F6FB0DE07B68EB
:104EF0001A78FB6883F83520FB6893F835301A463A
:104F0000012393401A46FB689A63204600F092FD05
:104F100018E0F868FFF712FE034614E0F868FFF7A0
:104F200085F90346012B04D1F868FFF751FE78613B
:104F300003E0F868FFF7D6FE7861FFF7FFFA7B69B8
:104F400001E000BF002318461C37BD4690BD00BFDE
:104F5000A87501008C730100DC73010090B583B06B
:104F600000AF78607B68002B05D140F24B322849B6
:104F70002848FEF7CDFC7868FFF776F90346012B49
:104F800005D04FF4537222492348FEF7C1FCFFF7C6
:104F9000C9FD02467B68934205D040F24D321C4960
:104FA0001E48FEF7B5FC7B6893F8343003F0070425
:104FB000012C04D0032C02D04FF0FF3324E000F08A
:104FC00035FD04467868FFF7DDFB7B6893F83430E5
:104FD0005BB223F007035BB243F002035BB2DAB2C9
:104FE0007B6883F834207B684C33184600F0CAFA9B
:104FF000204600F01FFD0A4B1B68002B03D0084B16
:105000001B6878689847002318460C37BD4690BD4A
:10501000BC7501008C730100DC7301001075010088
:10502000E80B002090B583B000AF78607B68002B60
:1050300005D140F279321D491D48FEF769FC7868B8
:10504000FFF712F90346012B05D040F27A321749D7
:105050001848FEF75DFC7B6893F8343003F00703D3
:10506000022B02D04FF0FF331BE000F0DFFC0446C0
:105070007B6814331846FFF71CFC7B684C331846DA
:1050800000F080FA7868FFF727FB204600F0D2FC9A
:10509000094B1B68002B03D0074B1B6878689847A7
:1050A000002318460C37BD4690BD00BFD0750100E7
:1050B0008C730100DC730100EC0B002080B483B022
:1050C00000AF78607B687A685A607B685A687B6852
:1050D0001A6000BF0C37BD465DF8047B704780B492
:1050E00083B000AF786039607B681B683A685A60AB
:1050F0007B681A683B681A607B683A681A603B688C
:105100007A685A6000BF0C37BD465DF8047B704773
:1051100080B483B000AF78607B681B687A6852689F
:105120005A607B685B687A6812681A607B687A6884
:105130005A607B685A687B681A6000BF0C37BD46AE
:105140005DF8047B704780B483B000AF78607B6803
:105150001B687A689A420CBF01230023DBB2184611
:105160000C37BD465DF8047B704780B586B000AF54
:10517000F860B9607A603B60FB6897F820205A724B
:10518000FB685B7A23F00103DAB2FB685A72FB68B2
:10519000BA68DA61FB687A681A62FB6800229A6270
:1051A000FB683A685A6200237B610BE07B6902333B
:1051B000DB00FA68134404331846FFF77FFF7B696E
:1051C00001337B617B69002BF0DD00BF00BF183726
:1051D000BD4680BD90B585B000AF7860396000F005
:1051E00025FC04467868FFF7AEFF0346002B0CD180
:1051F0007B681B68143BFB60FB689A6A3B681A601B
:10520000204600F017FC002304E0204600F012FCCA
:105210004FF0FF3318461437BD4690BD80B584B0BB
:1052200000AF78600023FB600BE0FB680233DB001B
:105230007A68134404331846FFF76AFFFB680133AA
:10524000FB60FB68002BF0DD00BF00BF1037BD46E0
:1052500080BDFFFF80B586B002AFF860B9607A60AC
:105260003B60FB68002B05D140F20F121449154832
:10527000FEF74EFB7B68002B05D14FF48872104976
:105280001148FEF745FBBB696FF00042934205D31E
:1052900040F211120A490D48FEF73AFBFB68BA6862
:1052A0000A211846FEF784FE3B7F0093BB693A68EB
:1052B0007968F868FFF759FF00BF1037BD4680BD19
:1052C000F4760100E4750100F87501000C76010028
:1052D00090B583B000AF78607B68002B05D14FF4A8
:1052E00093721B491B48FEF713FB7B681846FEF7B9
:1052F000BBFF03460A2B05D040F22712144916487B
:10530000FEF706FB7B681846FEF790FF0346002B6E
:1053100005D14FF494720E491048FEF7F9FA00F0E7
:1053200085FB04467868FFF779FF7B685B7A23F09A
:105330000103DAB27B685A72204600F07BFB7B687F
:105340001846FEF79BFE002318460C37BD4690BD5D
:1053500004770100E4750100247601006076010005
:10536000B0B588B000AF78607B68002B05D14FF4F2
:10537000CC727B497B48FEF7CBFA7B681846FEF778
:1053800073FF03460A2B05D040F299127449764800
:10539000FEF7BEFA002400F049FB05467868FFF7E7
:1053A0003DFF7B685B7A23F00103DAB27B685A72B7
:1053B0006E4B1B68002B04D06C4B1B687A68104640
:1053C0009847FCF78FFA02467B685B6A1A447B6851
:1053D0009A627B685B7A03F00403002B02D0644B73
:1053E000BB6101E0634BBB61BB69BB600023FB6138
:1053F00055E0FB699B0007F12002134453F8183C69
:105400001B683B61FB69DB0014335B423A69134460
:10541000FB60FB689A6A7B689B6A9A4209D0FB68CA
:105420009A6A7B689B6AD31A6FF0004293421FD33B
:1054300000E000BFFB699B0007F12002134453F812
:10544000183C1A68FB699B0007F120010B4443F8E4
:10545000182CFB699B0007F12002134453F8182C09
:10546000FB69DB00B9690B445B689A42C1D100E07B
:1054700000BFFB69002B0FD0FB699B0007F12002E6
:10548000134453F8182CFB69013308329B0007F1D1
:1054900020010B4443F8182CFB690133FB61FB69C5
:1054A000002BD6D0344B1B680133334A1360324B88
:1054B0001B687B61BA687B68143319461046FFF796
:1054C0000EFE0223FB611EE07B6903F00303002B49
:1054D0001DD1FB69C3F101039B0007F120021344B6
:1054E00053F8180CFB69C3F101030233DB007A683F
:1054F000134404331946FFF7F2FD7B699B087B6177
:10550000FB690133FB61FB69012BDDD900E000BFC2
:105510007B685B7A43F00103DAB27B685A727B687E
:105520005B7A03F00403002B0ED0144B1B78012B85
:105530000AD1134B93F8343003F00703022B03D145
:105540000F48FFF76FFD0124284600F073FA002C86
:1055500001D0FEF7F3FF002318462037BD46B0BD4B
:1055600014770100E475010024760100C80A0020C8
:10557000FC0B0020F40B00208C0E00200801002002
:10558000040C002090B583B000AF78607B68002BDE
:1055900005D14FF404721C491C48FEF7B9F97B6829
:1055A0001846FEF761FE03460A2B05D040F2112291
:1055B00015491748FEF7ACF97B685B7A03F00103E5
:1055C000002B02D14FF0FF3319E0124B1B68002B68
:1055D00004D0104B1B687A681046984700F026FAF2
:1055E00004467868FFF71AFE7B685B7A23F00103B4
:1055F000DAB27B685A72204600F01CFA0023184683
:105600000C37BD4690BD00BF24770100E475010052
:1056100024760100CC0A002090B585B000AFF86078
:10562000B9607A60FB68002B05D14FF40D723449E4
:105630003448FEF76DF9FB681846FEF715FE034681
:105640000A2B05D040F235222D492F48FEF760F98C
:1056500000F0ECF90446BB68052B47D801A252F8CC
:1056600023F000BF875600007D560000A9560000B9
:10567000B9560000C9560000E3560000FB685A6A9C
:105680007B681A6033E07B681B686FF000429342CE
:1056900005D340F23F221A491C48FEF739F97B68CE
:1056A0001A68FB685A6222E0FB685B7A23F0020307
:1056B000DAB2FB685A721AE0FB685B7A43F00203C5
:1056C000DAB2FB685A7212E0FB685B7A03F00103FE
:1056D000002B03D07B6801221A6002E07B68002265
:1056E0001A60FB689A6A7B681A6000E000BF204677
:1056F00000F0A0F9002318461437BD4690BD00BF46
:1057000034770100E475010024760100C4760100BD
:1057100090B585B000AF3B461846FFF7CFFCFCF7CD
:10572000E1F8F86000F082F904465FE0374B1B684F
:10573000143BBB60BB689B6AFA68D31A6FF00042E7
:1057400093425AD2324B1B68002B03D0304B1B685C
:10575000B8689847B868FFF761FDBB685B7A03F0EB
:105760000203002B06D1BB685B7A23F00103DAB297
:10577000BB685A72BB6803F114023B4611461846D7
:10578000FFF7ADFCBB68DB69BA68126A1046984740
:10579000FCF7A8F8F8601F4B1B68002B03D01D4BCB
:1057A0001B68B86898473B461846FFF7CCFC034691
:1057B000002B00D01AE0BB6814331846FFF7A8FC92
:1057C000BB685B7A03F00203002B0FD0BB685B7AE7
:1057D00003F00103002B09D0BB685B7A23F00103BF
:1057E000DAB2BB685A72B868FFF7BAFD0748FFF72C
:1057F000AAFC0346002B99D000E000BF204600F031
:1058000019F900BF1437BD4690BD00BFF40B00204E
:10581000840E0020880E002090B585B000AF3B4676
:105820001846FFF74BFC00F001F904466BE03D4BD6
:105830001B68143BFB60FCF755F8B860FB689B6A7B
:10584000BA68D31A6FF00042934263D2364B1B689A
:10585000002B03D0344B1B68F8689847F868FFF7B3
:10586000DDFCFB685B7A03F00203002B06D1FB68CA
:105870005B7A23F00103DAB2FB685A72FB6803F12A
:1058800014023B4611461846FFF729FC274B00221D
:105890001A70204600F0CEF8FB68DB69FA68126ADD
:1058A00010469847224B1B68002B03D0204B1B68E7
:1058B000F868984700F0BAF804461C4B01221A70A9
:1058C0003B461846FFF73FFC0346002B00D01AE08A
:1058D000FB6814331846FFF71BFCFB685B7A03F088
:1058E0000203002B0FD0FB685B7A03F00103002B4F
:1058F00009D0FB685B7A23F00103DAB2FB685A72C5
:10590000F868FFF72DFD0748FFF71DFC0346002B45
:105910008DD000E000BF204600F08CF800BF1437A7
:10592000BD4690BDFC0B0020840E00200801002025
:10593000880E002080B584B000AF786007F10803BE
:1059400019461248FFF746FC0346002B08D0FFF724
:10595000E9F803461846FFF701FBFEF7EFFD11E0FB
:10596000FBF7C0FFF860BA68FB68D31A6FF000421B
:10597000934207D2BA68FB68D31ABB60BB6818466B
:10598000FFF752FAFFF748FFD8E700BFFC0B0020F3
:1059900080B582B000AF00237B6009E07B68DB004C
:1059A000074A13441846FFF789FB7B6801337B6085
:1059B0007B68002BF2D000BF00BF0837BD4680BD1A
:1059C000F40B002080B586B004AF00237B6009E0B3
:1059D0007B68DB00104A13441846FFF76FFB7B68B7
:1059E00001337B607B68002BF2D00A2303930423EE
:1059F00002934FF400730193084B00930023084A6D
:105A000008490948FFF756F80748FFF797F800BF1D
:105A10000837BD4680BD00BFFC0B0020840C002071
:105A200035590000EC760100040C0020EFF31080E3
:105A300072B6704780F310887047444A1368012B90
:105A400004D04FF001031360414A1060414A1160D5
:105A500041484FF0805101607047EFF3108272B6F9
:105A60003A48016851B34FF00001016038480168BD
:105A700091B1EFF309811EF0100F08BF21ED108BDB
:105A800021E9F00F4FF000041EF0100F08BF0124B1
:105A900041F8044D006801602E490968096808C989
:105AA000B1E8F00F002B18BFB1EC108B81F309881F
:105AB0004EF0100E002B18BF2EF0100E82F310883F
:105AC0004EF0040E704723490860EFF3148222F071
:105AD000040282F314881E494FF0000008601B493D
