:10000000F81900205D8F0000DD8C0000F14C00002D
:100010006B8F00006B8F00006B8F00006B8F0000F8
:100020000000000000000000000000006B8F0000D6
:100030006B8F0000000000003B4C0000319100007D
:10004000CB730000FB72000087740000D1740000C5
:10005000997F0000CB730000FB72000087740000E2
:10006000D17400000000000000000000000000004B
:100070000000000000000000000000000000000080
:100080000000000000000000000000000000000070
:100090000000000000000000000000000000000060
:1000A0000000000000000000000000000000000050
:1000B0000000000000000000000000000000000040
:1000C0000000000000000000000000000000000030
:1000D0000000000000000000000000000000000020
:1000E0000000000000000000000000000000000010
:1000F0000000000000000000000000000000000000
:1001000000000000000000000000000000000000EF
:1001100000000000000000000000000000000000DF
:1001200000000000000000000000000000000000CF
:1001300000000000000000000000000000000000BF
:1001400000000000000000000000000000000000AF
:10015000000000000000000000000000000000009F
:10016000000000000000000000000000000000008F
:10017000000000000000000000000000000000007F
:10018000000000000000000000000000000000006F
:10019000000000000000000000000000000000005F
:1001A000000000000000000000000000000000004F
:1001B000000000000000000000000000000000003F
:1001C000FFFFFFFFFFFFFFFFFFFFFFFFFFFFFFFF3F
:1001D000FFFFFFFFFFFFFFFFFFFFFFFFFFFFFFFF2F
:1001E000FFFFFFFFFFFFFFFFFFFFFFFFFFFFFFFF1F
:1001F000FFFFFFFFFFFFFFFFFFFFFFFFFFFFFFFF0F
:1002000010B5054C237833B9044B13B1044800E012
:1002100000BF0123237010BD28060020000000004D
:1002200058CD000008B5034B1BB10349034800E05B
:1002300000BF08BD000000002C06002058CD0000C3
:1002400080B582B000AF00237B602D4B01221A7075
:100250002C4806F021F803461A462B4B1A602B480F
:1002600006F01AF803461A46294B1A60294806F088
:1002700013F803461A46284B1A60284806F00CF873
:1002800003461A46264B1A601F4B1B68002118466E
:1002900005F0C2FF1E4B1B680021184605F0BCFF8D
:1002A0001D4B1B680021184605F0B6FF1C4B1B6850
:1002B0000021184605F0B0FF134B1B6800211846BB
:1002C00005F0CAFF124B1B680021184605F0C4FF59
:1002D000114B1B680021184605F0BEFF104B1B6830
:1002E0000021184605F0B8FF0E4802F01DFB00F093
:1002F0002DFB78607B6818460837BD4680BD00BF7F
:100300000000002018AA00004406002020AA0000D7
:100310004806002028AA00004C06002030AA000051
:100320005006002038AA000080B584B000AF786085
:1003300039600023FB600A4B00221A70094B1B68CE
:100340000021184606F0A0F8074B1B68002118464C
:1003500006F09AF8FB6818461037BD4680BD00BF0E
:1003600000000020540600205806002080B582B00E
:1003700000AF00237B600A4B01221A70094B1B68F7
:100380000021184606F0ADF8074B1B6800211846FF
:1003900006F0A7F87B6818460837BD4680BD00BF49
:1003A00000000020540600205806002080B582B0CE
:1003B00000AF00237B601A4B1B680021184605F034
:1003C0004BFF184B1B680121184605F045FF164BE3
:1003D0001B680021184605F03FFF144B1B680121E4
:1003E000184605F039FF124B1B681249184600F0F9
:1003F0000DFB114B1B680F49184600F007FB0C4B17
:100400001B680021184606F03FF80B4B1B680021C3
:10041000184606F039F87B6818460837BD4680BD97
:1004200044060020480600204C060020500600200C
:100430005406002000350C005806002080B582B01C
:1004400000AF00237B601A4B1B680121184605F0A2
:1004500003FF184B1B680021184605F0FDFE164BE4
:100460001B680121184605F0F7FE144B1B6800219C
:10047000184605F0F1FE124B1B681249184600F0B1
:10048000C5FA114B1B680F49184600F0BFFA0C4B18
:100490001B680021184605F0F7FF0B4B1B68002175
:1004A000184605F0F1FF7B6818460837BD4680BD49
:1004B00044060020480600204C060020500600207C
:1004C0005406002000350C005806002080B582B08C
:1004D00000AF00237B6003F07DFA1B4B1B680021FB
:1004E000184605F0B9FE194B1B680121184605F0A6
:1004F000B3FE174B1B680121184605F0ADFE154BE6
:100500001B680021184605F0A7FE134B1B68134912
:10051000184600F07BFA124B1B681049184600F091
:1005200075FA0D4B1B680021184605F0ADFF0C4B0A
:100530001B680021184605F0A7FF03F061FA7B68ED
:1005400018460837BD4680BD4406002048060020F6
:100550004C060020500600205406002000350C00F8
:100560005806002080B582B000AF00237B6003F006
:1005700031FA1B4B1B680121184605F06DFE194B23
:100580001B680021184605F067FE174B1B68002109
:10059000184605F061FE154B1B680121184605F051
:1005A0005BFE134B1B681349184600F02FFA124BE1
:1005B0001B681049184600F029FA0D4B1B680021F2
:1005C000184605F061FF0C4B1B680021184605F02A
:1005D0005BFF03F015FA7B6818460837BD4680BDFF
:1005E00044060020480600204C060020500600204B
:1005F0005406002000350C005806002080B586B057
:1006000000AF0023BB602A4B1B682A49184600F044
:10061000FDF9294B1B682949184600F0F7F92848CD
:1006200002F082F900237B611AE000233B6110E0B5
:100630000023FB6007E000237B607B6801337B6065
:10064000FB680133FB60FB68042BF4DD3B6901337D
:100650003B613B69B3F57A7FEADB7B6901337B6100
:100660007B69B3F57A7FE0DB164802F05DF9104B49
:100670001B68154A92F82C20114642F2107201FBB9
:1006800002F21146184600F0C1F90B4B1B680E4AE6
:1006900092F82D20114642F2107201FB02F211462F
:1006A000184600F0B3F9BB6818461837BD4680BD40
:1006B00054060020305705005806002040420F0025
:1006C00054AA000060AA00000000002080B586B097
:1006D00000AF0023BB602A4B1B682A49184600F074
:1006E00095F9294B1B682949184600F08FF92848CD
:1006F00002F01AF900237B611AE000233B6110E04D
:100700000023FB6007E000237B607B6801337B6094
:10071000FB680133FB60FB68042BF4DD3B690133AC
:100720003B613B69B3F57A7FEADB7B6901337B612F
:100730007B69B3F57A7FE0DB164802F0F5F8104BE1
:100740001B68154A92F82C20114642F2107201FBE8
:1007500002F21146184600F059F90B4B1B680E4A7D
:1007600092F82D20114642F2107201FB02F211465E
:10077000184600F04BF9BB6818461837BD4680BDD7
:100780005406002040420F00580600203057050054
:1007900054AA000070AA00000000002080B58EB0AE
:1007A00000AF786039600023FB610023BB61002348
:1007B0007B613B6804331B68184609F085FD0346DE
:1007C000BB613B6808331B68184609F07DFD034692
:1007D0007B6103F0FFF8494B1B680021184605F0C8
:1007E0003BFD474B1B680121184605F035FD454B85
:1007F0001B680121184605F02FFD434B1B680021A3
:10080000184605F029FD414B1B684149184600F088
:10081000FDF8404B1B683E49184600F0F7F83B4B8B
:100820001B680021184605F02FFE3A4B1B6800217B
:10083000184605F029FE00237B631AE000233B6382
:1008400010E00023FB6207E00023FB60FB6801333C
:10085000FB60FB6A0133FB62FB6A052BF4DD3B6B3B
:1008600001333B633B6BBA699A42EAD87B6B013335
:100870007B637B6BB3F57A7FE0DB204B1B68012148
:10088000184605F0E9FC1E4B1B680021184605F0D0
:10089000E3FC1C4B1B680121184605F0DDFC1A4BDC
:1008A0001B680021184605F0D7FC0023BB621AE044
:1008B00000237B6210E000233B6207E000233B61E2
:1008C0003B6901333B613B6A01333B623B6A032B6B
:1008D000F4DD7B6A01337B627B6A7A699A42EAD8EB
:1008E000BB6A0133BB62BB6AB3F57A7FE0DB03F01E
:1008F00087F8FB6918463837BD4680BD440600209E
:10090000480600204C060020500600205406002017
:1009100000350C005806002080B500AF0A4802F0F0
:1009200003F801214FF4837005F096FC4FF4FA7040
:1009300003F076FB00214FF4837005F08DFC4FF43B
:10094000FA7003F06DFBECE780AA000080B582B07E
:1009500000AF224800F019FB0346214A13602148EA
:1009600000F013FB0346204A13601D4B1B68002B4D
:1009700011D01B4B18681D4B1A681D4B1B680021BA
:1009800005F0DCFD78607B68002B07DA7968194890
:1009900001F0CAFF02E0184801F0C6FF00237B60A7
:1009A000114B1B68002B11D00F4B1868134B1A68A2
:1009B000134B1B68002105F0C1FD78607B68002B9C
:1009C00007DA79680F4801F0AFFF02E00E4801F046
:1009D000ABFF7B6818460837BD4680BDF8AA00000B
:1009E0005406002000AB0000580600204400002000
:1009F0004800002008AB000018AB00004C000020AD
:100A00005000002028AB000038AB000080B584B057
:100A100000AF786039600023FB607B68002B04D155
:100A200065220849084802F063F83B68074A00213C
:100A3000786805F083FDF860FB6818461037BD46FE
:100A400080BD00BF90AB000088AB000040420F00AB
:100A500080B584B000AF786039600023FB60054B3F
:100A60001B68184600F008FFF860FB68184610374E
:100A7000BD4680BD5C06002080B582B000AF00237B
:100A8000FB7106E00B4B1B684FF0FF31184600F07E
:100A90002BFE094B1868FA1D01234FF0FF3100F0BF
:100AA00053FB0346012BEDD1FB7918460837BD46B1
:100AB00080BD00BF5C060020E00A002080B584B045
:100AC00000AF78600023FB60FFF7D6FFF860F9689D
:100AD000374801F029FF374801F026FF364801F07A
:100AE00023FF364801F020FF354801F01DFF35484F
:100AF00001F01AFF344801F017FFFB68002B54DBAC
:100B0000FB68662B02D0FB68462B0AD102F062FF1D
:100B1000FFF74CFC02F074FFF9682C4801F004FF69
:100B200044E0FB68622B02D0FB68422B0AD102F042
:100B300051FFFFF783FC02F063FFF968244801F0DE
:100B4000F3FE33E0FB686C2B02D0FB684C2B0AD120
:100B500002F040FFFFF7BAFC02F052FFF9681D48AF
:100B600001F0E2FE22E0FB68722B02D0FB68522B00
:100B70000AD102F02FFFFFF7F5FC02F041FFF96800
:100B8000154801F0D1FE11E0FB68702B02D0FB6824
:100B9000502B99D102F01EFFFFF7E8FB02F030FF67
:100BA000F9680E4801F0C0FE00E000BF8CE700BF0E
:100BB000A0AB0000B4AB0000D8AB000008AC000054
:100BC00038AC000068AC000098AC0000C8AC000075
:100BD000DCAC0000F0AC000000AD000010AD000087
:100BE00080B586B004AF334B4FF4E1321A60314A1E
:100BF0001379082161F3030313712E4A13796FF3FC
:100C0000051313712B4A5368802161F399235360B4
:100C1000284A13796FF387131371002200212648A5
:100C200000F00CFD0346254A1360254800F0ADF99D
:100C30000346244A1360234B1B68002B07D1214B2A
:100C40001B681946204801F06FFE01232EE01D4B62
:100C50001B6840F24311184600F0A4F9194B1B68B9
:100C6000144A0321184600F0F7FA164B1B6817497F
:100C7000184600F025FB134B18683A1D0423002189
:100C800000F0A6FA4FF47A7303930F2302934FF404
:100C9000806301930E4B009300230E4A0E490F48C8
:100CA00002F0F8FF0D4803F039F800231846083722
:100CB000BD4680BD5400002020AD00005C06002031
:100CC00030AD0000E00A002038AD0000510A0000FD
:100CD000E0060020BD0A00004CAD000060060020C8
:100CE00080B400AF034B1B681846BD465DF8047B1B
:100CF000704700BFE40A002080B582B000AF1B4BF4
:100D00001B68002B02D0194B1B68984703F07EFF2D
:100D10007860174B1B680133154A136002F0F2FF2D
:100D200038603B689B6C5A1E3B689A643B689B6CBE
:100D3000002B12D13B685A6C3B689A643B6893F86D
:100D4000343043F00803DAB23B6883F83420786823
:100D500003F060FF02F0E2FC02E0786803F05AFF63
:100D600003F0C6FD00BF0837BD4680BDE80A00207D
:100D7000E40A002080B485B000AF78607B68002B67
:100D800003DA4FF0FF33FB6027E07B68164A82FBF3
:100D900003129211DB17D31A4FF47A7202FB03F39A
:100DA000FB607A68104B83FB02139911D317CB1A9F
:100DB0004FF47A7101FB03F3D31A4FF47A7202FBFA
:100DC00003F303F2E733084A82FB03129211DB17A5
:100DD000D31A1A46FB681344FB60FB6818461437A5
:100DE000BD465DF8047B7047D34D621080B400AF00
:100DF00000231846BD465DF8047B704780B400AF01
:100E000000231846BD465DF8047B704780B400AFF0
:100E100000231846BD465DF8047B704780B400AFE0
:100E200000231846BD465DF8047B704780B582B04C
:100E300000AF094B7B6005E07B681B6898477B68C7
:100E400004337B607B68054A9342F5D300BF00BF43
:100E50000837BD4680BD00BF00AA000008AA0000F8
:100E600080B582B000AF094B7B6005E07B681B68F2
:100E700098477B6804337B607B68054A9342F5D3CF
:100E800000BF00BF0837BD4680BD00BF08AA0000F4
:100E900014AA000080B500AF00F036F80023184611
:100EA00080BD80B582B000AF7860FFF7D9FF05F054
:100EB00020FF00BF0837BD4680BDFFFF80B584B06E
:100EC00002AF142301930A2300934FF4006300221E
:100ED00009490A4802F0C4FF78607B68002B04D1FE
:100EE000D5220749074801F003FE786802F016FF93
:100EF00000BF0837BD4680BDA30E00005CAD0000FA
:100F000074AD000064AD000080B500AF03F07EFE5C
:100F100008F018F901F0ECF803F02AFE02F0C6FB25
:100F2000FFF7CCFF03F03EFE00F0A0FA02F0DAFB80
:100F30000023184680BD80B584B000AFF860B9606A
:100F40001346FB80FB68002B02D14FF0FF3318E003
:100F5000B86800F01AF80346002B02D04FF0FF33B8
:100F60000FE0FB68BA680921184602F011F9FB6826
:100F7000FA88DA82FB6800229A76FB6800221A83DC
:100F8000002318461037BD4680BD80B582B000AF43
:100F900078600921786802F071FA0346184608372C
:100FA000BD4680BD80B584B000AF78600B467B80C5
:100FB0000023FB607B68002B04D1D02237493848DE
:100FC00001F096FD7B68184602F03EFA0346092BB5
:100FD00004D0D1223149334801F08AFD7B68DB8A95
:100FE00003F01003002B14D17B685B6A002B09D03F
:100FF0007B685B6A78689847F860FB68002B01D0D3
:10100000FB6847E07B68DB8A43F010039AB27B6899
:10101000DA827B68DB8A03F00803002B08D07B6848
:101020001B8B03F00803002B02D06FF0060331E0A6
:101030007B689B6A002B07D07B689B6A7A88114685
:1010400078689847F86007E07B8823F0F0031B0579
:101050001B0D9AB27B681A83FB68002B03D0FB68D8
:1010600013F1060F15D17B681B8B43F008039AB26E
:101070007B681A837B689B7E0133DAB27B689A7641
:101080007B689B7E002B04D1FF220449064801F0B7
:101090002FFDFB6818461037BD4680BD44AE0000EA
:1010A00088AD000098AD000030AE000080B584B07F
:1010B00000AF78600023FB607B68002B05D14FF404
:1010C00089721E491E4801F013FD7B68184602F024
:1010D000BBF90346092B05D040F2131217491948F2
:1010E00001F006FD7B689B7E002B02D14FF0FF33A1
:1010F0001FE07B689B7E013BDAB27B689A767B6857
:101100009B7E002B01D0002313E07B68DB6A002B61
:1011100004D07B68DB6A78689847F860FB68002B2E
:1011200003D0FB6813F1060F02D17B6800221A83FB
:10113000FB6818461037BD4680BD00BF54AE0000A6
:1011400088AD000098AD000090B585B000AFF860A4
:10115000B9607A603B60FB68002B05D14FF4A07248
:101160001849194801F0C4FCFB68184602F06CF9F4
:101170000346092B05D040F241121249134801F0F1
:10118000B7FCFB689B7E002B05D14FF0FF3000F0D1
:1011900043FE002311E0FB681B6B002B08D0FB68AB
:1011A0001C6B3B687A68B968F868A047034604E09E
:1011B0006FF0050000F030FE002318461437BD46DE
:1011C00090BD00BF64AE000088AD000098AD000087
:1011D00090B585B000AFF860B9607A603B60FB689D
:1011E000002B05D140F26B121849194801F080FC20
:1011F000FB68184602F028F90346092B05D04FF486
:10120000B6721249134801F073FCFB689B7E002BF9
:1012100005D14FF0FF3000F0FFFD002311E0FB6827
:101220005B6B002B08D0FB685C6B3B687A68B96825
:10123000F868A047034604E06FF0050000F0ECFDFD
:10124000002318461437BD4690BD00BF74AE0000A1
:1012500088AD000098AD000080B584B000AFF860A4
:10126000B9607A60FB68002B05D140F28F121149FA
:10127000114801F03DFCFB68184602F0E5F8034612
:10128000092B05D04FF4C8720A490C4801F030FC14
:10129000FB689B6B002B07D0FB689B6B7A68B96877
:1012A000F8689847034601E06FF0050318461037C9
:1012B000BD4680BD84AE000088AD000098AD000042
:1012C00080B582B000AF786039607B68002B05D1B3
:1012D00040F2AB120C490D4801F00AFC7B6818463D
:1012E00002F0B2F80346092B05D04FF4D672064936
:1012F000074801F0FDFB7B683A68DA610023184675
:101300000837BD4680BD00BF98AE000088AD000024
:1013100098AD000080B483B000AF786039607B681E
:101320001B683A685A607B681A683B681A607B6879
:101330003A681A603B687A685A6000BF0C37BD464D
:101340005DF8047B704780B483B000AF78607B6841
:101350001B687A6852685A607B685B687A681268B2
:101360001A607B687A685A607B685A687B681A6082
:1013700000BF0C37BD465DF8047B704780B582B076
:1013800000AF78607B68143319460348FFF7C2FF4B
:1013900000BF0837BD4680BD6000002090B583B017
:1013A00000AF00237B600D4B3B603B681B683A68D5
:1013B0009A420ED03B681B68143B7B6003F026FC0E
:1013C00004467B6814331846FFF7BDFF204603F040
:1013D00021FC7B6818460C37BD4690BD600000209C
:1013E00080B582B000AFFFF7D9FF78607B68002B33
:1013F0001BD07B689B6F3B603B68002B02D03B6837
:1014000078689847786802F001F80346012B03D109
:10141000786801F023FFE6E77B689B6A184601F0D5
:101420004BFB786801F0B4FFDDE700BF00BF083771
:10143000BD4680BD80B584B000AF78600023FB60FE
:101440000CE0094AFB6852F82330BB60BB68002BF4
:1014500001D0BB689847FB680133FB60FB68032B36
:10146000EFD9FFF7BDFFE9E76C0C002080B588B02D
:1014700004AF0023FB6024E03B1DFA6815491846C1
:1014800001F006FAFB68DB01134A9818FB681B029F
:10149000124A1344391D202203921F2202924FF454
:1014A00080720192009300230D4A02F0F3FBFB6867
:1014B000DB01094A1344184602F030FCFB68013393
:1014C000FB60FB68002BD7D000BF00BF1037BD46C4
:1014D00080BD00BFB4AE0000EC0A00206C0B002001
:1014E0003514000080B483B000AF78607B687A6800
:1014F0005A607B685A687B681A6000BF0C37BD462B
:101500005DF8047B704780B483B000AF78603960C9
:101510007B685B683A681A607B685A683B685A6007
:101520007B683A685A603B687A681A6000BF0C377B
:10153000BD465DF8047B704780B483B000AF78602F
:101540007B681B687A689A420CBF01230023DBB2D8
:1015500018460C37BD465DF8047B704780B582B0F5
:1015600000AF78607B6814331846FFF7BBFF002399
:1015700018460837BD4680BD80B586B000AFF8601C
:10158000B9601346FB71B86802F0D8FDFB79002BF7
:1015900002D0012B07D031E0BB6814331946F8683C
:1015A000FFF7B1FF31E0FB681B687B6117E07B69E7
:1015B000143B3B61BB6893F835203B6993F83530A9
:1015C0009A4209D23B6903F11402BB6814331946ED
:1015D0001046FFF798FF06E07B691B687B617A691C
:1015E000FB689A42E3D17A69FB689A420CD1BB68E6
:1015F00014331946F868FFF786FF05E0A322054972
:10160000054801F075FA00E000BF002318461837BE
:10161000BD4680BDB8B30000BCAE000080B584B04C
:1016200000AF78607B681B68143BFB60F86802F0D1
:10163000E9FD002318461037BD4680BD80B586B051
:1016400000AFF860B9601346FB71BB68B3F5803F2B
:1016500005D340F289121F491F4801F049FAFB796E
:10166000002B08D0FB79012B05D04FF4C572194926
:101670001A4801F03DFA03F0C9FA786100F0B8FBAE
:101680000346002B09D01349154801F04DF94FF4DA
:10169000C6721049134801F02BFA786903F0BAFAC0
:1016A000F968022001F008FE38613B69002B01D186
:1016B0003B690BE03B691846FFF750FFBB689AB2E5
:1016C0003B699A833B69FA795A723B691846183725
:1016D000BD4680BD9CB30000D0AE0000E4AE00006B
:1016E00098AF0000BCAE000090B587B000AF786046
:1016F00039607B68002B05D140F2E5125549564808
:1017000001F0F6F97B68184601F09EFE0346022BB5
:1017100005D04FF4F3724F49504801F0E9F9504BAE
:101720001B68002B04D04E4B1B687A681046984704
:1017300003F06CFA04467B689B8B002B09D07B6816
:101740009B8B013B9AB27B689A83204603F062FA36
:1017500071E03B68002B05D1204603F05BFA6FF087
:10176000010372E003F052FA786102F073F9034664
:10177000002B09D037493B4801F0D6F840F2062249
:101780003449394801F0B4F903F040FA386102F005
:10179000B9FA0346002B09D12E49344801F0C4F8A8
:1017A00040F206222B49304801F0A2F903F02EFA4C
:1017B000F86000F01DFB0346002B09D025492C489A
:1017C00001F0B2F840F206222249274801F090F9D0
:1017D000F86803F01FFA386903F01CFA786903F01F
:1017E00019FA02F08FFAB860BB6800221A637B68AE
:1017F00003F114007B685B7A1A46B968FFF7BCFEF8
:101800003B68002B0BDDBB684C333A460021184681
:1018100002F0F2FFBB684C33184602F091FE2046FE
:1018200003F0F8F901F07AFFBB681B6B002B02D0C4
:10183000BB681B6B09E00F4B1B68002B04D00D4BE2
:101840001B687A6810469847002318461C37BD4627
:1018500090BD00BFACB30000C0AE000020AF0000E0
:101860004C0D0020FCAF0000BCAE000028B0000012
:1018700098AF0000500D0020B0B582B000AF786086
:101880007B68002B05D140F25F222649264801F0F3
:101890002FF97B68184601F0D7FD0346022B05D0CF
:1018A0004FF418721F49214801F022F9204B1B68A0
:1018B000002B04D01E4B1B687A6810469847002501
:1018C00003F0A4F904467B6814331846FFF734FE8E
:1018D0000346002B06D17B6814331846FFF79EFEA3
:1018E000012512E07B689B8B4FF6FF72934206D076
:1018F0007B689B8B01339AB27B689A8305E0204614
:1019000003F088F96FF0020307E0204603F082F944
:10191000012D01D101F002FF002318460837BD4612
:10192000B0BD00BFCCB30000C0AE000020AF0000CF
:10193000540D002080B584B000AFF860B960134644
:10194000FB71FB68002B05D140F2E62210491148DB
:1019500001F0CEF8FB68BA680321184601F018FCC4
:10196000FB681846FFF7FAFDFB6801229A83FB68C3
:1019700000221A62FB68FF229A77FB680022DA775E
:10198000FB6801225A72002318461037BD4680BDFD
:10199000DCB3000060B0000090B587B000AF7860A5
:1019A000396003F033F9786102F054F80346002BF4
:1019B00009D07749774800F0B7FF4FF46572744952
:1019C000754801F095F803F021F9386102F09AF9B1
:1019D0000346002B09D16E49704800F0A5FF4FF473
:1019E00065726B496C4801F083F803F00FF9F860F9
:1019F00000F0FEF90346002B09D06549684800F065
:101A000093FF4FF465726249634801F071F8F8681A
:101A100003F000F9386903F0FDF8786903F0FAF88B
:101A20007B68002B05D140F2973259495D4801F09F
:101A30005FF87B68184601F007FD0346032B05D0CD
:101A40004FF466725249584801F052F802F05AF9C0
:101A5000B86003F0DBF80446544B1B68002B04D03D
:101A6000524B1B687A6810469847BB6800221A637D
:101A70007B681B6ABA689A4210D17B68DB7FFF2BB8
:101A800006D07B68DB7F0133DAB27B68DA776DE002
:101A9000204603F0BFF86FF0020374E07B689B8B75
:101AA000002B1ED07B689B8B013B9AB27B689A838C
:101AB0007B68BA681A62BB6893F835207B689A77AE
:101AC0007B68DB7FFF2B06D07B68DB7F0133DAB2DC
:101AD0007B68DA774AE0204603F09CF86FF0020357
:101AE00051E03B68002B09D1BB686FF001021A631B
:101AF000204603F08FF86FF0010344E0BB6893F8D1
:101B000035207B681B6A93F835309A4207D27B6890
:101B1000186ABB6835331A46022102F091FA7B68D5
:101B200003F114007B685B7A1A46B968FFF724FD5D
:101B30003B68002B0BDDBB684C333A46002118464E
:101B400002F05AFEBB684C33184602F0F9FC2046FE
:101B500003F060F801F0E2FDBB681B6B002B02D0C4
:101B6000BB681B6B0FE003F051F80446204603F0FE
:101B700051F80F4B1B68002B04D00D4B1B687A6883
:101B800010469847002318461C37BD4690BD00BF3D
:101B9000ECB30000FCAF0000BCAE000028B00000B9
:101BA00098AF000060B0000074B000004C0D002041
:101BB000500D002090B587B000AF78607B68002B97
:101BC00005D140F244426349634800F091FF7B68CD
:101BD000184601F039FC0346032B05D040F245427C
:101BE0005C495E4800F084FF00237B6103F00EF83F
:101BF000386102F087F80346002B09D1554958484F
:101C000000F092FE40F24A425249564800F070FFFE
:101C100002F0FCFFF86000F0EBF80346002B09D05F
:101C20004C49514800F080FE40F24A4249494D4833
:101C300000F05EFFF86802F0EDFF386902F0EAFF9D
:101C400002F060F8B86002F0E1FF0446474B1B6801
:101C5000002B04D0454B1B687A68104698477B6878
:101C60001B6ABA689A4209D0BB684FF0FF321A6308
:101C7000204602F0CFFF4FF0FF3367E07B68DB7F49
:101C8000013BDAB27B68DA777B68DB7F002B54D1CB
:101C90007B689A7F7B681B6A93F835309A4207D03D
:101CA0007B68186A7B681E331A46022102F0C8F965
:101CB0007B6814331846FFF73FFC0346002B23D103
:101CC0007B685B69143BBB607B68BA681A62BB685F
:101CD00093F835207B689A777B68DB7FFF2B0DD0EC
:101CE0007B68DB7F0133DAB27B68DA777B68143399
:101CF0001846FFF793FC01237B611EE0204602F0AB
:101D000089FF6FF0020321E07B689B8B4FF6FF7227
:101D100093420CD07B689B8B01339AB27B689A8389
:101D20007B6800221A627B68FF229A7705E02046D2
:101D300002F070FF6FF0020308E0204602F06AFF35
:101D40007B69012B01D101F0E9FC002318461C3707
:101D5000BD4690BDFCB3000060B0000074B0000050
:101D600028B00000BCAE000098AF0000540D002069
:101D700080B582B000AF02F049FF78600A4B1B7853
:101D8000DBB20133DAB2084B1A70084B1B68002B28
:101D900002D0064B1B689847786802F03BFF00BFF3
:101DA0000837BD4680BD00BF840C00207C0C00209D
:101DB00080B582B000AF02F029FF78600A4B1B6843
:101DC000002B02D0084B1B689847084B1B78DBB2EE
:101DD000013BDAB2054B1A70786802F01BFF00BFB6
:101DE0000837BD4680BD00BF800C0020840C002059
:101DF00080B582B000AF02F009FF7860054B1B7818
:101E0000FB70786802F006FFFB7818460837BD467D
:101E100080BD00BF840C002080B584B000AF786026
:101E2000FFF7E6FF0346002B03D00A4A7B681360E6
:101E30000CE001F067FFF860FB68002B03D1054A56
:101E40007B68136002E0FB687A681A631037BD464E
:101E500080BD00BF880C002080B582B000AFFFF7C6
:101E6000C7FF0346002B01D0074B09E001F04AFFF2
:101E700078607B68002B02D07B68303300E0024B37
:101E800018460837BD4680BD880C002080B489B054
:101E900000AFF860B9607A60FB68FB61BB68DBB2D9
:101EA0007B617B68032B40D9FB6803F00303002BA5
:101EB0003BD1FB68BB617B691B027A6913433B61C1
:101EC0003B691B043A6913433B6116E0BB691A1D69
:101ED000BA613A691A60BB691A1DBA613A691A6037
:101EE000BB691A1DBA613A691A60BB691A1DBA61E9
:101EF0003A691A607B68103B7B607B680F2BE5D8E2
:101F000007E0BB691A1DBA613A691A607B68043B35
:101F10007B607B68032BF4D8BB69FB6105E0FB6940
:101F20005A1CFA617A69D2B21A707B685A1E7A60BA
:101F3000002BF4D1FB6818462437BD465DF8047BBE
:101F4000704780B48BB000AFF860B9607A60FB680E
:101F50007B62BB683B627B687B617B690F2B4DD9E1
:101F60003A6A7B6A134303F00303002B46D17B6A72
:101F7000FB613B6ABB6122E0BA69131DBB61FB696F
:101F8000191DF96112681A60BA69131DBB61FB69FA
:101F9000191DF96112681A60BA69131DBB61FB69EA
:101FA000191DF96112681A60BA69131DBB61FB69DA
:101FB000191DF96112681A607B69103B7B617B69AE
:101FC0000F2BD9D80AE0BA69131DBB61FB69191D33
:101FD000F96112681A607B69043B7B617B69032BA2
:101FE000F1D8FB697B62BB693B6207E03A6A531C2C
:101FF0003B627B6A591C796212781A707B695A1E9F
:102000007A61002BF2D1FB6818462C37BD465DF88B
:10201000047B704780B487B000AFF860B9607A6025
:102020007B68002B21D0FB687B61BB683B613A6910
:10203000531C3B617B69591C796112781A701B78BB
:10204000002B0CD104E07B695A1C7A6100221A70C3
:102050007B68013B7B607B68002BF4D105E07B68EB
:10206000013B7B607B68002BE1D1FB6818461C3785
:10207000BD465DF8047B704790B484B000AFF86053
:10208000B9607A60002413E0FB681A78BB68591CB9
:10209000B9601B78D31ADBB25CB2002C0BD1FB68A1
:1020A0005A1CFA601B78002B05D07B68013B7B60D3
:1020B0007B68002BE8D1234618461037BD4690BCFC
:1020C000704780B485B000AF78607B68FB6002E049
:1020D000FB680133FB60FB681B78002BF8D1FA68C2
:1020E0007B68D31A18461437BD465DF8047B7047E9
:1020F00080B582B002AF0B4800F016FC0A4800F031
:1021000013FC0A4B01930A4B009300230122042184
:10211000084800F009FC084800F006FC00BFBD4676
:1021200080BD00BF10B400001CB4000064B4000007
:1021300070B4000040B400007CB4000080B485B0EE
:1021400000AF786039603B680A2B17D17B681B6849
:102150001946134BA3FB0123DA0813469B001344D3
:102160005B00CA1AFA607B681B681A460C4BA3FB1B
:102170000223DB081A467B681A600AE07B681B684A
:1021800003F00F03FB607B681B681B091A467B6822
:102190001A60FB6818461437BD465DF8047B70472B
:1021A000CDCCCCCC90B482B000AF786000240DE0F0
:1021B00023469B0023445B0018467B681B68591C20
:1021C0007A6811601B780344A3F130047B681B68B4
:1021D0001B78303B092BEBD9234618460837BD4600
:1021E00090BC7047B0B58CB000AFF860B9607A6051
:1021F0003B607B6CBB623C6CBB6C03F04003002B10
:1022000001D06D4B00E06D4B7B62BB6C03F01003A3
:10221000002B03D0BB6C23F00103BB64BB6C03F049
:102220000103002B01D0302300E0202387F8233066
:10223000002387F82F30BB6C03F00203002B1AD069
:102240007B68002B06DA2D2387F82F307B685B42F2
:102250007B6010E0BB6C03F00403002B03D02B2346
:1022600087F82F3007E0BB6C03F00803002B02D087
:10227000202387F82F3000257B68002B19D12B46AF
:102280005D1C07F130021344302203F8202C13E0C8
:102290003B1D39681846FFF751FF03461A467B6A13
:1022A0001A442B465D1C127807F130010B4403F8E9
:1022B000202C7B68002BEBD17B6C9D4200DD7D6484
:1022C0007B6CE41ABB6C03F01103002B15D197F85B
:1022D0002F30002B0DD0002C0BDD013C09E0FA68FB
:1022E000BB689A4202D2FB6820221A70FB68013355
:1022F000FB6023465C1E002BF1DC97F82F30002B8F
:102300000BD0FA68BB689A4203D2FB6897F82F207B
:102310001A70013CFB680133FB60BB6C03F01003D7
:10232000002B1AD10AE0FA68BB689A4203D2FB6814
:1023300097F823201A70FB680133FB6023465C1E6C
:10234000002BF0DC09E0FA68BB689A4202D2FB6815
:1023500030221A70FB680133FB607B6C5A1E7A6472
:102360009D42F0DB0DE0FA68BB689A4206D207F1A5
:1023700030032B4413F8202CFB681A70FB680133E0
:10238000FB602B465D1E002B0DDDBB6A002BEAD1E6
:1023900009E0FA68BB689A4202D2FB6820221A70F0
:1023A000FB680133FB6023465C1E002BF1DCFB68FD
:1023B00018463037BD46B0BD18B500002CB500003A
:1023C00080B592B004AFF860B9607A603B60FB689A
:1023D000BB62FA68BB6813447B627A6AFB689A4204
:1023E00080F026824FF0FF337B627A6AFB68D31A53
:1023F000BB601DE27B681B78252B0BD0BA6A7B6A19
:102400009A4203D27B681A78BB6A1A70BB6A01339E
:10241000BB620AE20023BB777B6801337B607B6889
:102420001B782D2B04D1BB7F43F01003BB77F3E760
:102430007B681B782B2B04D1BB7F43F00403BB7755
:10244000EAE77B681B78202B04D1BB7F43F00803AD
:10245000BB77E1E77B681B78232B04D1BB7F43F07C
:102460002003BB77D8E77B681B78302B04D1BB7F78
:1024700043F00103BB77CFE700BF4FF0FF33BB61F1
:102480007B681B78303B092B05D83B1D1846FFF7AE
:1024900089FEB86115E07B681B782A2B11D17B6817
:1024A00001337B603B681A1D3A601B68BB61BB69E6
:1024B000002B06DABB695B42BB61BB7F43F01003B4
:1024C000BB774FF0FF337B617B681B782E2B1ED1CF
:1024D0007B6801337B607B681B78303B092B05D818
:1024E0003B1D1846FFF75EFE78610BE07B681B78AA
:1024F0002A2B07D17B6801337B603B681A1D3A6049
:102500001B687B617B69002B01DA00237B61002360
:102510007B777B681B78682B03D07B681B786C2BE0
:1025200005D17B681B787B777B6801337B600A234E
:10253000FB777B681B78252B00F00881252BC0F2E8
:102540001F81782B00F31C81582BC0F21981583B56
:10255000202B00F2158101A252F823F06927000018
:1025600081270000812700008127000081270000CB
:1025700081270000812700008127000081270000BB
:102580008127000081270000E12500007727000057
:10259000812700008127000081270000812700009B
:1025A0007727000081270000812700008127000095
:1025B0008127000081270000632700001527000005
:1025C00081270000812700004F260000812700009E
:1025D000BD2700008127000081270000712700002F
:1025E000BB7F03F01003002B10D109E0BA6A7B6AAD
:1025F0009A4202D2BB6A20221A70BB6A0133BB62C4
:10260000BB69013BBB61BB69002BEFDC3B681A1D5A
:102610003A601B68FB74BA6A7B6A9A4202D2BB6A50
:10262000FA7C1A70BB6A0133BB6209E0BA6A7B6A42
:102630009A4202D2BB6A20221A70BB6A0133BB6283
:10264000BB69013BBB61BB69002BEFDCEDE03B6884
:102650001A1D3A601B683B623B6A002B01D1824B1A
:102660003B620023FB6202E0FB6A0133FB62FA6A11
:10267000BB699A4205D0FB6A3A6A13441B78002B67
:10268000F2D17B69002B05DDFA6A7B699A4201DD94
:102690007B69FB62BB7F03F01003002B10D109E0C4
:1026A000BA6A7B6A9A4202D2BB6A20221A70BB6A5B
:1026B0000133BB62BB695A1EBA61FA6A9A42EFDB08
:1026C00000233B6310E0BA6A7B6A9A4203D23B6AFA
:1026D0001A78BB6A1A70BB6A0133BB623B6A01336A
:1026E0003B623B6B01333B633A6BFB6A9A42EADB2A
:1026F00009E0BA6A7B6A9A4202D2BB6A20221A7047
:10270000BB6A0133BB62BB695A1EBA61FA6A9A425C
:10271000EFDB8AE0BB69B3F1FF3F05D10823BB6162
:10272000BB7F43F00103BB773B681A1D3A601B680F
:102730001A46BB7F02937B690193BB690093102308
:10274000796AB86AFFF74EFDB8626EE0BA6A7B6AD2
:102750009A4202D2BB6A25221A70BB6A0133BB625D
:1027600063E00823FB772AE0BB7F43F04003BB779D
:102770001023FB7723E0BB7F43F00203BB771DE010
:10278000BA6A7B6A9A4202D2BB6A25221A70BB6A75
:102790000133BB627B681B78002B0BD0BA6A7B6A63
:1027A0009A4203D27B681A78BB6A1A70BB6A0133FB
:1027B000BB623AE07B68013B7B6036E000BF7B7F19
:1027C0006C2B09D13B681A1D3A601B687B63BB7F89
:1027D00003F00203002B1AE07B7F682B0ED13B68CD
:1027E0001A1D3A601B689BB27B63BB7F03F0020338
:1027F000002B0CD07B6B1BB27B6308E03B681A1D7F
:102800003A601B687B63BB7F03F00203002B7A6B8B
:10281000F97FBB7F02937B690193BB6900930B46F1
:10282000796AB86AFFF7DEFCB8627B6801337B60C7
:102830007B681B78002B7FF4DDADBB68002B0BD0D1
:10284000BA6A7B6A9A4203D2BB6A00221A7003E01A
:102850007B6A013B00221A70BA6AFB68D31A1846D9
:102860003837BD4680BD00BFA8B4000080B584B035
:1028700000AFF860B9607A607B68BA684FF0FF31EA
:10288000F868FFF79DFD034618461037BD4680BD2A
:102890000EB480B585B000AF786007F12003BB604F
:1028A000BA68F9697868FFF7E1FFF860FB681846D5
:1028B0001437BD46BDE8804003B0704780B584B092
:1028C00000AF7860124B1B68FB607868FEF75DFB19
:1028D000B860BA68FB689A4201D1002313E0BB6874
:1028E000002B0FD00A4B1B68002B04D0084B1B6831
:1028F0001846FEF7DBFB4321B868FEF753FB044A9A
:10290000BB681360FB6818461037BD4680BD00BF2A
:102910008C0C002080B483B000AF786000BF0C370F
:10292000BD465DF8047B70470FB480B582B000AF40
:1029300007F114033B603B683A697F211048FFF7B9
:102940003FFD03467B607B687F2B01D97F237B6043
:102950000C4B1B68002B03D10948FFF7DBFF06E097
:10296000084B18687B68064A0021FEF731FC7B683B
:1029700018460837BD46BDE8804004B0704700BF28
:10298000C40C00208C0C002080B500AF012203494C
:102990000348FEF7CFFF00BF80BD00BFB0B400000A
:1029A000980C002080B500AF01F0ACF90346002B75
:1029B00006D04FF0FF310448FEF7EEFF034600E07B
:1029C0000023184680BD00BF980C002080B582B05F
:1029D00000AF78607B68002B05D04FF4AC620849EB
:1029E000084800F085F801F08DF90346002B02D06D
:1029F0000548FFF7DFF800BF0837BD4680BD00BFC0
:102A000054B50000B8B40000980C002080B584B024
:102A100000AF786039607B68033323F00303FB6009
:102A20003B6823F00303BB60BA68FB689A4205D891
:102A300040F2B6520A490B4800F05AF8BA68FB68EF
:102A4000D31A1A467968084800F0F4F80346074A92
:102A50001360FFF799FF00BF1037BD4680BD00BF70
:102A600040B50000C8B40000B0B40000BC0C0020A9
:102A700080B584B000AF7860FFF794FFF8600C4B2E
:102A80001B687968184600F057F9B860F868FFF7D6
:102A90009DFF084B1B68002B04D0064B1B68796810
:102AA000B8689847BB6818461037BD4680BD00BF60
:102AB000BC0C0020900C002080B584B000AF786082
:102AC0000A4B1B68002B03D0084B1B68786898479B
:102AD000FFF768FFF860786800F062FAF868FFF7BF
:102AE00075FF00BF1037BD4680BD00BF940C0020AD
:102AF00080B586B000AFF860B9607A600023FB75DE
:102B00000C4B1B68002B0BD17B68BA68F9680A482C
:102B1000FFF70AFF00BFFB7DDBB2002BFBD005E017
:102B2000044B1B687A68B968F868984700BF183783
:102B3000BD4680BDC00C0020E0B4000080B584B06C
:102B400000AF786039607B689B6A3A689A4204D229
:102B5000822235493548FFF7CBFF7B68DB6A3A684C
:102B60009A4204D3832230493148FFF7C1FF7B6882
:102B70009A6A3B685B681344FB603A68FB689A4258
:102B800024D0FB681B6803F00103002B1ED17B6877
:102B9000DB6AFA689A4219D07B681B6BFA689A4222
:102BA00002D17B683A681A63FB6800221A60FB68EE
:102BB0005A683B685A607B689B6A3A68D11A7B689E
:102BC0009A6AFB685B6813440A469A607B689A6A53
:102BD0003B689B681344BB60BA683B689A421FD04D
:102BE000BB681B6803F00103002B19D17B681B6BCA
:102BF0003A689A4202D17B68BA681A633B6800223D
:102C00001A603B685A68BB685A607B689B6ABA68FE
:102C1000D11A7B689A6A3B685B6813440A469A60DB
:102C200000BF1037BD4680BD80B9000064B500000C
:102C300088B5000080B58AB000AFF860B9607A60EE
:102C4000BB68033323F003037B627B6A38333B6248
:102C50003B6A033323F00303FB61BA687B681344C8
:102C600023F00303BB61BB69182B53D9BB69183B25
:102C70003A6A9A424ED8BA69FB69D31A183B7B610B
:102C800038220021786AFFF701F97B6AFA680C2183
:102C9000184600F07DFA7B6A254A5A617B6AFA6918
:102CA0009A617B6A7A69DA617B6A7A695A63FA693E
:102CB0007B6A9A627B6A9B6A3B617B6A23F00102B2
:102CC0003B691A607B6A5B6B03F10C023B695A60DB
:102CD0003B6900229A607B6A9A6A3B695B681A4486
:102CE0007B6ADA627A6A7B6ADB6A42F001021A6006
:102CF0007B6A5A6B7B6ADB6A0C325A607B6A5A6B5E
:102D00007B6ADB6A0C329A607B6A9A6A7B6A1A6316
:102D10007B6A08E0B968BA687B6813441A460548BC
:102D2000FFF702FE002318462837BD4680BD00BFCE
:102D3000B8B50000C0B5000080B588B000AF7860BD
:102D400039603B68002B01D1002315E17B68002B23
:102D500005D14FF490728A498A48FFF7C9FE7B6813
:102D6000184600F071FB03460C2B05D040F22112EF
:102D700083498548FFF7BCFE7B68184600F046FB98
:102D80000346002B05D14FF491727D497F48FFF730
:102D9000AFFE7B68BB613B68033323F003033B60FA
:102DA000BB695B6B3A689A4201D90023E4E03B6857
:102DB0000B2B01D80C233B60BB691A6BBB699B6A68
:102DC000D31AFB61CFE0BB699A6AFB6913447B614C
:102DD0007B691B6803F00103002B40F0BE807B6918
:102DE0005A68FB69D31A0C3B3A689A4200F2B580E4
:102DF0007B695A68FB69D31AA3F10C023B6818334C
:102E00009A4239D3FA693B6813440C333B61BB697E
:102E10009A6A3B691344FB60BB6923F00102FB68BB
:102E20001A607B695A68FB685A60FB68FA699A60A5
:102E30007B693A695A60FB685A68BB695B6B0C3303
:102E40009A4206D0BB699A6AFB685B6813443A6988
:102E50009A60BB691A6A3B68134403F10C02BB69B0
:102E60001A62BB695A6ABB691B6A9A421AD2BB6969
:102E70001A6ABB695A6215E0BB691A6A7B695B68AA
:102E8000B969896A7869411A5B1A1A44BB691A627E
:102E9000BB695A6ABB691B6A9A4203D2BB691A6A48
:102EA000BB695A62BB6943F001027B691A60BB6966
:102EB0001B6B7A699A4228D107E0BB699A6ABB69A1
:102EC0001B6B5B681A44BB691A63BB691B6B1B688D
:102ED00003F00103002B05D0BB691A6BBB69DB6AE9
:102EE0009A42EAD1BB691A6BBB69DB6A9A420CD081
:102EF000BB691B6B1B6803F00103002B05D040F27C
:102F000083121F492248FFF7F3FD7A693B68134497
:102F10000C33BA69D26A934205D940F28512184936
:102F20001C48FFF7E5FD7B690C3303F00303002B1E
:102F300005D04FF4C37212491748FFF7D9FD7B69DA
:102F400003F00303002B05D040F287120C4913480D
:102F5000FFF7CEFD7B690C330EE0BB699A6AFB6913
:102F600013445B68FB61BB695A6B3B68D31AFA690F
:102F70009A427FF628AF002318462037BD4680BD11
:102F80008CB90000FCB500000CB6000048B600008B
:102F900070B60000C0B6000010B700005CB70000BB
:102FA00080B584B000AF78607B68002B00F0838030
:102FB0007B6803F00303002B05D04FF402724049F5
:102FC0004048FFF795FD7B680C3BFB60FB681B6886
:102FD00023F00103BB60BB68002B05D14FF40572E1
:102FE00037493948FFF784FDFB681B6803F001038C
:102FF000002B05D140F2152231493448FFF778FD06
:10300000BB68184600F020FA03460C2B05D040F2AE
:1030100016222B492E48FFF76BFDBB68184600F0BF
:10302000F5F90346002B05D140F21722244929481F
:10303000FFF75EFDBB689B6A7A689A4204D3BB685F
:10304000DB6A7A689A4205D34FF406721C4922481B
:10305000FFF74EFDBB689A6AFB685B6813441B6808
:1030600023F001031A46BB68934205D040F21A22AE
:1030700013491A48FFF73CFDBB6823F00102FB68C7
:103080001A60BB681B6BFA689A4202D2BB68FA6886
:103090001A63BB681A6ABB689B6AF968CB1A19463F
:1030A000FB685B68CB1A1A44BB681A62F968B86897
:1030B000FFF744FD00E000BF1037BD4680BD00BFF4
:1030C0009CB900008CB700002CB8000044B8000088
:1030D00054B800009CB80000D4B8000048B9000003
:1030E00080B483B000AF786039607B681B683A6851
:1030F0005A607B681A683B681A607B683A681A6095
:103100003B687A685A6000BF0C37BD465DF8047BA7
:10311000704780B483B000AF78607B681B687A68C2
:1031200052685A607B685B687A6812681A607B68CC
:103130007A685A607B685A687B681A6000BF0C37EF
:10314000BD465DF8047B704780B485B000AF034690
:10315000FB710023FB600FE00C4AFB681B0113446A
:103160001B78FA799A4204D1FB681B01074A134481
:1031700006E0FB680133FB60FB68082BECDD0023F5
:1031800018461437BD465DF8047B70476800002080
:1031900090B589B000AFF8600B467A60FB720023EF
:1031A000FB61FB7A1846FFF7CFFFB861BB69002BC4
:1031B00005D14FF4AB7225492548FFF799FC00F083
:1031C00009FCBB695B68FB6112E0FB690C3B7B613E
:1031D0007B69002B09D07A69FB689A4205D14FF4CC
:1031E000B3721A491B48FFF783FCFB691B68FB613C
:1031F000BB690433FA699A42E7D100F001FCFB7A1B
:1032000063F07F03DAB2FB681A72FB680822796800
:103210001846FEF7FFFE104B1B68002B03D00E4B29
:103220001B68F868984701F0F1FC0446BB691A1D59
:10323000FB680C3319461046FFF752FF204601F099
:10324000E9FC00BF2437BD4690BD00BF40BA000076
:10325000ACB90000C4B90000440D002090B583B0A3
:1032600000AF78607B68002B05D140F293120F49C4
:103270000F48FFF73DFC0F4B1B68002B03D00D4B95
:103280001B68786898477B6800221A7201F0BEFCC0
:1032900004467B680C331846FFF73BFF204601F0DD
:1032A000B9FC00BF0C37BD4690BD00BF50BA00004E
:1032B000D4B90000480D002090B587B000AF034698
:1032C0003960FB7101F0A2FC7861FEF791FD0346C5
:1032D000002B09D029492A48FFF726FB40F2B712F4
:1032E00026492848FFF704FC786901F093FCFB7934
:1032F0001846FFF729FF38613B69002B05D140F2E2
:10330000BB121E492048FFF7F3FB3B69DB681846F8
:10331000FFF7AEFBF860FB68002B01D1002329E02A
:103320003B69DB681A460021F868FEF7AFFDFB68D1
:10333000FA791A72FB6800225A72FB68082239680F
:103340001846FEF767FE114B1B68002B03D00F4B8E
:103350001B68F868984701F059FC04463B691A1D40
:10336000FB680C3319461046FFF7BAFE204601F001
:1033700051FCFB6818461C37BD4690BD64BA00007E
:10338000E8B9000010BA0000ACB90000440D0020FC
:1033900090B583B000AF78607B68002B05D140F218
:1033A000F51216491648FFF7A3FB7B681B7A5BB240
:1033B000002B05DA4FF4FB7210491248FFF798FB17
:1033C000114B1B68002B03D00F4B1B687868984784
:1033D0007B6800221A7201F019FC04467B680C33EA
:1033E0001846FFF796FE204601F014FC7868FFF7B8
:1033F00063FB00BF0C37BD4690BD00BF78BA00002C
:10340000D4B9000014BA0000480D002080B582B085
:1034100000AF78607B68002B05D14FF40672084935
:103420000848FFF765FB7B681B7A5BB2002B01DA6B
:10343000012300E0002318460837BD4680BD00BFC9
:103440008CBA0000D4B9000080B582B000AF7860BB
:103450007B68002B05D140F22B2206490648FFF776
:1034600047FB7B681B7A03F07F03DBB21846083703
:10347000BD4680BDA8BA0000D4B9000080B586B0B2
:1034800000AF78600B46FB7000233B6100237B613B
:103490000023FB60FB781846FFF756FEF8607B6858
:1034A000002B02D0FB68002B01D1002335E001F096
:1034B000ADFBB860FEF79CFC0346002B09D0194910
:1034C0001948FFF731FA40F2492216491748FFF729
:1034D0000FFBB86801F09EFB00F07CFAFB685B68AC
:1034E0007B6112E07B690C3B3B613B690822796898
:1034F0001846FEF7C1FD0346002B03D100F080FA09
:103500003B690AE07B691B687B61FB6804337A696D
:103510009A42E7D100F074FA002318461837BD46E6
:1035200080BD00BFBCBA0000E8B9000010BA0000BE
:1035300080B483B000AF78607B687A685A607B683B
:103540005A687B681A6000BF0C37BD465DF8047B83
:10355000704780B483B000AF786039607B685B6887
:103560003A681A607B685A683B685A607B683A68B8
:103570005A603B687A681A6000BF0C37BD465DF838
:10358000047B704780B483B000AF78607B681B68B1
:103590007A6852685A607B685B687A6812681A6059
:1035A0007B687A685A607B685A687B681A6000BFDB
:1035B0000C37BD465DF8047B704780B483B000AF24
:1035C00078607B681B687A689A420CBF01230023ED
:1035D000DBB218460C37BD465DF8047B7047FFFF31
:1035E00080B584B000AF78607B68002B04D15F2287
:1035F0001C491D48FFF77CFA7B689B6A1B78232BCC
:1036000011D17B68DB691A467B689B6A9A420AD9AA
:103610007B68DB691A467B689B6A19467B68DB6AB4
:103620000B449A420CD97B6819461048FFF77CF985
:1036300001F0ECFA0346FB60FB68002BFCD10DE0C7
:103640007B68DB691A467B689B6A20339A4205D8FF
:103650007B6819460648FFF767F9FFE700BF103798
:10366000BD4680BD34BB0000CCBA0000E0BA00000B
:10367000FCBA0000B0B582B000AF7860094B1B689F
:10368000184601F067FC0346013B1C46064B53F805
:103690003430A3F114057B681C602B4618460837AC
:1036A000BD46B0BD580E0020580D002098B500AFA3
:1036B000094B00221A80002406E0E300074A134465
:1036C0001846FFF735FF01341F2CF6DD044B0022AE
:1036D0001A6000BF98BD00BF5C0E0020580D00208E
:1036E000580E002090B583B000AF3B1D1846FFF781
:1036F000C1FF0446084B1C60204600F033F9032349
:1037000084F8343004F11C03184601F0CCFA00BFF1
:103710000C37BD4690BD00BF600E002080B586B05E
:1037200000AF01F073FAF8605C4BB3F90030002B86
:1037300040F0AC805A4B1B68002B00F0A7800023A0
:103740003B613B1D1846FFF795FF7861554B1B68A1
:1037500093F8343003F00703032B2CD1514B1B6833
:1037600093F835301A467B689A4203D24D4B1B685A
:103770007B6115E04B4B1B6893F835301A467B682C
:103780009A420BD1474B1B6893F8343003F008037F
:10379000002B03D1434B1B687B6101E001233B619C
:1037A000404B1B6893F834203E4B1B6822F0080204
:1037B000D2B283F834203B4B1B687A699A4250D0CE
:1037C0007B68DAB2384B1A70364B1B68BB60354ADF
:1037D0007B691360354B1B68002B04D0334B1B688F
:1037E0007969B86898473B69002B02D0B86800F047
:1037F00063F8786900F0B6F87B6993F834305BB20F
:1038000023F007035BB243F003035BB2DAB27B69D8
:1038100083F834207869FFF7E3FE254B1B78DBB291
:10382000002B14D1234B1B68002B03D0214B1B68AA
:10383000B8689847BB681C331A467B691C33194625
:10384000104601F0EAF9F86801F0E4F922E0BB68FB
:103850001C331A467B691C331946104601F0DDF90A
:1038600014E0104B1B68184600F07CF80D4B1B68E9
:1038700093F834305BB223F007035BB243F00303E9
:103880005AB2084B1B68D2B283F83420F86801F0B2
:10389000C1F900BF1837BD4680BD00BF5C0E0020D7
:1038A000580E0020600E0020640E0020680E0020DC
:1038B000840C00206C0E002090B583B000AF7860BF
:1038C0007B68002B05D140F2D22221492148FFF725
:1038D0000FF901F09BF904461F4B1B687A689A4266
:1038E0000ED17B6893F834305BB223F007035BB2F0
:1038F00043F003035BB2DAB27B6883F8342020E044
:103900007B6893F834305BB223F007035BB243F07B
:1039100001035BB2DAB27B6883F834207B6893F8EA
:103920003530DB000D4A1A447B68143319461046C3
:10393000FFF70FFE7B689A6B094B1B681343084A1D
:103940001360204601F066F900BF0C37BD4690BDFC
:1039500050BB0000CCBA0000600E0020580D0020C3
:10396000580E002090B583B000AF78607B68002BC4
:1039700005D140F2333213491348FFF7B9F801F08B
:1039800045F904467B6814331846FFF7FBFD7B6856
:1039900093F83530DB000D4A13441846FFF70DFE4F
:1039A0000346002B07D07B689B6BDA43084B1B68F0
:1039B0001340074A1360204601F02CF900BF0C3772
:1039C000BD4690BD6CBB0000CCBA0000580D002075
:1039D000580E002098B500AF01F018F90446074BC7
:1039E000B3F900309BB201339BB21AB2034B1A8079
:1039F000204601F00FF900BF98BD00BF5C0E00200B
:103A000098B500AF01F002F90446104BB3F900304D
:103A10009BB2013B9BB21AB20C4B1A800B4BB3F911
:103A20000030002B0CDC094B00221A80204601F0EC
:103A3000F1F8074B1B68002B05D0FFF76FFE02E083
:103A4000204601F0E7F800BF98BD00BF5C0E0020E3
:103A5000600E002080B400AF044BB3F900309BB27D
:103A60001846BD465DF8047B704700BF5C0E002021
:103A700080B483B000AF78607B687A685A607B68F6
:103A80005A687B681A6000BF0C37BD465DF8047B3E
:103A9000704780B483B000AF78607B681B687A6839
:103AA00052685A607B685B687A6812681A607B6843
:103AB0007A685A607B685A687B681A6000BF0C3766
:103AC000BD465DF8047B704790B583B000AF00F051
:103AD00019F9786001F09AF804467868FFF742FF18
:103AE0007B684C33184600F0E3FC7B68042283F8C3
:103AF00034207868FDF742FC204601F08BF8FFF790
:103B00000DFE00BF0C37BD4690BDFFFF90B585B0E0
:103B100000AF78607B68FB60FB68002B04D18722D4
:103B200019491A48FEF7E4FFFB6893F8343003F0B4
:103B30000703022B04D0882213491548FEF7D8FF4B
:103B4000F868FFF781FC0346012B04D089220E4957
:103B50001048FEF7CDFF01F059F80446FB686FF0FE
:103B600001021A63FB6814331846FFF792FFF868E6
:103B7000FFF7A2FE204601F04DF8FFF7CFFD00BF92
:103B80001437BD4690BD00BF28BD000088BB0000B3
:103B90009CBB0000D8BB000080B586B002AFF860C7
:103BA000B9607A603B60FB6814331846FFF760FF2A
:103BB000FB687A681A62FB683A685A62FB68BA69FD
:103BC0009A62FB68FA69DA62FB68986AFB68DB6AEA
:103BD0001A462321FEF75AF9FB68186AFB68596AEE
:103BE000FB689A6AFB68DB6A043B1A44244B01F0C9
:103BF000ABF80246FB68DA6197F820301F2B04D936
:103C0000BE2220492048FEF773FFFB6897F820206A
:103C100083F83520FB6800229A63FB680022DA6390
:103C2000FB68002283F84020FB687A6A5A64FB68CC
:103C30007A6A9A64FB6800221A63FB68002283F8A0
:103C40003420FB6800229A67FB680022DA67FB6871
:103C500003F14C00F9680023019300230093FB68F3
:103C60000A4A00F0E7FB0A4B1B68002B03D0084B05
:103C70001B68F8689847002318461037BD4680BD7A
:103C8000C93A000038BD00001CBC00000D3B00001C
:103C9000780E002080B588B004AFF860B9607A6013
:103CA0003B60FB68002B05D140F2311212491348EA
:103CB000FEF71EFFBB69002B05D14FF499720E4928
:103CC0000F48FEF715FFBA680121F868FFF760FAA0
:103CD0007B6A039397F820300293FB690193BB69D9
:103CE00000933B687A68B968F868FFF755FF0346A8
:103CF00018461037BD4680BD48BD000088BB000097
:103D000040BC000080B400AF034B1B681846BD46A2
:103D10005DF8047B704700BF600E002080B582B064
:103D200000AF78607B68002B05D14FF4B2721C495C
:103D30001C48FEF7DDFE7B6893F8343003F0070380
:103D4000002B05D040F2651215491748FEF7D0FE4A
:103D50007868FFF779FB0346012B05D04FF4B37267
:103D60000F491248FEF7C4FE7B6893F835301A46B7
:103D7000012393401A467B689A637B68022283F88A
:103D80003420786800F03EFAFFF7BCFF0346002BB2
:103D900001D0FFF7C3FC002318460837BD4680BD9D
:103DA00058BD000088BB000058BC0000D8BB000014
:103DB00080B584B000AF78607B68002B05D140F2FD
:103DC0008F1223492348FEF793FE7868FFF73CFBE8
:103DD0000346012B05D04FF4C8721D491E48FEF75B
:103DE00087FE7868FFF712FB0346002B05D140F2EF
:103DF000911217491948FEF77BFE7B6893F834301F
:103E000003F00703042B01D100231CE07B6893F827
:103E1000343003F00703002B02D07868FFF7A2FDCF
:103E200000F0F4FEF8607B684C33184600F040FB6D
:103E30007B68042283F834207868FDF79FFAF868DD
:103E400000F0E8FE002318461037BD4680BD00BFD5
:103E50006CBD000088BB0000D8BB000090BC000017
:103E600080B58AB004AFF860B9607A603B60F968E9
:103E70000120FFF721FA78617B69002B01D1002333
:103E80001BE03868FEF7F4FD38613B69002B04D174
:103E90007869FFF77DFA00230FE07B6A039397F8B8
:103EA000203002933B6801933B6900937B68BA68BA
:103EB000F9687869FFF770FE7B6918461837BD46C8
:103EC00080BDFFFF80B584B000AF78607B68002BB9
:103ED00005D14FF4FB7223492348FEF709FE7868A9
:103EE000FFF7B2FA0346012B05D040F2F7121D4945
:103EF0001E48FEF7FDFD7868FFF788FA0346002BA1
:103F000005D04FF4FC7217491948FEF7F1FD7B68A4
:103F100093F8343003F00703042B01D100231CE095
:103F20007B6893F8343003F00703002B02D07868E5
:103F3000FFF718FD00F06AFEF8607B684C33184606
:103F400000F0B6FA7B68042283F834207868FDF725
:103F500015FAF86800F05EFE002318461037BD46DB
:103F600080BD00BF80BD000088BB0000D8BB000042
:103F7000C0BC000090B585B000AF7860FFF7C2FE0E
:103F8000F860FB68002B05D140F23F221B491C481A
:103F9000FEF7AEFDF868FFF757FA0346012B05D090
:103FA0004FF4107215491748FEF7A2FD00F02EFEDF
:103FB0000446FB6800221A63F86800F0BFF8FB684B
:103FC0004C333A1D0021184600F016FCFB684C33B8
:103FD000184600F0B5FA204600F01CFEFFF79EFBE5
:103FE000FB681B6B13F1020F02D1FB6800221A63FE
:103FF000FB681B6B18461437BD4690BD94BD00008E
:1040000088BB0000D8BB000080B582B000AF7860EC
:104010007868FFF7AFFF034618460837BD4680BDF6
:1040200080B584B000AF78607868FCF7A3FEF860D4
:10403000F868FFF79FFF034618461037BD4680BD5E
:1040400090B587B000AFF860B9607A60FB68002B6C
:1040500005D140F2D52236493648FEF749FDF868C9
:10406000FFF7F2F90346012B05D040F2D622304982
:104070003148FEF73DFDBB68022B09D0BB68022B1F
:104080004FDCBB68002B34D0BB68012B36D048E036
:1040900000F0BCFD0446FB6893F8343003F00703DE
:1040A000012B14D1F868FFF75DFC7B681A78FB6878
:1040B00083F83520FB6893F835301A460123934086
:1040C0001A46FB689A63F868FFF7F6FB0DE07B6819
:1040D0001A78FB6883F83520FB6893F835301A4668
:1040E000012393401A46FB689A63204600F092FD34
:1040F00018E0F868FFF712FE034614E0F868FFF7CF
:1041000085F90346012B04D1F868FFF751FE786169
:1041100003E0F868FFF7D6FE7861FFF7FFFA7B69E6
:1041200001E000BF002318461C37BD4690BD00BF0C
:10413000A4BD000088BB0000D8BB000090B583B0D0
:1041400000AF78607B68002B05D140F24B322849E4
:104150002848FEF7CDFC7868FFF776F90346012B77
:1041600005D04FF4537222492348FEF7C1FCFFF7F4
:10417000C9FD02467B68934205D040F24D321C498E
:104180001E48FEF7B5FC7B6893F8343003F0070453
:10419000012C04D0032C02D04FF0FF3324E000F0B8
:1041A00035FD04467868FFF7DDFB7B6893F8343013
:1041B0005BB223F007035BB243F002035BB2DAB2F7
:1041C0007B6883F834207B684C33184600F0CAFAC9
:1041D000204600F01FFD0A4B1B68002B03D0084B44
:1041E0001B6878689847002318460C37BD4690BD79
:1041F000B8BD000088BB0000D8BB00000CBD0000AB
:10420000700E002090B583B000AF78607B68002B03
:1042100005D140F279321D491D48FEF769FC7868E6
:10422000FFF712F90346012B05D040F27A32174905
:104230001848FEF75DFC7B6893F8343003F0070301
:10424000022B02D04FF0FF331BE000F0DFFC0446EE
:104250007B6814331846FFF71CFC7B684C33184608
:1042600000F080FA7868FFF727FB204600F0D2FCC8
:10427000094B1B68002B03D0074B1B6878689847D5
:10428000002318460C37BD4690BD00BFCCBD0000D2
:1042900088BB0000D8BB0000740E002080B483B03F
:1042A00000AF78607B687A685A607B685A687B6880
:1042B0001A6000BF0C37BD465DF8047B704780B4C0
:1042C00083B000AF786039607B681B683A685A60D9
:1042D0007B681A683B681A607B683A681A603B68BA
:1042E0007A685A6000BF0C37BD465DF8047B7047A2
:1042F00080B483B000AF78607B681B687A685268CE
:104300005A607B685B687A6812681A607B687A68B2
:104310005A607B685A687B681A6000BF0C37BD46DC
:104320005DF8047B704780B483B000AF78607B6831
:104330001B687A689A420CBF01230023DBB218463F
:104340000C37BD465DF8047B704780B586B000AF82
:10435000F860B9607A603B60FB6897F820205A7279
:10436000FB685B7A23F00103DAB2FB685A72FB68E0
:10437000BA68DA61FB687A681A62FB6800229A629E
:10438000FB683A685A6200237B610BE07B69023369
:10439000DB00FA68134404331846FFF77FFF7B699C
:1043A00001337B617B69002BF0DD00BF00BF183754
:1043B000BD4680BD90B585B000AF7860396000F033
:1043C00025FC04467868FFF7AEFF0346002B0CD1AE
:1043D0007B681B68143BFB60FB689A6A3B681A6049
:1043E000204600F017FC002304E0204600F012FCF9
:1043F0004FF0FF3318461437BD4690BD80B584B0EA
:1044000000AF78600023FB600BE0FB680233DB0049
:104410007A68134404331846FFF76AFFFB680133D8
:10442000FB60FB68002BF0DD00BF00BF1037BD460E
:1044300080BDFFFF80B586B002AFF860B9607A60DA
:104440003B60FB68002B05D140F20F121449154860
:10445000FEF74EFB7B68002B05D14FF488721049A4
:104460001148FEF745FBBB696FF00042934205D34C
:1044700040F211120A490D48FEF73AFBFB68BA6890
:104480000A211846FEF784FE3B7F0093BB693A6819
:104490007968F868FFF759FF00BF1037BD4680BD47
:1044A000F0BE0000E0BD0000F4BD000008BE00004A
:1044B00090B583B000AF78607B68002B05D14FF4D6
:1044C00093721B491B48FEF713FB7B681846FEF7E7
:1044D000BBFF03460A2B05D040F2271214491648A9
:1044E000FEF706FB7B681846FEF790FF0346002B9D
:1044F00005D14FF494720E491048FEF7F9FA00F016
:1045000085FB04467868FFF779FF7B685B7A23F0C8
:104510000103DAB27B685A72204600F07BFB7B68AD
:104520001846FEF79BFE002318460C37BD4690BD8B
:1045300000BF0000E0BD000020BE00005CBE000027
:10454000B0B588B000AF78607B68002B05D14FF420
:10455000CC727B497B48FEF7CBFA7B681846FEF7A6
:1045600073FF03460A2B05D040F29912744976482E
:10457000FEF7BEFA002400F049FB05467868FFF715
:104580003DFF7B685B7A23F00103DAB27B685A72E5
:104590006E4B1B68002B04D06C4B1B687A6810466E
:1045A0009847FCF79DFB02467B685B6A1A447B6870
:1045B0009A627B685B7A03F00403002B02D0644BA1
:1045C000BB6101E0634BBB61BB69BB600023FB6166
:1045D00055E0FB699B0007F12002134453F8183C97
:1045E0001B683B61FB69DB0014335B423A6913448F
:1045F000FB60FB689A6A7B689B6A9A4209D0FB68F9
:104600009A6A7B689B6AD31A6FF0004293421FD369
:1046100000E000BFFB699B0007F12002134453F840
:10462000183C1A68FB699B0007F120010B4443F812
:10463000182CFB699B0007F12002134453F8182C37
:10464000FB69DB00B9690B445B689A42C1D100E0A9
:1046500000BFFB69002B0FD0FB699B0007F1200214
:10466000134453F8182CFB69013308329B0007F1FF
:1046700020010B4443F8182CFB690133FB61FB69F3
:10468000002BD6D0344B1B680133334A1360324BB6
:104690001B687B61BA687B68143319461046FFF7C4
:1046A0000EFE0223FB611EE07B6903F00303002B77
:1046B0001DD1FB69C3F101039B0007F120021344E4
:1046C00053F8180CFB69C3F101030233DB007A686D
:1046D000134404331946FFF7F2FD7B699B087B61A5
:1046E000FB690133FB61FB69012BDDD900E000BFF1
:1046F0007B685B7A43F00103DAB27B685A727B68AD
:104700005B7A03F00403002B0ED0144B1B78012BB3
:104710000AD1134B93F8343003F00703022B03D173
:104720000F48FFF76FFD0124284600F073FA002CB4
:1047300001D0FEF7F3FF002318462037BD46B0BD79
:1047400010BF0000E0BD000020BE0000500D0020A2
:10475000840E00207C0E002014110020F8000020A0
:104760008C0E002090B583B000AF78607B68002B82
:1047700005D14FF404721C491C48FEF7B9F97B6857
:104780001846FEF761FE03460A2B05D040F21122BF
:1047900015491748FEF7ACF97B685B7A03F0010313
:1047A000002B02D14FF0FF3319E0124B1B68002B96
:1047B00004D0104B1B687A681046984700F026FA20
:1047C00004467868FFF71AFE7B685B7A23F00103E2
:1047D000DAB27B685A72204600F01CFA00231846B1
:1047E0000C37BD4690BD00BF20BF0000E0BD0000FB
:1047F00020BE0000540D002090B585B000AFF860D9
:10480000B9607A60FB68002B05D14FF40D72344912
:104810003448FEF76DF9FB681846FEF715FE0346AF
:104820000A2B05D040F235222D492F48FEF760F9BA
:1048300000F0ECF90446BB68052B47D801A252F8FA
:1048400023F000BF674800005D4800008948000071
:1048500099480000A9480000C3480000FB685A6A54
:104860007B681A6033E07B681B686FF000429342FC
:1048700005D340F23F221A491C48FEF739F97B68FC
:104880001A68FB685A6222E0FB685B7A23F0020335
:10489000DAB2FB685A721AE0FB685B7A43F00203F3
:1048A000DAB2FB685A7212E0FB685B7A03F001032C
:1048B000002B03D07B6801221A6002E07B68002293
:1048C0001A60FB689A6A7B681A6000E000BF2046A5
:1048D00000F0A0F9002318461437BD4690BD00BF74
:1048E00030BF0000E0BD000020BE0000C0BE0000E0
:1048F00090B585B000AF3B461846FFF7CFFCFCF7FC
:10490000EFF9F86000F082F904465FE0374B1B686E
:10491000143BBB60BB689B6AFA68D31A6FF0004215
:1049200093425AD2324B1B68002B03D0304B1B688A
:10493000B8689847B868FFF761FDBB685B7A03F019
:104940000203002B06D1BB685B7A23F00103DAB2C5
:10495000BB685A72BB6803F114023B461146184605
:10496000FFF7ADFCBB68DB69BA68126A104698476E
:10497000FCF7B6F9F8601F4B1B68002B03D01D4BEA
:104980001B68B86898473B461846FFF7CCFC0346BF
:10499000002B00D01AE0BB6814331846FFF7A8FCC0
:1049A000BB685B7A03F00203002B0FD0BB685B7A15
:1049B00003F00103002B09D0BB685B7A23F00103ED
:1049C000DAB2BB685A72B868FFF7BAFD0748FFF75A
:1049D000AAFC0346002B99D000E000BF204600F05F
:1049E00019F900BF1437BD4690BD00BF7C0E0020F2
:1049F0000C1100201011002090B585B000AF3B468F
:104A00001846FFF74BFC00F001F904466BE03D4B04
:104A10001B68143BFB60FCF763F9B860FB689B6A9A
:104A2000BA68D31A6FF00042934263D2364B1B68C8
:104A3000002B03D0344B1B68F8689847F868FFF7E1
:104A4000DDFCFB685B7A03F00203002B06D1FB68F8
:104A50005B7A23F00103DAB2FB685A72FB6803F158
:104A600014023B4611461846FFF729FC274B00224B
:104A70001A70204600F0CEF8FB68DB69FA68126A0B
:104A800010469847224B1B68002B03D0204B1B6815
:104A9000F868984700F0BAF804461C4B01221A70D7
:104AA0003B461846FFF73FFC0346002B00D01AE0B8
:104AB000FB6814331846FFF71BFCFB685B7A03F0B6
:104AC0000203002B0FD0FB685B7A03F00103002B7D
:104AD00009D0FB685B7A23F00103DAB2FB685A72F3
:104AE000F868FFF72DFD0748FFF71DFC0346002B74
:104AF0008DD000E000BF204600F08CF800BF1437D6
:104B0000BD4690BD840E00200C110020F80000204E
:104B10001011002080B584B000AF786007F1080361
:104B200019461248FFF746FC0346002B08D0FFF752
:104B3000E9F803461846FFF701FBFEF7EFFD11E029
:104B4000FCF7CEF8F860BA68FB68D31A6FF0004241
:104B5000934207D2BA68FB68D31ABB60BB68184699
:104B6000FFF752FAFFF748FFD8E700BF840E002096
:104B700080B582B000AF00237B6009E07B68DB007A
:104B8000074A13441846FFF789FB7B6801337B60B3
:104B90007B68002BF2D000BF00BF0837BD4680BD48
:104BA0007C0E002080B586B004AF00237B6009E056
:104BB0007B68DB00104A13441846FFF76FFB7B68E5
:104BC00001337B607B68002BF2D00A23039304231C
:104BD00002934FF400730193084B00930023084A9B
:104BE00008490948FFF756F80748FFF797F800BF4C
:104BF0000837BD4680BD00BF840E00200C0F00208A
:104C0000154B0000E8BE00008C0E0020EFF3108072
:104C100072B6704780F310887047444A1368012BBE
:104C200004D04FF001031360414A1060414A116003
:104C300041484FF0805101607047EFF3108272B627
:104C40003A48016851B34FF00001016038480168EB
:104C500091B1EFF309811EF0100F08BF21ED108B09
:104C600021E9F00F4FF000041EF0100F08BF0124DF
:104C700041F8044D006801602E490968096808C9B7
:104C8000B1E8F00F002B18BFB1EC108B81F309884D
:104C90004EF0100E002B18BF2EF0100E82F310886D
:104CA0004EF0040E704723490860EFF3148222F09F
:104CB000040282F314881E494FF0000008601B496B
:104CC0004FF0010008601D481D49D0F8002041EA5E
:104CD0000201016018484FF08051016019480068D6
:104CE000006800BF80F3088861B662B6704700BFF5
:104CF000EFF308801EF0040F01D0EFF3098020E9E4
:104D0000F00F40F804ED40F804ED1EF0040F02D05F
:104D100080F3098801E080F3088800B500F05CF8B2
:104D20005DF804EB4EF0040E7047000020110020E7
:104D3000181100201C11002004ED00E020ED00E01F
:104D40000000FFFF08ED00E080B489B000AFF8601C
:104D5000B9607A603B607B680433BB61BB6923F058
:104D60000703BB61BB69443BBB61BB697B6100233B
:104D7000FB6108E0FB699B007A691344154A1A60DD
:104D8000FB690133FB61FB69102BF3D9BA687B69BE
:104D90005A627B6900229A627B690022DA627B692F
:104DA00000221A637B6900225A633A687B699A631E
:104DB000FA687B69DA637B694FF080721A647B69F9
:104DC00000221A60BB6918462437BD465DF8047B93
:104DD000704700BFEFBEADDE80B586B000AF786033
:104DE0007B6828337B617B6804333B61454B1B68E0
:104DF000002B07D0434B1B6878699847F860FB6825
:104E0000002B7AD03B691B6C19463F48FDF78CFD9F
:104E10003B695B6A19463D48FDF786FD3B699B6A25
:104E200019463B48FDF780FD3B69DB6A1946394866
:104E3000FDF77AFD3B691B6B19463748FDF774FD9A
:104E40003B695B6819463548FDF76EFD3B699B6819
:104E500019463348FDF768FD3B69DB681946314860
:104E6000FDF762FD3B691B6919462F48FDF75CFDA4
:104E70003B695B6919462D48FDF756FD3B699B6907
:104E800019462B48FDF750FD3B69DB691946294857
:104E9000FDF74AFD3B691B6A19462748FDF744FDAB
:104EA0003B695B6B19462548FDF73EFD3B699B6BF3
:104EB00019462348FDF738FD3B69DB6B194621484D
:104EC000FDF732FD7B681B6803F00403002B07D05D
:104ED000FEF718FF034619461B48FDF725FD02E0C3
:104EE0001A48FDF721FD7B681B6803F01003002BB7
:104EF00002D11748FDF718FDFEE700BF1837BD4681
:104F000080BD00BF2411002044BF000054BF00003A
:104F100064BF000074BF000084BF000094BF0000A5
:104F2000A4BF0000B4BF0000C4BF0000D4BF000095
:104F3000E4BF0000F4BF000004C0000014C0000083
:104F400024C0000034C0000044C0000064C0000061
:104F500080C0000080B483B000AF78607B6893FAB3
:104F6000A3F3B3FA83F37A68002A01D14FF0FF3339
:104F7000013318460C37BD465DF8047B704780B599
:104F800000AFFCF769FF0346184680BD80B584B0CA
:104F900000AF786039607B68002B04D1BF221C49C8
:104FA0001C48FDF7A5FD3B6800221A60786801F0F7
:104FB0006DFEF860FB68002B01D1002323E07B68C5
:104FC0001B687A689288C2F34E0292B21A443B6818
:104FD0001A607B68B3F908301A467B689B88C3F374
:104FE0004E039BB2D31A1A46FB68934201D2FB6868
:104FF00009E07B68B3F908301A467B689B88C3F3E5
:105000004E039BB2D31A18461037BD4680BD00BF71
:1050100030C20000A4C0000080B584B000AF78604A
:105020000B467B807B68002B04D1D9222B492C486E
:10503000FDF75EFD786801F029FEF860FB68002B43
:1050400001D1002345E07B88FA689A4201D2FB68CF
:105050007B807B68B3F908301A467B689B88C3F372
:105060004E039BB2D21A7B889A4212DD7B689B88E2
:10507000C3F34E039BB21A467B8813449BB2C3F31F
:105080000E0399B27A68938861F34F0393807B880B
:105090001FE07B68B3F908309BB27A689288C2F34C
:1050A0004E0292B29B1A7B807B681B79C3F300038C
:1050B000DBB2DB43DBB203F00103D9B27A681379C8
:1050C00061F3000313717A6893886FF34F03938041
:1050D0007B8818461037BD4680BD00BF4CC200001B
:1050E000A4C0000090B585B000AF78600B467B800F
:1050F0007B68002B04D1F92232493348FDF7F8FCD4
:105100007B68B3F908309CB2786801F0BFFD0346B4
:105110009BB2E31AFB81FB89002B01D100234CE0F9
:10512000FA897B889A4201D2FB897B807B68B3F93C
:1051300008301A467B68DB88C3F34E039BB2D21A51
:105140007B889A4212DD7B68DB88C3F34E039BB2F7
:105150001A467B8813449BB2C3F30E0399B27A6854
:10516000D38861F34F03D3807B8826E07B689B79EB
:10517000C3F30003DBB2DB43DBB203F00103D9B2BC
:105180007A68937961F3000393717B68DB88C3F3DA
:105190004E039BB21A467B68B3F908309BB2D31A10
:1051A0009AB27B8813449BB2C3F30E0399B27A6818
:1051B000D38861F34F03D3807B8818461437BD46EC
:1051C00090BD00BF68C20000A4C0000080B588B0D8
:1051D00000AFF860B9607A603B60FB68002B05D1D6
:1051E00040F229121F492048FDF782FCFB68BB6191
:1051F000BB69002B05D14FF496721A491B48FDF785
:1052000077FC7B68FB613B687B611CE0BB691B6CC6
:10521000DB68B869984738613B69B3F1FF3F16D046
:105220003B69DAB2FB691A70FB690133FB613B68C9
:10523000013B3B60BB691B8B03F04003002B02D09A
:105240003B690A2B05D03B68002BDFD102E000BF91
:1052500000E000BF7A693B68D31A18462037BD4684
:1052600080BD00BF88C20000B4C00000C4C0000000
:1052700080B588B000AFF860B9607A603B60FB68C9
:10528000002B05D14FF4AB721D491E48FDF730FCD1
:10529000FB68BB61BB69002B05D140F2591218496C
:1052A0001948FDF725FC7B68FB613B687B611DE0CD
:1052B000BB691B8B03F04003002B09D0FB691B78F3
:1052C0000A2B05D1BB691B6C9B680D21B8699847F7
:1052D000BB691B6C9B68FA6912781146B8699847DC
:1052E000FB690133FB613B68013B3B603B68002B82
:1052F000DED17A693B68D31A18462037BD4680BD97
:1053000098C20000B4C00000C4C0000080B588B0DE
:1053100000AFF860B9607A603B60FB68002B05D194
:1053200040F2831230493148FDF7E2FB3B68002B25
:1053300001D1002354E0FB68FB61FB69002B02D024
:105340007B68002B05D14FF4C47227492848FDF72C
:10535000CFFBFB691B6DBB61FB681B8B03F48053A8
:10536000002B2ED0FB699B6CC3F38F239BB21A4694
:105370003B68934211D91F48FDF7D6FAF968FB69DB
:105380009B6CC3F38F239BB23A681B48FDF7CCFAA2
:105390001A48FDF7C9FA002322E0BB69184601F05C
:1053A00075FC78617A693B689A420AD23B689AB286
:1053B000BB691A83BB690C334FF0FF31184601F00B
:1053C00045F9FFF723FC3861BB693A6892B2796806
:1053D000184601F04FFB78613869FFF71BFC7B69C9
:1053E00018462037BD4680BDA8C20000B4C00000EA
:1053F000D8C0000004C1000014C1000088C1000032
:1054000090B587B000AFF860B9607A603B60002368
:105410007B61FB68002B05D140F2BF122049214877
:10542000FDF766FB3B68002B01D1002333E0FB68EE
:105430003B613B69002B02D07B68002B05D140F219
:10544000C31217491848FDF753FB3B695B6D7B613D
:105450007B69002B05D140F2C51211491348FDF7B5
:1054600047FB7B691B69012B01D1002313E07B699A
:1054700001221A613B691B6C1C694FF480433A6836
:1054800079683869A0477B6914334FF0FF311846BB
:1054900001F0DCF83B6818461C37BD4690BD00BFE4
:1054A000B8C20000B4C00000D8C0000090C1000025
:1054B00090B589B000AFF860B9607A603B600023B6
:1054C000BB613B687B610023FB613B68002B01D122
:1054D00000236CE0FB68002B05D14FF4F6723649CF
:1054E0003648FDF705FBFB683B613B69002B02D0AA
:1054F0007B68002B05D14FF4F7722F493048FDF738
:10550000F7FA3B695B6DBB61BB69002B05D140F2CB
:10551000F11229492B48FDF7EBFAFEF7F3FB03469E
:10552000002B05D03B691B8B03F04003002B07D0F9
:105530003B687A68B968F868FFF79AFE034636E078
:10554000BB691B69012B01D1002330E0BB6901223B
:105550001A6128E0B8697A68FB6913443A6892B224
:10556000194601F0D1F90246BB69DA60BB69DB6814
:10557000FA691344FB61BB69DB683A68D31A3B6084
:105580003B691B6C1C697A68FB69D118BB69DA68D6
:105590004FF480433869A047BB6914334FF0FF31A3
:1055A000184601F053F83B68002BD3D17B691846AD
:1055B0002437BD4690BD00BFD8C20000B4C0000073
:1055C000D8C0000090C1000090B58BB000AFF8606B
:1055D000B9607A603B60FB68002B05D140F226225F
:1055E0002B492C48FDF784FA3B68002B01D100239E
:1055F00049E0FB687B627B6A002B02D07B68002B52
:1056000005D140F22A2222492348FDF771FA7B6A2C
:105610005B6D3B62FFF7FAFAF8613B6A1B69002B8E
:1056200025D13B6A01221A613B6A3A6892B27968D5
:10563000184601F069F9B861F869FFF7EBFA002341
:105640007B613B6A07F1140211461846FFF79EFC86
:1056500002463B6ADA607B6A1B6C1C6979693B6AAB
:10566000DA684FF40043786AA047BB690BE03B6AF5
:105670003A6892B27968184601F046F9B861F8695B
:10568000FFF7C8FABB6918462C37BD4690BD00BF6E
:10569000F8C20000B4C00000D8C0000080B586B0D9
:1056A00000AF78600B467B8000237B617B68002B1A
:1056B00005D14FF4187269496948FDF719FA7B68FA
:1056C0003B613B69B3F84C30002B1DD17B88B3F5AF
:1056D000004F0DD16348FDF727F97B6819466248F2
:1056E000FDF722F96148FDF71FF96FF00903B0E0FB
:1056F0007B685F4A5A637B681B8B43F480439AB292
:105700007B681A830023A4E03B69B3F84C303F2B3D
:1057100003D83B694022A3F84C207B88B3F5804F27
:105720005DD13B691B6C5B684FF480422021386976
:105730009847F860FB68012B22D13B69B3F84C30E5
:1057400020331846FDF794F978617B69002B05D169
:1057500040F2862241494748FDF7CAF978697B69DA
:1057600003F120013B69B3F84C301BB21A4601F03B
:105770007BF83B697A695A657B683F4A5A631AE04D
:105780002020FDF775F978617B69002B05D140F287
:10579000972232493748FDF7ABF93B697A695A6578
:1057A0007B68364A5A633B691B6C5B684FF48042E6
:1057B0000321386998477B6900221A617B690022BE
:1057C000DA607B691433184600F01EFF7B681B8B80
:1057D00043F480439AB27B681A83002339E03B6923
:1057E000B3F84C3020331846FDF742F978617B69F5
:1057F000002B05D140F2B12218491E48FDF778F977
:105800007B6900221A617B690022DA6078697B6912
:1058100003F120013B69B3F84C301BB21A4601F08A
:1058200023F83B697A695A657B68154A5A637B6835
:105830001B8B6FEA43436FEA53439AB27B681A8328
:105840003B691B6C5B684FF4004203213869984741
:10585000002318461837BD4680BD00BF14C30000A2
:10586000B4C00000A4C10000B4C1000088C10000A1
:105870007152000090C10000B154000001540000BA
:10588000C955000080B584B000AF78600B467B80BE
:105890000023FB607B68002B05D14FF4357247492C
:1058A0004748FDF725F97B68BB60BB689A6C454BA0
:1058B0001340002B1DD17B88B3F5005F0DD142480A
:1058C000FDF732F87B6819464048FDF72DF840484F
:1058D000FDF72AF86FF009036BE07B683D4A1A6315
:1058E0007B681B8B43F480539AB27B681A83002336
:1058F0005FE0BB689B6CC3F38F239BB23F2B05D843
:10590000BA68936C402161F399239364BB689B6CE4
:10591000C3F38F239BB21C331846FDF7A9F8F86038
:10592000FB68002B05D140F2EF2224492A48FDF7FD
:10593000DFF8F868FB6803F11A01BB689B6CC3F3DE
:105940008F239BB21BB21A4600F08EFFBB68FA6829
:105950001A657B68214A1A637B88B3F5005F10D112
:105960007B681B8B43F400539AB27B681A83BB6835
:105970001B6C5B684FF400520321B8689847002302
:1059800017E0FB6800221A83FB680C33184600F00E
:105990003BFE7B681B8B43F480539AB27B681A836F
:1059A000BB681B6C5B684FF480520321B868984752
:1059B000002318461037BD4680BD00BF28C3000035
:1059C000B4C0000000FCFF03A4C10000E8C1000057
:1059D00088C10000CD5100001CC200000D53000022
:1059E00080B584B000AF78600B467B807B68002B6D
:1059F00005D140F21A3224492448FDF779F87B6832
:105A0000FB607B6800221A63FB681B6D002B01D1D1
:105A1000002335E07B88B3F5005F0FD17B681B8BDB
:105A200023F400539AB27B681A83FB681B6C5B6893
:105A30004FF400521121F86898470EE07B681B8BE9
:105A400023F480539AB27B681A83FB681B6C5B68F3
:105A50004FF480521121F8689847FB681B6DBB60BA
:105A6000BB68002B05D140F2353207490848FDF7E5
:105A70003FF8B868FDF720F8FB6800221A6500239C
:105A800018461037BD4680BD3CC30000B4C00000BE
:105A90001CC2000080B584B000AF78600B467B80EC
:105AA0007B68002B05D14FF4527227492748FDF738
:105AB0001FF87B68FB607B6800225A63FB685B6DA4
:105AC000002B01D100233AE0FB685B6DBB60BB6833
:105AD000002B05D140F252321B491D48FDF708F852
