:10000000981B002099AF000019AD0000714B000053
:10001000A7AF0000A7AF0000A7AF0000A7AF000088
:10002000000000000000000000000000A7AF00007A
:10003000A7AF000000000000BB4A000001C20000A2
:100040000794000037930000C39400000D95000052
:10005000D59F00000000000000000000000000002C
:100060000000000000000000000000000000000090
:100070000000000000000000000000000000000080
:100080000000000000000000000000000000000070
:100090000000000000000000000000000000000060
:1000A0000000000000000000000000000000000050
:1000B0000000000000000000000000000000000040
:1000C0000000000000000000000000000000000030
:1000D0000000000000000000000000000000000020
:1000E0000000000000000000000000000000000010
:1000F0000000000000000000000000000000000000
:1001000000000000000000000000000000000000EF
:1001100000000000000000000000000000000000DF
:1001200000000000000000000000000000000000CF
:1001300000000000000000000000000000000000BF
:1001400000000000000000000000000000000000AF
:10015000000000000000000000000000000000009F
:10016000000000000000000000000000000000008F
:10017000000000000000000000000000000000007F
:10018000000000000000000000000000000000006F
:10019000000000000000000000000000000000005F
:1001A000000000000000000000000000000000004F
:1001B000000000000000000000000000000000003F
:1001C000FFFFFFFFFFFFFFFFFFFFFFFFFFFFFFFF3F
:1001D000FFFFFFFFFFFFFFFFFFFFFFFFFFFFFFFF2F
:1001E000FFFFFFFFFFFFFFFFFFFFFFFFFFFFFFFF1F
:1001F000FFFFFFFFFFFFFFFFFFFFFFFFFFFFFFFF0F
:1002000010B5054C237833B9044B13B1044800E012
:1002100000BF0123237010BD38060020000000003D
:100220007C17010008B5034B1BB10349034800E0EC
:1002300000BF08BD000000003C0600207C17010044
:1002400080B582B000AF00237B602B4B01221A7077
:100250002A4807F0D9FE03461A46294B1A60294856
:1002600007F0D2FE03461A46274B1A60274807F0CC
:10027000CBFE03461A46264B1A60264807F0C4FEFA
:1002800003461A46244B1A601D4B1B680021184672
:1002900007F07AFE1C4B1B680021184607F074FE1D
:1002A0001B4B1B680021184607F06EFE1A4B1B689B
:1002B0000021184607F068FE114B1B680021184604
:1002C00007F082FE104B1B680021184607F07CFEE9
:1002D0000F4B1B680021184607F076FE0E4B1B687B
:1002E0000021184607F070FE00F06CFA78607B6819
:1002F00018460837BD4680BD04000020B0E6000067
:1003000054060020B8E6000058060020C0E60000B1
:100310005C060020C8E600006006002080B584B0BE
:1003200000AF786039600023FB60134B00221A7025
:100330007B68022B0FD13B6804331B6818460CF016
:10034000D9FF0346DAB20D4B1A700C4B1B781946D5
:100350000B4802F0CFF90B4B1B680021184607F041
:100360004BFF094B1B680021184607F045FFFB684F
:1003700018461037BD4680BD040000200000002054
:10038000D0E60000640600206806002080B582B038
:1003900000AF00237B600A4B01221A70094B1B68D7
:1003A0000021184607F055FF074B1B68002118462F
:1003B00007F04FFF7B6818460837BD4680BD00BF79
:1003C00004000020640600206806002080B586B086
:1003D00000AF0023BB602A4B1B682A49184600F077
:1003E000DBFA294B1B682949184600F0D5FA284842
:1003F00002F080F900237B611AE000233B6110E0EA
:100400000023FB6007E000237B607B6801337B6097
:10041000FB680133FB60FB68042BF4DD3B690133AF
:100420003B613B69B3F57A7FEADB7B6901337B6132
:100430007B69B3F57A7FE0DB164802F05BF9104B7D
:100440001B68154A92F82C20114642F2107201FBEB
:1004500002F21146184600F09FFA0B4B1B680E4A39
:1004600092F82D20114642F2107201FB02F2114661
:10047000184600F091FABB6818461837BD4680BD93
:1004800064060020305705006806002040420F0037
:10049000E4E60000F0E600000400002080B586B02D
:1004A00000AF0023BB602A4B1B682A49184600F0A6
:1004B00073FA294B1B682949184600F06DFA284841
:1004C00002F018F900237B611AE000233B6110E081
:1004D0000023FB6007E000237B607B6801337B60C7
:1004E000FB680133FB60FB68042BF4DD3B690133DF
:1004F0003B613B69B3F57A7FEADB7B6901337B6162
:100500007B69B3F57A7FE0DB164802F0F3F8104B15
:100510001B68154A92F82C20114642F2107201FB1A
:1005200002F21146184600F037FA0B4B1B680E4AD0
:1005300092F82D20114642F2107201FB02F2114690
:10054000184600F029FABB6818461837BD4680BD2A
:100550006406002040420F00680600203057050066
:10056000E4E6000000E700000400002080B58EB043
:1005700000AF786039600023FB610023BB6100237A
:100580007B613B6804331B6818460CF0B3FE0346DE
:10059000BB613B6808331B6818460CF0ABFE034692
:1005A0007B6103F057F9494B1B680021184607F09F
:1005B0000BFD474B1B680121184607F005FD454B15
:1005C0001B680121184607F0FFFC434B1B68002104
:1005D000184607F0F9FC414B1B684149184600F0EA
:1005E000DBF9404B1B683E49184600F0D5F93B4B00
:1005F0001B680021184607F0FFFD3A4B1B680021DD
:10060000184607F0F9FD00237B631AE000233B63E3
:1006100010E00023FB6207E00023FB60FB6801336E
:10062000FB60FB6A0133FB62FB6A052BF4DD3B6B6D
:1006300001333B633B6BBA699A42EAD87B6B013367
:100640007B637B6BB3F57A7FE0DB204B1B6801217A
:10065000184607F0B9FC1E4B1B680021184607F02E
:10066000B3FC1C4B1B680121184607F0ADFC1A4B6C
:100670001B680021184607F0A7FC0023BB621AE0A4
:1006800000237B6210E000233B6207E000233B6114
:100690003B6901333B613B6A01333B623B6A032B9D
:1006A000F4DD7B6A01337B627B6A7A699A42EAD81D
:1006B000BB6A0133BB62BB6AB3F57A7FE0DB03F050
:1006C000DFF8FB6918463837BD4680BD5406002068
:1006D000580600205C06002060060020640600200A
:1006E00000350C006806002080B582B000AF1148CC
:1006F00002F000F8FFF7A4FD78607B68002B03D0C0
:100700000D4801F0F7FF02E00C4801F0F3FF012172
:100710004FF4837007F058FC4FF4FA7003F0C0FBFD
:1007200000214FF4837007F04FFC4FF4FA7003F090
:10073000B7FBECE79CE70000B0E70000C8E700006B
:1007400080B582B000AF7860034801F0D3FF00BFEE
:100750000837BD4680BD00BFDCE7000080B582B031
:1007600000AF134807F050FC03467B6079681148DE
:1007700001F0C0FF786800230F4A002107F0AEFBAC
:1007800038603B68002B02D00C4801F0B3FF7B6857
:100790000121184607F0D0FB38603B68002B02D0DF
:1007A000074801F0A7FF00BF0837BD4680BD00BF66
:1007B000F0E70000F8E700004107000010E8000043
:1007C00028E8000080B582B000AF224800F05BFA54
:1007D0000346214A1360214800F055FA0346204A97
:1007E00013601D4B1B68002B11D01B4B18681D4B51
:1007F0001A681D4B1B68002107F058FD78607B6864
:10080000002B07DA7968194801F074FF02E01848F4
:1008100001F070FF00237B60114B1B68002B11D08F
:100820000F4B1868134B1A68134B1B68002107F015
:100830003DFD78607B68002B07DA79680F4801F08E
:1008400059FF02E00E4801F055FF7B681846083753
:10085000BD4680BD58E800006406002060E8000046
:1008600068060020480000204C00002068E80000D6
:1008700078E80000500000205400002088E80000C4
:1008800098E8000080B584B000AF7860396000233C
:10089000FB600023BB607B68012B03D10023BB609E
:1008A000BB6863E07B68022B07D1324801F022FF6E
:1008B0004FF0FF33BB60BB6858E03B6804331B68F4
:1008C0002D4918460CF012FE0346002B1FD13B6841
:1008D00008331B6818460CF00DFD03461A46274BDB
:1008E0001B6802FB03F3264AA2FB03235B09FB60A0
:1008F000244B1868214B1A68FB68002107F0D6FCCE
:10090000204B1B681946204801F0F4FE2DE03B689F
:1009100004331B681D4918460CF0E8FD0346002B04
:100920001FD13B6808331B6818460CF0E3FC0346F4
:100930001A46174B1B6802FB03F3114AA2FB032361
:100940005B09FB60134B1868114B1A68FB680021A8
:1009500007F0ACFC0F4B1B6819460B4801F0CAFEB0
:1009600003E00023BB60BB6800E0BB68184610379B
:10097000BD4680BDA8E8000058E8000048000020FF
:100980001F85EB5164060020DCE8000060E80000F1
:10099000500000206806002080B584B000AF786069
:1009A00039600023FB607B68002B04D16522084975
:1009B000084801F0DDFF3B68074A0021786807F02E
:1009C00075FCF860FB6818461037BD4680BD00BF57
:1009D0002CE90000E8E8000040420F0080B400AFBE
:1009E000034B1B681846BD465DF8047B704700BF8B
:1009F0006C06002080B582B000AF1B4B1B68002B3B
:100A000002D0194B1B68984704F040F87860174BE8
:100A10001B680133154A136003F0B4F838603B6873
:100A20009B6C5A1E3B689A643B689B6C002B12D1EE
:100A30003B685A6C3B689A643B6893F8343043F0E7
:100A40000803DAB23B6883F83420786804F022F8AF
:100A500002F0A4FD02E0786804F01CF803F088FEC0
:100A600000BF0837BD4680BD700600206C06002020
:100A700080B485B000AF78607B68002B03DA4FF05C
:100A8000FF33FB6027E07B68164A82FB031292115A
:100A9000DB17D31A4FF47A7202FB03F3FB607A6818
:100AA000104B83FB02139911D317CB1A4FF47A71B1
:100AB00001FB03F3D31A4FF47A7202FB03F303F240
:100AC000E733084A82FB03129211DB17D31A1A4646
:100AD000FB681344FB60FB6818461437BD465DF89D
:100AE000047B7047D34D621080B400AF00231846DA
:100AF000BD465DF8047B704780B400AF0023184604
:100B0000BD465DF8047B704780B400AF00231846F3
:100B1000BD465DF8047B704780B400AF00231846E3
:100B2000BD465DF8047B704780B582B000AF094BCD
:100B30007B6005E07B681B6898477B6804337B60BB
:100B40007B68054A9342F5D300BF00BF0837BD4616
:100B500080BD00BF98E60000A0E6000080B582B02E
:100B600000AF094B7B6005E07B681B6898477B689A
:100B700004337B607B68054A9342F5D300BF00BF16
:100B80000837BD4680BD00BFA0E60000ACE600000F
:100B900080B500AF00F036F80023184680BD80B560
:100BA00082B000AF7860FFF7D9FF08F0C0F800BF4F
:100BB0000837BD4680BDFFFF80B584B002AF142367
:100BC00001930A2300934FF40063002209490A4865
:100BD00003F086F878607B68002B04D1D5220749A2
:100BE000074801F0C5FE786802F0D8FF00BF08375B
:100BF000BD4680BD9F0B00003CE9000054E90000A9
:100C000044E9000080B500AF03F040FF0BF002FBA9
:100C100001F048F903F0ECFE02F088FCFFF7CCFF8E
:100C200003F000FF00F0CCFA02F09CFC0023184611
:100C300080BD80B584B000AFF860B9601346FB801A
:100C4000FB68002B02D14FF0FF3318E0B86800F0CA
:100C50001AF80346002B02D04FF0FF330FE0FB6879
:100C6000BA680921184602F0D3F9FB68FA88DA82DB
:100C7000FB6800229A76FB6800221A83002318463C
:100C80001037BD4680BD80B582B000AF78600921C5
:100C9000786802F033FB034618460837BD4680BD2E
:100CA00080B584B000AF78600B467B800023FB608A
:100CB0007B68002B04D1D0223749384801F058FE18
:100CC0007B68184602F000FB0346092B04D0D122B2
:100CD0003149334801F04CFE7B68DB8A03F0100396
:100CE000002B14D17B685B6A002B09D07B685B6AA0
:100CF00078689847F860FB68002B01D0FB6847E0F4
:100D00007B68DB8A43F010039AB27B68DA827B68E7
:100D1000DB8A03F00803002B08D07B681B8B03F0F1
:100D20000803002B02D06FF0060331E07B689B6A5A
:100D3000002B07D07B689B6A7A88114678689847B1
:100D4000F86007E07B8823F0F0031B051B0D9AB2C7
:100D50007B681A83FB68002B03D0FB6813F1060F36
:100D600015D17B681B8B43F008039AB27B681A830A
:100D70007B689B7E0133DAB27B689A767B689B7EC8
:100D8000002B04D1FF220449064801F0F1FDFB6865
:100D900018461037BD4680BD24EA000068E900000F
:100DA00078E9000010EA000080B584B000AF7860F8
:100DB0000023FB607B68002B05D14FF489721E492C
:100DC0001E4801F0D5FD7B68184602F07DFA034607
:100DD000092B05D040F213121749194801F0C8FD3C
:100DE0007B689B7E002B02D14FF0FF331FE07B68B6
:100DF0009B7E013BDAB27B689A767B689B7E002BF8
:100E000001D0002313E07B68DB6A002B04D07B68F1
:100E1000DB6A78689847F860FB68002B03D0FB68B2
:100E200013F1060F02D17B6800221A83FB68184673
:100E30001037BD4680BD00BF34EA000068E90000FD
:100E400078E9000090B585B000AFF860B9607A60CD
:100E50003B60FB68002B05D14FF4A072184919487C
:100E600001F086FDFB68184602F02EFA0346092BB6
:100E700005D040F241121249134801F079FDFB6898
:100E80009B7E002B05D14FF0FF3000F05DFE00236C
:100E900011E0FB681B6B002B08D0FB681C6B3B68E8
:100EA0007A68B968F868A047034604E06FF0050067
:100EB00000F04AFE002318461437BD4690BD00BF1F
:100EC00044EA000068E9000078E9000090B585B0C8
:100ED00000AFF860B9607A603B60FB68002B05D119
:100EE00040F26B121849194801F042FDFB681846A0
:100EF00002F0EAF90346092B05D04FF4B672124905
:100F0000134801F035FDFB689B7E002B05D14FF0A7
:100F1000FF3000F019FE002311E0FB685B6B002B33
:100F200008D0FB685C6B3B687A68B968F868A047D2
:100F3000034604E06FF0050000F006FE00231846AB
:100F40001437BD4690BD00BF54EA000068E90000B8
:100F500078E9000080B584B000AFF860B9607A60CD
:100F6000FB68002B05D140F28F121149114801F0A6
:100F7000FFFCFB68184602F0A7F90346092B05D0D1
:100F80004FF4C8720A490C4801F0F2FCFB689B6BF5
:100F9000002B07D0FB689B6B7A68B968F8689847A4
:100FA000034601E06FF0050318461037BD4680BDCB
:100FB00064EA000068E9000078E9000080B582B0CA
:100FC00000AF786039607B68002B05D140F2AB122E
:100FD0000C490D4801F0CCFC7B68184602F074F90E
:100FE0000346092B05D04FF4D6720649074801F095
:100FF000BFFC7B683A68DA61002318460837BD46B3
:1010000080BD00BF78EA000068E9000078E90000D0
:1010100080B483B000AF786039607B681B683A6841
:101020005A607B681A683B681A607B683A681A6085
:101030003B687A685A6000BF0C37BD465DF8047B98
:10104000704780B483B000AF78607B681B687A68B3
:1010500052685A607B685B687A6812681A607B68BD
:101060007A685A607B685A687B681A6000BF0C37E0
:10107000BD465DF8047B704780B586B000AF7860F0
:101080006FF002033B6103F001FDF86000237B6118
:1010900010E00E4A7B6952F82330002B07D10B4930
:1010A0007B697A6841F8232000233B6105E07B6976
:1010B00001337B617B69032BEBD9F86803F0EAFC11
:1010C0003B6918461837BD4680BD00BFF4080020B4
:1010D00080B582B000AF78607B681433194603484E
:1010E000FFF796FF00BF0837BD4680BD58000020BF
:1010F00090B583B000AF00237B600D4B3B603B6835
:101100001B683A689A420ED03B681B68143B7B60B0
:1011100003F0BCFC04467B6814331846FFF791FFCC
:10112000204603F0B7FC7B6818460C37BD4690BDDF
:101130005800002080B582B000AFFFF7D9FF78607B
:101140007B68002B1BD07B689B6F3B603B68002B50
:1011500002D03B6878689847786802F097F80346B1
:10116000012B03D1786801F0B9FFE6E77B689B6A41
:10117000184601F0CBFB786802F04AF8DDE700BFC3
:1011800000BF0837BD4680BD80B584B000AF786031
:101190000023FB600CE0094AFB6852F82330BB6077
:1011A000BB68002B01D0BB689847FB680133FB602C
:1011B000FB68032BEFD9FFF7BDFFE9E7F408002038
:1011C00080B588B004AF0023FB6024E03B1DFA68C3
:1011D0001549184601F036FAFB68DB01134A9818E6
:1011E000FB685B02124A1344391D202203921F221E
:1011F00002924FF400720192009300230D4A02F014
:1012000089FCFB68DB01094A1344184602F0C6FC5E
:10121000FB680133FB60FB68002BD7D000BF00BF29
:101220001037BD4680BD00BF94EA00007406002060
:10123000F40600208911000080B483B000AF78600C
:101240007B687A685A607B685A687B681A6000BF5E
:101250000C37BD465DF8047B704780B483B000AFA7
:10126000786039607B685B683A681A607B685A68A6
:101270003B685A607B683A685A603B687A681A60D3
:1012800000BF0C37BD465DF8047B704780B483B067
:1012900000AF78607B681B687A689A420CBF0123B4
:1012A0000023DBB218460C37BD465DF8047B70475F
:1012B00080B582B000AF78607B6814331846FFF7C2
:1012C000BBFF002318460837BD4680BD80B586B0F9
:1012D00000AFF860B9601346FB71B86802F06EFEAB
:1012E000FB79002B02D0012B07D031E0BB6814330F
:1012F0001946F868FFF7B1FF31E0FB681B687B61B6
:1013000017E07B69143B3B61BB6893F835203B6970
:1013100093F835309A4209D23B6903F11402BB6855
:10132000143319461046FFF798FF06E07B691B68E7
:101330007B617A69FB689A42E3D17A69FB689A42D9
:101340000CD1BB6814331946F868FFF786FF05E037
:10135000A3220549054801F00BFB00E000BF002374
:1013600018461837BD4680BD94EF00009CEA000087
:1013700080B584B000AF78607B681B68143BFB606D
:10138000F86802F07FFE002318461037BD4680BD86
:1013900080B584B000AFF860B9607A60FB70FB681C
:1013A000002B05D14FF496721749184801F0E0FA66
:1013B0007B68B3F5803F05D340F22D1212491448E3
:1013C00001F0D6FAFB78002B08D0FB78012B05D072
:1013D0004FF497720C490F4801F0CAFAFB68BA68DB
:1013E0000221184601F014FEFB681846FFF760FF63
:1013F0007B689AB2FB689A83FB68FA785A7200237A
:1014000018461037BD4680BD7CEF0000A0EA000002
:10141000B0EA0000C4EA000090B587B000AF786081
:1014200039607B68002B05D140F2E51255495648DA
:1014300001F09EFA7B68184601F046FF0346022B36
:1014400005D04FF4F3724F49504801F091FA504BD8
:101450001B68002B04D04E4B1B687A6810469847D7
:1014600003F014FB04467B689B8B002B09D07B6840
:101470009B8B013B9AB27B689A83204603F00AFB60
:1014800071E03B68002B05D1204603F003FB6FF0B1
:10149000010372E003F0FAFA786102F01BFA0346E6
:1014A000002B09D037493B4801F024F940F20622CD
:1014B0003449394801F05CFA03F0E8FA386102F087
:1014C00061FB0346002B09D12E49344801F012F983
:1014D00040F206222B49304801F04AFA03F0D6FACE
:1014E000F86000F01DFB0346002B09D025492C486D
:1014F00001F000F940F206222249274801F038FAAB
:10150000F86803F0C7FA386903F0C4FA786903F0A1
:10151000C1FA02F037FBB860BB6800221A637B682F
:1015200003F114007B685B7A1A46B968FFF7CEFEB8
:101530003B68002B0BDDBB684C333A460021184654
:1015400003F09AF8BB684C33184602F039FF204686
:1015500003F0A0FA02F022F8BB681B6B002B02D04C
:10156000BB681B6B09E00F4B1B68002B04D00D4BB5
:101570001B687A6810469847002318461C37BD46FA
:1015800090BD00BF88EF0000A0EA000000EB000063
:10159000D4090020DCEB00009CEA000008EC00000D
:1015A00078EB0000D8090020B0B582B000AF7860B9
:1015B0007B68002B05D140F25F222649264801F0C6
:1015C000D7F97B68184601F07FFE0346022B05D051
:1015D0004FF418721F49214801F0CAF9204B1B68CB
:1015E000002B04D01E4B1B687A68104698470025D4
:1015F00003F04CFA04467B6814331846FFF746FEA6
:101600000346002B06D17B6814331846FFF7B0FE63
:10161000012512E07B689B8B4FF6FF72934206D048
:101620007B689B8B01339AB27B689A8305E02046E6
:1016300003F030FA6FF0020307E0204603F02AFAC5
:10164000012D01D101F0AAFF002318460837BD463D
:10165000B0BD00BFA8EF0000A0EA000000EB000052
:10166000DC09002080B584B000AFF860B960134693
:10167000FB71FB68002B05D140F2E62210491148AE
:1016800001F076F9FB68BA680321184601F0C0FC46
:10169000FB681846FFF70CFEFB6801229A83FB6883
:1016A00000221A62FB68FF229A77FB680022DA7731
:1016B000FB6801225A72002318461037BD4680BDD0
:1016C000B8EF000040EC000090B587B000AF786044
:1016D000396003F0DBF9786102F0FCF80346002B77
:1016E00009D07749774801F005F84FF465727449DD
:1016F000754801F03DF903F0C9F9386102F042FA8A
:101700000346002B09D16E49704800F0F3FF4FF4F7
:1017100065726B496C4801F02BF903F0B7F9F8607A
:1017200000F0FEF90346002B09D06549684800F037
:10173000E1FF4FF465726249634801F019F9F868F6
:1017400003F0A8F9386903F0A5F9786903F0A2F964
:101750007B68002B05D140F2973259495D4801F072
:1017600007F97B68184601F0AFFD0346032B05D04F
:101770004FF466725249584801F0FAF802F002FA42
:10178000B86003F083F90446544B1B68002B04D067
:10179000524B1B687A6810469847BB6800221A6350
:1017A0007B681B6ABA689A4210D17B68DB7FFF2B8B
:1017B00006D07B68DB7F0133DAB27B68DA776DE0D5
:1017C000204603F067F96FF0020374E07B689B8B9F
:1017D000002B1ED07B689B8B013B9AB27B689A835F
:1017E0007B68BA681A62BB6893F835207B689A7781
:1017F0007B68DB7FFF2B06D07B68DB7F0133DAB2AF
:101800007B68DA774AE0204603F044F96FF0020380
:1018100051E03B68002B09D1BB686FF001021A63ED
:10182000204603F037F96FF0010344E0BB6893F8FA
:1018300035207B681B6A93F835309A4207D27B6863
:10184000186ABB6835331A46022102F039FB7B68FF
:1018500003F114007B685B7A1A46B968FFF736FD1E
:101860003B68002B0BDDBB684C333A460021184621
:1018700002F002FFBB684C33184602F0A1FD20467F
:1018800003F008F901F08AFEBB681B6B002B02D045
:10189000BB681B6B0FE003F0F9F80446204603F029
:1018A000F9F80F4B1B68002B04D00D4B1B687A68AE
:1018B00010469847002318461C37BD4690BD00BF10
:1018C000C8EF0000DCEB00009CEA000008EC000020
:1018D00078EB000040EC000054EC0000D40900203C
:1018E000D809002090B587B000AF78607B68002BE6
:1018F00005D140F244426349634801F039F87B68FE
:10190000184601F0E1FC0346032B05D040F24542A6
:101910005C495E4801F02CF800237B6103F0B6F8C7
:10192000386102F02FF90346002B09D15549584878
:1019300000F0E0FE40F24A425249564801F018F8E1
:1019400003F0A4F8F86000F0EBF80346002B09D090
:101950004C49514800F0CEFE40F24A4249494D48B8
:1019600001F006F8F86803F095F8386903F092F88A
:1019700002F008F9B86003F089F80446474B1B6889
:10198000002B04D0454B1B687A68104698477B684B
:101990001B6ABA689A4209D0BB684FF0FF321A63DB
:1019A000204603F077F84FF0FF3367E07B68DB7F7A
:1019B000013BDAB27B68DA777B68DB7F002B54D19E
:1019C0007B689A7F7B681B6A93F835309A4207D010
:1019D0007B68186A7B681E331A46022102F070FA8F
:1019E0007B6814331846FFF751FC0346002B23D1C4
:1019F0007B685B69143BBB607B68BA681A62BB6832
:101A000093F835207B689A777B68DB7FFF2B0DD0BE
:101A10007B68DB7F0133DAB27B68DA777B6814336B
:101A20001846FFF7A5FC01237B611EE0204603F06A
:101A300031F86FF0020321E07B689B8B4FF6FF7259
:101A400093420CD07B689B8B01339AB27B689A835C
:101A50007B6800221A627B68FF229A7705E02046A5
:101A600003F018F86FF0020308E0204603F012F8C4
:101A70007B69012B01D101F091FD002318461C3731
:101A8000BD4690BDD8EF000040EC000054EC0000D3
:101A900008EC00009CEA000078EB0000DC09002064
:101AA00080B582B000AF02F0F1FF78600A4B1B787E
:101AB000DBB20133DAB2084B1A70084B1B68002BFB
:101AC00002D0064B1B689847786802F0E3FF00BF1E
:101AD0000837BD4680BD00BF0C0900200409002066
:101AE00080B582B000AF02F0D1FF78600A4B1B686E
:101AF000002B02D0084B1B689847084B1B78DBB2C1
:101B0000013BDAB2054B1A70786802F0C3FF00BFE0
:101B10000837BD4680BD00BF080900200C09002021
:101B200080B582B000AF02F0B1FF7860054B1B7842
:101B3000FB70786802F0AEFFFB7818460837BD46A8
:101B400080BD00BF0C09002080B584B000AF786074
:101B5000FFF7E6FF0346002B03D00A4A7B681360B9
:101B60000CE002F00FF8F860FB68002B03D1054A87
:101B70007B68136002E0FB687A681A631037BD4621
:101B800080BD00BF1009002080B582B000AFFFF714
:101B9000C7FF0346002B01D0074B09E001F0F2FF1D
:101BA00078607B68002B02D07B68303300E0024B0A
:101BB00018460837BD4680BD1009002080B489B0A2
:101BC00000AFF860B9607A60FB68FB61BB68DBB2AC
:101BD0007B617B68032B40D9FB6803F00303002B78
:101BE0003BD1FB68BB617B691B027A6913433B6194
:101BF0003B691B043A6913433B6116E0BB691A1D3C
:101C0000BA613A691A60BB691A1DBA613A691A6009
:101C1000BB691A1DBA613A691A60BB691A1DBA61BB
:101C20003A691A607B68103B7B607B680F2BE5D8B4
:101C300007E0BB691A1DBA613A691A607B68043B08
:101C40007B607B68032BF4D8BB69FB6105E0FB6913
:101C50005A1CFA617A69D2B21A707B685A1E7A608D
:101C6000002BF4D1FB6818462437BD465DF8047B91
:101C7000704780B48BB000AFF860B9607A60FB68E1
:101C80007B62BB683B627B687B617B690F2B4DD9B4
:101C90003A6A7B6A134303F00303002B46D17B6A45
:101CA000FB613B6ABB6122E0BA69131DBB61FB6942
:101CB000191DF96112681A60BA69131DBB61FB69CD
:101CC000191DF96112681A60BA69131DBB61FB69BD
:101CD000191DF96112681A60BA69131DBB61FB69AD
:101CE000191DF96112681A607B69103B7B617B6981
:101CF0000F2BD9D80AE0BA69131DBB61FB69191D06
:101D0000F96112681A607B69043B7B617B69032B74
:101D1000F1D8FB697B62BB693B6207E03A6A531CFE
:101D20003B627B6A591C796212781A707B695A1E71
:101D30007A61002BF2D1FB6818462C37BD465DF85E
:101D4000047B704780B487B000AFF860B9607A60F8
:101D5000FB687B61BB683B613A697B699A4226D22A
:101D60003A697B6813447A699A4220D27A697B681F
:101D700013447B613A697B6813443B6109E03B692A
:101D8000013B3B617B69013B7B613B691A787B6965
:101D90001A707B685A1E7A60002BF0D10CE03A6909
:101DA000531C3B617B69591C796112781A707B68FE
:101DB0005A1E7A60002BF2D1FB6818461C37BD46CC
:101DC0005DF8047B704780B487B000AFF860B960FD
:101DD0007A607B68002B21D0FB687B61BB683B612C
:101DE0003A69531C3B617B69591C796112781A70FE
:101DF0001B78002B0CD104E07B695A1C7A6100220D
:101E00001A707B68013B7B607B68002BF4D105E096
:101E10007B68013B7B607B68002BE1D1FB68184647
:101E20001C37BD465DF8047B704790B484B000AFAA
:101E3000F860B9607A60002413E0FB681A78BB6828
:101E4000591CB9601B78D31ADBB25CB2002C0BD1E1
:101E5000FB685A1CFA601B78002B05D07B68013B9D
:101E60007B607B68002BE8D1234618461037BD46BF
:101E700090BC704780B485B000AF78607B68FB6031
:101E800002E0FB680133FB60FB681B78002BF8D194
:101E9000FA687B68D31A18461437BD465DF8047B90
:101EA0007047FFFF80B582B002AF0B4800F022FC04
:101EB0000A4800F01FFC0A4B01930A4B00930023D1
:101EC00001220421084800F015FC084800F012FC2B
:101ED00000BFBD4680BD00BFECEF0000F8EF000082
:101EE00040F000004CF000001CF0000058F0000032
:101EF00080B485B000AF786039603B680A2B17D199
:101F00007B681B681946134BA3FB0123DA081346B1
:101F10009B0013445B00CA1AFA607B681B681A4670
:101F20000C4BA3FB0223DB081A467B681A600AE00D
:101F30007B681B6803F00F03FB607B681B681B0951
:101F40001A467B681A60FB6818461437BD465DF870
:101F5000047B7047CDCCCCCC90B482B000AF78601D
:101F600000240DE023469B0023445B0018467B6859
:101F70001B68591C7A6811601B780344A3F1300474
:101F80007B681B681B78303B092BEBD9234618462E
:101F90000837BD4690BC7047B0B58CB000AFF86054
:101FA000B9607A603B607B6CBB623C6CBB6C03F0DD
:101FB0004003002B01D06D4B00E06D4B7B62BB6C8E
:101FC00003F01003002B03D0BB6C23F00103BB64B0
:101FD000BB6C03F00103002B01D0302300E0202371
:101FE00087F82330002387F82F30BB6C03F00203FF
:101FF000002B1AD07B68002B06DA2D2387F82F30B0
:102000007B685B427B6010E0BB6C03F00403002B39
:1020100003D02B2387F82F3007E0BB6C03F00803B5
:10202000002B02D0202387F82F3000257B68002B5F
:1020300019D12B465D1C07F130021344302203F8FE
:10204000202C13E03B1D39681846FFF751FF03466B
:102050001A467B6A1A442B465D1C127807F1300140
:102060000B4403F8202C7B68002BEBD17B6C9D424A
:1020700000DD7D647B6CE41ABB6C03F01103002B64
:1020800015D197F82F30002B0DD0002C0BDD013C23
:1020900009E0FA68BB689A4202D2FB6820221A70F3
:1020A000FB680133FB6023465C1E002BF1DC97F8D4
:1020B0002F30002B0BD0FA68BB689A4203D2FB6822
:1020C00097F82F201A70013CFB680133FB60BB6C52
:1020D00003F01003002B1AD10AE0FA68BB689A4299
:1020E00003D2FB6897F823201A70FB680133FB606A
:1020F00023465C1E002BF0DC09E0FA68BB689A42BC
:1021000002D2FB6830221A70FB680133FB607B6CE3
:102110005A1E7A649D42F0DB0DE0FA68BB689A4271
:1021200006D207F130032B4413F8202CFB681A70F9
:10213000FB680133FB602B465D1E002B0DDDBB6A87
:10214000002BEAD109E0FA68BB689A4202D2FB6828
:1021500020221A70FB680133FB6023465C1E002BB3
:10216000F1DCFB6818463037BD46B0BDF4F0000026
:1021700008F1000080B592B004AFF860B9607A60F1
:102180003B60FB68BB62FA68BB6813447B627A6A97
:10219000FB689A4280F026824FF0FF337B627A6AB6
:1021A000FB68D31ABB601DE27B681B78252B0BD024
:1021B000BA6A7B6A9A4203D27B681A78BB6A1A7041
:1021C000BB6A0133BB620AE20023BB777B68013341
:1021D0007B607B681B782D2B04D1BB7F43F0100301
:1021E000BB77F3E77B681B782B2B04D1BB7F43F0D5
:1021F0000403BB77EAE77B681B78202B04D1BB7F05
:1022000043F00803BB77E1E77B681B78232B04D1FD
:10221000BB7F43F02003BB77D8E77B681B78302B6C
:1022200004D1BB7F43F00103BB77CFE700BF4FF082
:10223000FF33BB617B681B78303B092B05D83B1D06
:102240001846FFF789FEB86115E07B681B782A2BDA
:1022500011D17B6801337B603B681A1D3A601B68B3
:10226000BB61BB69002B06DABB695B42BB61BB7F0C
:1022700043F01003BB774FF0FF337B617B681B7823
:102280002E2B1ED17B6801337B607B681B78303B33
:10229000092B05D83B1D1846FFF75EFE78610BE061
:1022A0007B681B782A2B07D17B6801337B603B68F6
:1022B0001A1D3A601B687B617B69002B01DA0023E1
:1022C0007B6100237B777B681B78682B03D07B685E
:1022D0001B786C2B05D17B681B787B777B6801337F
:1022E0007B600A23FB777B681B78252B00F0088135
:1022F000252BC0F21F81782B00F31C81582BC0F2D4
:102300001981583B202B00F2158101A252F823F0CD
:102310001D2500003525000035250000352500006D
:102320003525000035250000352500003525000045
:1023300035250000352500003525000095230000D7
:102340002B2500003525000035250000352500002F
:10235000352500002B25000035250000352500001F
:102360003525000035250000352500001725000023
:10237000C924000035250000352500000324000095
:1023800035250000712500003525000035250000A9
:1023900025250000BB7F03F01003002B10D109E0BE
:1023A000BA6A7B6A9A4202D2BB6A20221A70BB6A5E
:1023B0000133BB62BB69013BBB61BB69002BEFDC36
:1023C0003B681A1D3A601B68FB74BA6A7B6A9A42C2
:1023D00002D2BB6AFA7C1A70BB6A0133BB6209E0A5
:1023E000BA6A7B6A9A4202D2BB6A20221A70BB6A1E
:1023F0000133BB62BB69013BBB61BB69002BEFDCF6
:10240000EDE03B681A1D3A601B683B623B6A002B9B
:1024100001D1824B3B620023FB6202E0FB6A013385
:10242000FB62FA6ABB699A4205D0FB6A3A6A1344B6
:102430001B78002BF2D17B69002B05DDFA6A7B69E2
:102440009A4201DD7B69FB62BB7F03F01003002B26
:1024500010D109E0BA6A7B6A9A4202D2BB6A202292
:102460001A70BB6A0133BB62BB695A1EBA61FA6A51
:102470009A42EFDB00233B6310E0BA6A7B6A9A4220
:1024800003D23B6A1A78BB6A1A70BB6A0133BB621B
:102490003B6A01333B623B6B01333B633A6BFB6A44
:1024A0009A42EADB09E0BA6A7B6A9A4202D2BB6AC4
:1024B00020221A70BB6A0133BB62BB695A1EBA6123
:1024C000FA6A9A42EFDB8AE0BB69B3F1FF3F05D1BC
:1024D0000823BB61BB7F43F00103BB773B681A1D38
:1024E0003A601B681A46BB7F02937B690193BB6904
:1024F00000931023796AB86AFFF74EFDB8626EE068
:10250000BA6A7B6A9A4202D2BB6A25221A70BB6AF7
:102510000133BB6263E00823FB772AE0BB7F43F013
:102520004003BB771023FB7723E0BB7F43F002031C
:10253000BB771DE0BA6A7B6A9A4202D2BB6A252247
:102540001A70BB6A0133BB627B681B78002B0BD00F
:10255000BA6A7B6A9A4203D27B681A78BB6A1A709D
:10256000BB6A0133BB623AE07B68013B7B6036E0CB
:1025700000BF7B7F6C2B09D13B681A1D3A601B683A
:102580007B63BB7F03F00203002B1AE07B7F682B89
:102590000ED13B681A1D3A601B689BB27B63BB7F00
:1025A00003F00203002B0CD07B6B1BB27B6308E0B3
:1025B0003B681A1D3A601B687B63BB7F03F0020314
:1025C000002B7A6BF97FBB7F02937B690193BB6918
:1025D00000930B46796AB86AFFF7DEFCB8627B6845
:1025E00001337B607B681B78002B7FF4DDADBB681B
:1025F000002B0BD0BA6A7B6A9A4203D2BB6A0022D4
:102600001A7003E07B6A013B00221A70BA6AFB6809
:10261000D31A18463837BD4680BD00BF84F000008D
:1026200080B584B000AFF860B9607A607B68BA6842
:102630004FF0FF31F868FFF79DFD0346184610374D
:10264000BD4680BD0EB480B585B000AF786007F19F
:102650002003BB60BA68F9697868FFF7E1FFF860AA
:10266000FB6818461437BD46BDE8804003B070478C
:1026700080B400AF034B1B681846BD465DF8047B71
:10268000704700BF1409002080B584B000AF7860A7
:10269000124B1B68FB607868FEF7F5FAB860BA6801
:1026A000FB689A4201D1002313E0BB68002B0FD0D6
:1026B0000A4B1B68002B04D0084B1B681846FEF71A
:1026C00073FB4321B868FEF7EBFA044ABB6813605A
:1026D000FB6818461037BD4680BD00BF14090020B6
:1026E00080B483B000AF786000BF0C37BD465DF8A2
:1026F000047B70470FB480B582B000AF07F11403BC
:102700003B603B683A697F211048FFF733FD034681
:102710007B607B687F2B01D97F237B600C4B1B6820
:10272000002B03D10948FFF7DBFF06E0084B1868D0
:102730007B68064A0021FEF7C9FB7B68184608370C
:10274000BD46BDE8804004B0704700BF4C09002082
:102750001409002080B500AF012203490348FEF7A9
:1027600081FF00BF80BD00BF8CF000002009002069
:1027700080B500AF01F006FA0346002B06D04FF0FB
:10278000FF310448FEF7A0FF034600E0002318468F
:1027900080BD00BF2009002080B582B000AF786006
:1027A0007B68002B05D04FF4AC620849084800F064
:1027B000DFF801F0E7F90346002B02D00548FFF7E8
:1027C00091F800BF0837BD4680BD00BF30F1000062
:1027D00094F000002009002080B485B000AFF860BC
:1027E000B9607A60FB68002B04D00D4B1B68DA6976
:1027F000FB681A60BB68002B04D0094B1B681A6A7F
:10280000BB681A607B68002B04D0054B1B685A6AB2
:102810007B681A6000BF1437BD465DF8047B7047C3
:102820004409002080B584B000AF786039607B68CF
:10283000033323F00303FB603B6823F00303BB6017
:10284000BA68FB689A4205D840F2B6520A490B486A
:1028500000F08EF8BA68FB68D31A1A4679680848FF
:1028600000F028F90346074A1360FFF773FF00BF23
:102870001037BD4680BD00BF1CF10000A4F0000071
:102880008CF000004409002080B584B000AF78606F
:10289000FFF76EFFF8600C4B1B687968184600F074
:1028A0008BF9B860F868FFF777FF084B1B68002BBF
:1028B00004D0064B1B687968B8689847BB6818460F
:1028C0001037BD4680BD00BF440900201809002014
:1028D00080B584B000AF786039607B683A6802FBED
:1028E00003F31846FFF7D0FFF860FB68002B08D011
:1028F0007B683A6802FB03F31A460021F868FFF789
:102900005DF9FB6818461037BD4680BD80B584B0C0
:1029100000AF78600A4B1B68002B03D0084B1B6884
:1029200078689847FFF724FFF860786800F078FA35
:10293000F868FFF731FF00BF1037BD4680BD00BF0C
:102940001C09002080B586B000AFF860B9607A60DD
:10295000FFF70EFF78617A68B968F868FFF73CFF07
:102960007869FFF719FF00BF1837BD4680BDFFFF2C
:1029700080B586B000AFF860B9607A600023FB755F
:102980000C4B1B68002B0BD17B68BA68F9680A48AE
:10299000FFF7B0FE00BFFB7DDBB2002BFBD005E0F4
:1029A000044B1B687A68B968F868984700BF183705
:1029B000BD4680BD48090020BCF0000080B584B051
:1029C00000AF786039607B689B6A3A689A4204D2AB
:1029D000822235493548FFF7CBFF7B68DB6A3A68CE
:1029E0009A4204D3832230493148FFF7C1FF7B6804
:1029F0009A6A3B685B681344FB603A68FB689A42DA
:102A000024D0FB681B6803F00103002B1ED17B68F8
:102A1000DB6AFA689A4219D07B681B6BFA689A42A3
:102A200002D17B683A681A63FB6800221A60FB686F
:102A30005A683B685A607B689B6A3A68D11A7B681F
:102A40009A6AFB685B6813440A469A607B689A6AD4
:102A50003B689B681344BB60BA683B689A421FD0CE
:102A6000BB681B6803F00103002B19D17B681B6B4B
:102A70003A689A4202D17B68BA681A633B680022BE
:102A80001A603B685A68BB685A607B689B6ABA6880
:102A9000D11A7B689A6A3B685B6813440A469A605D
:102AA00000BF1037BD4680BD5CF5000040F100005E
:102AB00064F1000080B58AB000AFF860B9607A6058
:102AC000BB68033323F003037B627B6A38333B62CA
:102AD0003B6A033323F00303FB61BA687B6813444A
:102AE00023F00303BB61BB69182B53D9BB69183BA7
:102AF0003A6A9A424ED8BA69FB69D31A183B7B618D
:102B000038220021786AFFF759F87B6AFA680C21AD
:102B1000184600F07DFA7B6A254A5A617B6AFA6999
:102B20009A617B6A7A69DA617B6A7A695A63FA69BF
:102B30007B6A9A627B6A9B6A3B617B6A23F0010233
:102B40003B691A607B6A5B6B03F10C023B695A605C
:102B50003B6900229A607B6A9A6A3B695B681A4407
:102B60007B6ADA627A6A7B6ADB6A42F001021A6087
:102B70007B6A5A6B7B6ADB6A0C325A607B6A5A6BDF
:102B80007B6ADB6A0C329A607B6A9A6A7B6A1A6398
:102B90007B6A08E0B968BA687B6813441A4605483E
:102BA000FFF7A8FD002318462837BD4680BD00BFAB
:102BB00094F100009CF1000080B588B000AF78600F
:102BC00039603B68002B01D1002315E17B68002BA5
:102BD00005D14FF490728A498A48FFF7C9FE7B6895
:102BE000184600F071FB03460C2B05D040F2211271
:102BF00083498548FFF7BCFE7B68184600F046FB1A
:102C00000346002B05D14FF491727D497F48FFF7B1
:102C1000AFFE7B68BB613B68033323F003033B607B
:102C2000BB695B6B3A689A4201D90023E4E03B68D8
:102C30000B2B01D80C233B60BB691A6BBB699B6AE9
:102C4000D31AFB61CFE0BB699A6AFB6913447B61CD
:102C50007B691B6803F00103002B40F0BE807B6999
:102C60005A68FB69D31A0C3B3A689A4200F2B58065
:102C70007B695A68FB69D31AA3F10C023B681833CD
:102C80009A4239D3FA693B6813440C333B61BB6900
:102C90009A6A3B691344FB60BB6923F00102FB683D
:102CA0001A607B695A68FB685A60FB68FA699A6027
:102CB0007B693A695A60FB685A68BB695B6B0C3385
:102CC0009A4206D0BB699A6AFB685B6813443A690A
:102CD0009A60BB691A6A3B68134403F10C02BB6932
:102CE0001A62BB695A6ABB691B6A9A421AD2BB69EB
:102CF0001A6ABB695A6215E0BB691A6A7B695B682C
:102D0000B969896A7869411A5B1A1A44BB691A62FF
:102D1000BB695A6ABB691B6A9A4203D2BB691A6AC9
:102D2000BB695A62BB6943F001027B691A60BB69E7
:102D30001B6B7A699A4228D107E0BB699A6ABB6922
:102D40001B6B5B681A44BB691A63BB691B6B1B680E
:102D500003F00103002B05D0BB691A6BBB69DB6A6A
:102D60009A42EAD1BB691A6BBB69DB6A9A420CD002
:102D7000BB691B6B1B6803F00103002B05D040F2FD
:102D800083121F492248FFF7F3FD7A693B68134419
:102D90000C33BA69D26A934205D940F285121849B8
:102DA0001C48FFF7E5FD7B690C3303F00303002BA0
:102DB00005D04FF4C37212491748FFF7D9FD7B695C
:102DC00003F00303002B05D040F287120C4913488F
:102DD000FFF7CEFD7B690C330EE0BB699A6AFB6995
:102DE00013445B68FB61BB695A6B3B68D31AFA6991
:102DF0009A427FF628AF002318462037BD4680BD93
:102E000068F50000D8F10000E8F1000024F20000AD
:102E10004CF200009CF20000ECF2000038F30000DD
:102E200080B584B000AF78607B68002B00F08380B1
:102E30007B6803F00303002B05D04FF40272404976
:102E40004048FFF795FD7B680C3BFB60FB681B6807
:102E500023F00103BB60BB68002B05D14FF4057262
:102E600037493948FFF784FDFB681B6803F001030D
:102E7000002B05D140F2152231493448FFF778FD87
:102E8000BB68184600F020FA03460C2B05D040F230
:102E900016222B492E48FFF76BFDBB68184600F041
:102EA000F5F90346002B05D140F2172224492948A1
:102EB000FFF75EFDBB689B6A7A689A4204D3BB68E1
:102EC000DB6A7A689A4205D34FF406721C4922489D
:102ED000FFF74EFDBB689A6AFB685B6813441B688A
:102EE00023F001031A46BB68934205D040F21A2230
:102EF00013491A48FFF73CFDBB6823F00102FB6849
:102F00001A60BB681B6BFA689A4202D2BB68FA6807
:102F10001A63BB681A6ABB689B6AF968CB1A1946C0
:102F2000FB685B68CB1A1A44BB681A62F968B86818
:102F3000FFF744FD00E000BF1037BD4680BD00BF75
:102F400078F5000068F3000008F4000020F40000A9
:102F500030F4000078F40000B0F4000024F5000024
:102F600080B483B000AF786039607B681B683A68D2
:102F70005A607B681A683B681A607B683A681A6016
:102F80003B687A685A6000BF0C37BD465DF8047B29
:102F9000704780B483B000AF78607B681B687A6844
:102FA00052685A607B685B687A6812681A607B684E
:102FB0007A685A607B685A687B681A6000BF0C3771
:102FC000BD465DF8047B704780B485B000AF034612
:102FD000FB710023FB600FE00C4AFB681B011344EC
:102FE0001B78FA799A4204D1FB681B01074A134403
:102FF00006E0FB680133FB60FB68082BECDD002377
:1030000018461437BD465DF8047B70476000002009
:1030100090B589B000AFF8600B467A60FB72002370
:10302000FB61FB7A1846FFF7CFFFB861BB69002B45
:1030300005D14FF4AB7225492548FFF799FC00F004
:1030400009FCBB695B68FB6112E0FB690C3B7B61BF
:103050007B69002B09D07A69FB689A4205D14FF44D
:10306000B3721A491B48FFF783FCFB691B68FB61BD
:10307000BB690433FA699A42E7D100F001FCFB7A9C
:1030800063F07F03DAB2FB681A72FB680822796882
:103090001846FEF798FE104B1B68002B03D00E4B12
:1030A0001B68F868984701F0F1FC0446BB691A1DDB
:1030B000FB680C3319461046FFF752FF204601F01B
:1030C000E9FC00BF2437BD4690BD00BF1CF60000E0
:1030D00088F50000A0F50000CC09002090B583B071
:1030E00000AF78607B68002B05D140F293120F4946
:1030F0000F48FFF73DFC0F4B1B68002B03D00D4B17
:103100001B68786898477B6800221A7201F0BEFC41
:1031100004467B680C331846FFF73BFF204601F05E
:10312000B9FC00BF0C37BD4690BD00BF2CF60000B7
:10313000B0F50000D009002090B587B000AF03467D
:103140003960FB7101F0A2FC7861FEF7E9FC0346EF
:10315000002B09D029492A48FFF7CCFA40F2B712D0
:1031600026492848FFF704FC786901F093FCFB79B5
:103170001846FFF729FF38613B69002B05D140F263
:10318000BB121E492048FFF7F3FB3B69DB6818467A
:10319000FFF77AFBF860FB68002B01D1002329E0E0
:1031A0003B69DB681A460021F868FEF707FDFB68FB
:1031B000FA791A72FB6800225A72FB680822396891
:1031C0001846FEF700FE114B1B68002B03D00F4B77
:1031D0001B68F868984701F059FC04463B691A1DC2
:1031E000FB680C3319461046FFF7BAFE204601F083
:1031F00051FCFB6818461C37BD4690BD40F60000E8
:10320000C4F50000ECF5000088F50000CC090020B2
:1032100090B583B000AF78607B68002B05D140F299
:10322000F51216491648FFF7A3FB7B681B7A5BB2C1
:10323000002B05DA4FF4FB7210491248FFF798FB98
:10324000114B1B68002B03D00F4B1B687868984705
:103250007B6800221A7201F019FC04467B680C336B
:103260001846FFF796FE204601F014FC7868FFF739
:103270004DFB00BF0C37BD4690BD00BF54F60000AB
:10328000B0F50000F0F50000D009002080B582B054
:1032900000AF78607B68002B05D14FF406720849B7
:1032A0000848FFF765FB7B681B7A5BB2002B01DAED
:1032B000012300E0002318460837BD4680BD00BF4B
:1032C00068F60000B0F5000080B582B000AF78600D
:1032D0007B68002B05D140F22B2206490648FFF7F8
:1032E00047FB7B681B7A03F07F03DBB21846083785
:1032F000BD4680BD84F60000B0F5000080B586B004
:1033000000AF78600B46FB7000233B6100237B61BC
:103310000023FB60FB781846FFF756FEF8607B68D9
:10332000002B02D0FB68002B01D1002335E001F017
:10333000ADFBB860FEF7F4FB0346002B09D019493A
:103340001948FFF7D7F940F2492216491748FFF705
:103350000FFBB86801F09EFB00F07CFAFB685B682D
:103360007B6112E07B690C3B3B613B690822796819
:103370001846FEF75AFD0346002B03D100F080FAF1
:103380003B690AE07B691B687B61FB6804337A69EF
:103390009A42E7D100F074FA002318461837BD4668
:1033A00080BD00BF98F60000C4F50000ECF50000F9
:1033B00080B483B000AF78607B687A685A607B68BD
:1033C0005A687B681A6000BF0C37BD465DF8047B05
:1033D000704780B483B000AF786039607B685B6809
:1033E0003A681A607B685A683B685A607B683A683A
:1033F0005A603B687A681A6000BF0C37BD465DF8BA
:10340000047B704780B483B000AF78607B681B6832
:103410007A6852685A607B685B687A6812681A60DA
:103420007B687A685A607B685A687B681A6000BF5C
:103430000C37BD465DF8047B704780B483B000AFA5
:1034400078607B681B687A689A420CBF012300236E
:10345000DBB218460C37BD465DF8047B7047FFFFB2
:1034600080B584B000AF78607B68002B04D15F2208
:103470001C491D48FFF77CFA7B689B6A1B78232B4D
:1034800011D17B68DB691A467B689B6A9A420AD92C
:103490007B68DB691A467B689B6A19467B68DB6A36
:1034A0000B449A420CD97B6819461048FFF722F961
:1034B00001F0ECFA0346FB60FB68002BFCD10DE049
:1034C0007B68DB691A467B689B6A20339A4205D881
:1034D0007B6819460648FFF70DF9FFE700BF103774
:1034E000BD4680BD10F70000A8F60000BCF6000045
:1034F000D8F60000B0B582B000AF7860094B1B6809
:10350000184601F0C9FD0346013B1C46064B53F823
:103510003430A3F114057B681C602B46184608372D
:10352000BD46B0BDE00A0020E009002098B500AF1C
:10353000094B00221A80002406E0E300074A1344E6
:103540001846FFF735FF01341F2CF6DD044B00222F
:103550001A6000BF98BD00BFE40A0020E009002007
:10356000E00A002090B583B000AF3B1D1846FFF77E
:10357000C1FF0446084B1C60204600F033F90323CA
:1035800084F8343004F11C03184601F0CCFA00BF73
:103590000C37BD4690BD00BFE80A002080B586B05C
:1035A00000AF01F073FAF8605C4BB3F90030002B08
:1035B00040F0AC805A4B1B68002B00F0A780002322
:1035C0003B613B1D1846FFF795FF7861554B1B6823
:1035D00093F8343003F00703032B2CD1514B1B68B5
:1035E00093F835301A467B689A4203D24D4B1B68DC
:1035F0007B6115E04B4B1B6893F835301A467B68AE
:103600009A420BD1474B1B6893F8343003F0080300
:10361000002B03D1434B1B687B6101E001233B611D
:10362000404B1B6893F834203E4B1B6822F0080285
:10363000D2B283F834203B4B1B687A699A4250D04F
:103640007B68DAB2384B1A70364B1B68BB60354A60
:103650007B691360354B1B68002B04D0334B1B6810
:103660007969B86898473B69002B02D0B86800F0C8
:1036700063F8786900F0B6F87B6993F834305BB290
:1036800023F007035BB243F003035BB2DAB27B695A
:1036900083F834207869FFF7E3FE254B1B78DBB213
:1036A000002B14D1234B1B68002B03D0214B1B682C
:1036B000B8689847BB681C331A467B691C331946A7
:1036C000104601F0EAF9F86801F0E4F922E0BB687D
:1036D0001C331A467B691C331946104601F0DDF98C
:1036E00014E0104B1B68184600F07CF80D4B1B686B
:1036F00093F834305BB223F007035BB243F003036B
:103700005AB2084B1B68D2B283F83420F86801F033
:10371000C1F900BF1837BD4680BD00BFE40A0020D4
:10372000E00A0020E80A0020EC0A0020F00A00204D
:103730000C090020F40A002090B583B000AF786037
:103740007B68002B05D140F2D22221492148FFF7A6
:103750000FF901F09BF904461F4B1B687A689A42E7
:103760000ED17B6893F834305BB223F007035BB271
:1037700043F003035BB2DAB27B6883F8342020E0C5
:103780007B6893F834305BB223F007035BB243F0FD
:1037900001035BB2DAB27B6883F834207B6893F86C
:1037A0003530DB000D4A1A447B6814331946104645
:1037B000FFF70FFE7B689A6B094B1B681343084A9F
:1037C0001360204601F066F900BF0C37BD4690BD7E
:1037D0002CF70000A8F60000E80A0020E00900200D
:1037E000E00A002090B583B000AF78607B68002BC2
:1037F00005D140F2333213491348FFF7B9F801F00D
:1038000045F904467B6814331846FFF7FBFD7B68D7
:1038100093F83530DB000D4A13441846FFF70DFED0
:103820000346002B07D07B689B6BDA43084B1B6871
:103830001340074A1360204601F02CF900BF0C37F3
:10384000BD4690BD48F70000A8F60000E009002042
:10385000E00A002098B500AF01F018F90446074BC4
:10386000B3F900309BB201339BB21AB2034B1A80FA
:10387000204601F00FF900BF98BD00BFE40A002008
:1038800098B500AF01F002F90446104BB3F90030CF
:103890009BB2013B9BB21AB20C4B1A800B4BB3F993
:1038A0000030002B0CDC094B00221A80204601F06E
:1038B000F1F8074B1B68002B05D0FFF76FFE02E005
:1038C000204601F0E7F800BF98BD00BFE40A0020E1
:1038D000E80A002080B400AF044BB3F900309BB27B
:1038E0001846BD465DF8047B704700BFE40A00201F
:1038F00080B483B000AF78607B687A685A607B6878
:103900005A687B681A6000BF0C37BD465DF8047BBF
:10391000704780B483B000AF78607B681B687A68BA
:1039200052685A607B685B687A6812681A607B68C4
:103930007A685A607B685A687B681A6000BF0C37E7
:10394000BD465DF8047B704790B583B000AF00F0D2
:1039500019F9786001F09AF804467868FFF742FF99
:103960007B684C33184600F0E3FC7B68042283F844
:1039700034207868FDF7ACFB204601F08BF8FFF7A8
:103980000DFE00BF0C37BD4690BDFFFF90B585B062
:1039900000AF78607B68FB60FB68002B04D1872256
:1039A00019491A48FEF7E4FFFB6893F8343003F036
:1039B0000703022B04D0882213491548FEF7D8FFCD
:1039C000F868FFF781FC0346012B04D089220E49D9
:1039D0001048FEF7CDFF01F059F80446FB686FF080
:1039E00001021A63FB6814331846FFF792FFF86868
:1039F000FFF7A2FE204601F04DF8FFF7CFFD00BF14
:103A00001437BD4690BD00BF04F9000064F7000004
:103A100078F70000B4F7000080B586B002AFF86018
:103A2000B9607A603B60FB6814331846FFF760FFAB
:103A3000FB687A681A62FB683A685A62FB68BA697E
:103A40009A62FB68FA69DA62FB68986AFB68DB6A6B
:103A50001A462321FEF7B2F8FB68186AFB68596A18
:103A6000FB689A6AFB68DB6A043B1A44244B01F04A
:103A7000ABF80246FB68DA6197F820301F2B04D9B7
:103A8000BE2220492048FEF773FFFB6897F82020EC
:103A900083F83520FB6800229A63FB680022DA6312
:103AA000FB68002283F84020FB687A6A5A64FB684E
:103AB0007A6A9A64FB6800221A63FB68002283F822
:103AC0003420FB6800229A67FB680022DA67FB68F3
:103AD00003F14C00F9680023019300230093FB6875
:103AE0000A4A00F0E7FB0A4B1B68002B03D0084B87
:103AF0001B68F8689847002318461037BD4680BDFC
:103B00004939000014F90000F8F700008D39000071
:103B1000000B002080B588B004AFF860B9607A600F
:103B20003B60FB68002B05D140F23112124913486B
:103B3000FEF71EFFBB69002B05D14FF499720E49A9
:103B40000F48FEF715FFBA680121F868FFF760FA21
:103B50007B6A039397F820300293FB690193BB695A
:103B600000933B687A68B968F868FFF755FF034629
:103B700018461037BD4680BD24F9000064F70000E8
:103B80001CF8000080B400AF034B1B681846BD460C
:103B90005DF8047B704700BFE80A002080B582B062
:103BA00000AF78607B68002B05D14FF4B2721C49DE
:103BB0001C48FEF7DDFE7B6893F8343003F0070302
:103BC000002B05D040F2651215491748FEF7D0FECC
:103BD0007868FFF779FB0346012B05D04FF4B372E9
:103BE0000F491248FEF7C4FE7B6893F835301A4639
:103BF000012393401A467B689A637B68022283F80C
:103C00003420786800F03EFAFFF7BCFF0346002B33
:103C100001D0FFF7C3FC002318460837BD4680BD1E
:103C200034F9000064F7000034F80000B4F7000035
:103C300080B584B000AF78607B68002B05D140F27E
:103C40008F1223492348FEF793FE7868FFF73CFB69
:103C50000346012B05D04FF4C8721D491E48FEF7DC
:103C600087FE7868FFF712FB0346002B05D140F270
:103C7000911217491948FEF77BFE7B6893F83430A0
:103C800003F00703042B01D100231CE07B6893F8A9
:103C9000343003F00703002B02D07868FFF7A2FD51
:103CA00000F0F4FEF8607B684C33184600F040FBEF
:103CB0007B68042283F834207868FDF709FAF868F5
:103CC00000F0E8FE002318461037BD4680BD00BF57
:103CD00048F9000064F70000B4F700006CF8000039
:103CE00080B58AB004AFF860B9607A603B60F9686B
:103CF0000120FFF721FA78617B69002B01D10023B5
:103D00001BE03868FEF7C0FD38613B69002B04D129
:103D10007869FFF77DFA00230FE07B6A039397F839
:103D2000203002933B6801933B6900937B68BA683B
:103D3000F9687869FFF770FE7B6918461837BD4649
:103D400080BDFFFF80B584B000AF78607B68002B3A
:103D500005D14FF4FB7223492348FEF709FE78682A
:103D6000FFF7B2FA0346012B05D040F2F7121D49C6
:103D70001E48FEF7FDFD7868FFF788FA0346002B22
:103D800005D04FF4FC7217491948FEF7F1FD7B6826
:103D900093F8343003F00703042B01D100231CE017
:103DA0007B6893F8343003F00703002B02D0786867
:103DB000FFF718FD00F06AFEF8607B684C33184688
:103DC00000F0B6FA7B68042283F834207868FDF7A7
:103DD0007FF9F86800F05EFE002318461037BD46F4
:103DE00080BD00BF5CF9000064F70000B4F700007C
:103DF0009CF8000090B585B000AF7860FFF7C2FE78
:103E0000F860FB68002B05D140F23F221B491C489B
:103E1000FEF7AEFDF868FFF757FA0346012B05D011
:103E20004FF4107215491748FEF7A2FD00F02EFE60
:103E30000446FB6800221A63F86800F0BFF8FB68CC
:103E40004C333A1D0021184600F016FCFB684C3339
:103E5000184600F0B5FA204600F01CFEFFF79EFB66
:103E6000FB681B6B13F1020F02D1FB6800221A637F
:103E7000FB681B6B18461437BD4690BD70F90000F7
:103E800064F70000B4F7000080B582B000AF78603E
:103E90007868FFF7AFFF034618460837BD4680BD78
:103EA00080B584B000AF78607868FCF7E1FDF86019
:103EB000F868FFF79FFF034618461037BD4680BDE0
:103EC00090B587B000AFF860B9607A60FB68002BEE
:103ED00005D140F2D52236493648FEF749FDF8684B
:103EE000FFF7F2F90346012B05D040F2D622304904
:103EF0003148FEF73DFDBB68022B09D0BB68022BA1
:103F00004FDCBB68002B34D0BB68012B36D048E0B7
:103F100000F0BCFD0446FB6893F8343003F007035F
:103F2000012B14D1F868FFF75DFC7B681A78FB68F9
:103F300083F83520FB6893F835301A460123934007
:103F40001A46FB689A63F868FFF7F6FB0DE07B689A
:103F50001A78FB6883F83520FB6893F835301A46E9
:103F6000012393401A46FB689A63204600F092FDB5
:103F700018E0F868FFF712FE034614E0F868FFF750
:103F800085F90346012B04D1F868FFF751FE7861EB
:103F900003E0F868FFF7D6FE7861FFF7FFFA7B6968
:103FA00001E000BF002318461C37BD4690BD00BF8E
:103FB00080F9000064F70000B4F7000090B583B00A
:103FC00000AF78607B68002B05D140F24B32284966
:103FD0002848FEF7CDFC7868FFF776F90346012BF9
:103FE00005D04FF4537222492348FEF7C1FCFFF776
:103FF000C9FD02467B68934205D040F24D321C4910
:104000001E48FEF7B5FC7B6893F8343003F00704D4
:10401000012C04D0032C02D04FF0FF3324E000F039
:1040200035FD04467868FFF7DDFB7B6893F8343094
:104030005BB223F007035BB243F002035BB2DAB278
:104040007B6883F834207B684C33184600F0CAFA4A
:10405000204600F01FFD0A4B1B68002B03D0084BC5
:104060001B6878689847002318460C37BD4690BDFA
:1040700094F9000064F70000B4F70000E8F80000CD
:10408000F80A002090B583B000AF78607B68002B01
:1040900005D140F279321D491D48FEF769FC786868
:1040A000FFF712F90346012B05D040F27A32174987
:1040B0001848FEF75DFC7B6893F8343003F0070383
:1040C000022B02D04FF0FF331BE000F0DFFC044670
:1040D0007B6814331846FFF71CFC7B684C3318468A
:1040E00000F080FA7868FFF727FB204600F0D2FC4A
:1040F000094B1B68002B03D0074B1B687868984757
:10410000002318460C37BD4690BD00BFA8F900003B
:1041100064F70000B4F70000FC0A002080B483B00C
:1041200000AF78607B687A685A607B685A687B6801
:104130001A6000BF0C37BD465DF8047B704780B441
:1041400083B000AF786039607B681B683A685A605A
:104150007B681A683B681A607B683A681A603B683B
:104160007A685A6000BF0C37BD465DF8047B704723
:1041700080B483B000AF78607B681B687A6852684F
:104180005A607B685B687A6812681A607B687A6834
:104190005A607B685A687B681A6000BF0C37BD465E
:1041A0005DF8047B704780B483B000AF78607B68B3
:1041B0001B687A689A420CBF01230023DBB21846C1
:1041C0000C37BD465DF8047B704780B586B000AF04
:1041D000F860B9607A603B60FB6897F820205A72FB
:1041E000FB685B7A23F00103DAB2FB685A72FB6862
:1041F000BA68DA61FB687A681A62FB6800229A6220
:10420000FB683A685A6200237B610BE07B690233EA
:10421000DB00FA68134404331846FFF77FFF7B691D
:1042200001337B617B69002BF0DD00BF00BF1837D5
:10423000BD4680BD90B585B000AF7860396000F0B4
:1042400025FC04467868FFF7AEFF0346002B0CD12F
:104250007B681B68143BFB60FB689A6A3B681A60CA
:10426000204600F017FC002304E0204600F012FC7A
:104270004FF0FF3318461437BD4690BD80B584B06B
:1042800000AF78600023FB600BE0FB680233DB00CB
:104290007A68134404331846FFF76AFFFB6801335A
:1042A000FB60FB68002BF0DD00BF00BF1037BD4690
:1042B00080BDFFFF80B586B002AFF860B9607A605C
:1042C0003B60FB68002B05D140F20F1214491548E2
:1042D000FEF74EFB7B68002B05D14FF48872104926
:1042E0001148FEF745FBBB696FF00042934205D3CE
:1042F00040F211120A490D48FEF73AFBFB68BA6812
:104300000A211846FEF784FE3B7F0093BB693A689A
:104310007968F868FFF759FF00BF1037BD4680BDC8
:10432000CCFA0000BCF90000D0F90000E4F900006C
:1043300090B583B000AF78607B68002B05D14FF457
:1043400093721B491B48FEF713FB7B681846FEF768
:10435000BBFF03460A2B05D040F22712144916482A
:10436000FEF706FB7B681846FEF790FF0346002B1E
:1043700005D14FF494720E491048FEF7F9FA00F097
:1043800085FB04467868FFF779FF7B685B7A23F04A
:104390000103DAB27B685A72204600F07BFB7B682F
:1043A0001846FEF79BFE002318460C37BD4690BD0D
:1043B000DCFA0000BCF90000FCF9000038FA00004B
:1043C000B0B588B000AF78607B68002B05D14FF4A2
:1043D000CC727B497B48FEF7CBFA7B681846FEF728
:1043E00073FF03460A2B05D040F2991274497648B0
:1043F000FEF7BEFA002400F049FB05467868FFF797
:104400003DFF7B685B7A23F00103DAB27B685A7266
:104410006E4B1B68002B04D06C4B1B687A681046EF
:104420009847FCF7DBFA02467B685B6A1A447B68B4
:104430009A627B685B7A03F00403002B02D0644B22
:10444000BB6101E0634BBB61BB69BB600023FB61E7
:1044500055E0FB699B0007F12002134453F8183C18
:104460001B683B61FB69DB0014335B423A69134410
:10447000FB60FB689A6A7B689B6A9A4209D0FB687A
:104480009A6A7B689B6AD31A6FF0004293421FD3EB
:1044900000E000BFFB699B0007F12002134453F8C2
:1044A000183C1A68FB699B0007F120010B4443F894
:1044B000182CFB699B0007F12002134453F8182CB9
:1044C000FB69DB00B9690B445B689A42C1D100E02B
:1044D00000BFFB69002B0FD0FB699B0007F1200296
:1044E000134453F8182CFB69013308329B0007F181
:1044F00020010B4443F8182CFB690133FB61FB6975
:10450000002BD6D0344B1B680133334A1360324B37
:104510001B687B61BA687B68143319461046FFF745
:104520000EFE0223FB611EE07B6903F00303002BF8
:104530001DD1FB69C3F101039B0007F12002134465
:1045400053F8180CFB69C3F101030233DB007A68EE
:10455000134404331946FFF7F2FD7B699B087B6126
:10456000FB690133FB61FB69012BDDD900E000BF72
:104570007B685B7A43F00103DAB27B685A727B682E
:104580005B7A03F00403002B0ED0144B1B78012B35
:104590000AD1134B93F8343003F00703022B03D1F5
:1045A0000F48FFF76FFD0124284600F073FA002C36
:1045B00001D0FEF7F3FF002318462037BD46B0BDFB
:1045C000ECFA0000BCF90000FCF90000D80900205A
:1045D0000C0B0020040B00209C0D0020F00000209C
:1045E000140B002090B583B000AF78607B68002B7F
:1045F00005D14FF404721C491C48FEF7B9F97B68D9
:104600001846FEF761FE03460A2B05D040F2112240
:1046100015491748FEF7ACF97B685B7A03F0010394
:10462000002B02D14FF0FF3319E0124B1B68002B17
:1046300004D0104B1B687A681046984700F026FAA1
:1046400004467868FFF71AFE7B685B7A23F0010363
:10465000DAB27B685A72204600F01CFA0023184632
:104660000C37BD4690BD00BFFCFA0000BCF900004D
:10467000FCF90000DC09002090B585B000AFF860BF
:10468000B9607A60FB68002B05D14FF40D72344994
:104690003448FEF76DF9FB681846FEF715FE034631
:1046A0000A2B05D040F235222D492F48FEF760F93C
:1046B00000F0ECF90446BB68052B47D801A252F87C
:1046C00023F000BFE7460000DD4600000947000078
:1046D000194700002947000043470000FB685A6A59
:1046E0007B681A6033E07B681B686FF0004293427E
:1046F00005D340F23F221A491C48FEF739F97B687E
:104700001A68FB685A6222E0FB685B7A23F00203B6
:10471000DAB2FB685A721AE0FB685B7A43F0020374
:10472000DAB2FB685A7212E0FB685B7A03F00103AD
:10473000002B03D07B6801221A6002E07B68002214
:104740001A60FB689A6A7B681A6000E000BF204626
:1047500000F0A0F9002318461437BD4690BD00BFF5
:104760000CFB0000BCF90000FCF900009CFA000002
:1047700090B585B000AF3B461846FFF7CFFCFCF77D
:104780002DF9F86000F082F904465FE0374B1B68B2
:10479000143BBB60BB689B6AFA68D31A6FF0004297
:1047A00093425AD2324B1B68002B03D0304B1B680C
:1047B000B8689847B868FFF761FDBB685B7A03F09B
:1047C0000203002B06D1BB685B7A23F00103DAB247
:1047D000BB685A72BB6803F114023B461146184687
:1047E000FFF7ADFCBB68DB69BA68126A10469847F0
:1047F000FCF7F4F8F8601F4B1B68002B03D01D4B2F
:104800001B68B86898473B461846FFF7CCFC034640
:10481000002B00D01AE0BB6814331846FFF7A8FC41
:10482000BB685B7A03F00203002B0FD0BB685B7A96
:1048300003F00103002B09D0BB685B7A23F001036E
:10484000DAB2BB685A72B868FFF7BAFD0748FFF7DB
:10485000AAFC0346002B99D000E000BF204600F0E0
:1048600019F900BF1437BD4690BD00BF040B0020EE
:10487000940D0020980D002090B585B000AF3B4608
:104880001846FFF74BFC00F001F904466BE03D4B86
:104890001B68143BFB60FCF7A1F8B860FB689B6ADF
:1048A000BA68D31A6FF00042934263D2364B1B684A
:1048B000002B03D0344B1B68F8689847F868FFF763
:1048C000DDFCFB685B7A03F00203002B06D1FB687A
:1048D0005B7A23F00103DAB2FB685A72FB6803F1DA
:1048E00014023B4611461846FFF729FC274B0022CD
:1048F0001A70204600F0CEF8FB68DB69FA68126A8D
:1049000010469847224B1B68002B03D0204B1B6896
:10491000F868984700F0BAF804461C4B01221A7058
:104920003B461846FFF73FFC0346002B00D01AE039
:10493000FB6814331846FFF71BFCFB685B7A03F037
:104940000203002B0FD0FB685B7A03F00103002BFE
:1049500009D0FB685B7A23F00103DAB2FB685A7274
:10496000F868FFF72DFD0748FFF71DFC0346002BF5
:104970008DD000E000BF204600F08CF800BF143757
:10498000BD4690BD0C0B0020940D0020F0000020CF
:10499000980D002080B584B000AF786007F108035F
:1049A00019461248FFF746FC0346002B08D0FFF7D4
:1049B000E9F803461846FFF701FBFEF7EFFD11E0AB
:1049C000FCF70CF8F860BA68FB68D31A6FF0004285
:1049D000934207D2BA68FB68D31ABB60BB6818461B
:1049E000FFF752FAFFF748FFD8E700BF0C0B002093
:1049F00080B582B000AF00237B6009E07B68DB00FC
:104A0000074A13441846FFF789FB7B6801337B6034
:104A10007B68002BF2D000BF00BF0837BD4680BDC9
:104A2000040B002080B586B004AF00237B6009E052
:104A30007B68DB00104A13441846FFF76FFB7B6866
:104A400001337B607B68002BF2D00A23039304239D
:104A500002934FF400730193084B00930023084A1C
:104A600008490948FFF756F80748FFF797F800BFCD
:104A70000837BD4680BD00BF0C0B0020940B002002
:104A800095490000C4FA0000140B0020EFF31080D9
:104A900072B6704780F310887047444A1368012B40
:104AA00004D04FF001031360414A1060414A116085
:104AB00041484FF0805101607047EFF3108272B6A9
:104AC0003A48016851B34FF000010160384801686D
:104AD00091B1EFF309811EF0100F08BF21ED108B8B
:104AE00021E9F00F4FF000041EF0100F08BF012461
:104AF00041F8044D006801602E490968096808C939
:104B0000B1E8F00F002B18BFB1EC108B81F30988CE
:104B10004EF0100E002B18BF2EF0100E82F31088EE
:104B20004EF0040E704723490860EFF3148222F020
:104B3000040282F314881E494FF0000008601B49EC
:104B40004FF0010008601D481D49D0F8002041EADF
:104B50000201016018484FF0805101601948006857
:104B6000006800BF80F3088861B662B6704700BF76
:104B7000EFF308801EF0040F01D0EFF3098020E965
:104B8000F00F40F804ED40F804ED1EF0040F02D0E1
:104B900080F3098801E080F3088800B500F0BAF9D5
:104BA0005DF804EB4EF0040E70470000A80D0020E5
:104BB000A00D0020A40D002004ED00E020ED00E099
:104BC0000000FFFF08ED00E080B489B000AFF8609E
:104BD000B9607A603B607B680433BB61BB6923F0DA
:104BE0000703BB61BB69443BBB61BB697B610023BD
:104BF000FB6108E0FB699B007A691344154A1A605F
:104C0000FB690133FB61FB69102BF3D9BA687B693F
:104C10005A627B6900229A627B690022DA627B69B0
:104C200000221A637B6900225A633A687B699A639F
:104C3000FA687B69DA637B694FF080721A647B697A
:104C400000221A60BB6918462437BD465DF8047B14
:104C5000704700BFEFBEADDE80B500AF2548FDF761
:104C600049FD254B1B889BB219462448FDF742FDA0
:104C7000214B1B889BB203F00103002B02D020487C
:104C8000FDF738FD1C4B1B889BB203F00203002B81
:104C900002D01C48FDF72EFD174B1B889BB203F07A
:104CA0000403002B02D01848FDF724FD124B1B888B
:104CB0009BB203F00803002B02D01448FDF71AFD45
:104CC0000D4B1B889BB203F48073002B02D010485D
:104CD000FDF710FD084B1B889BB203F40073002BFB
:104CE00002D00C48FDF706FD0B48FDF703FD00BFA1
:104CF00080BD00BF20FB00002AED00E030FB00007B
:104D000048FB000054FB000060FB000068FB000053
:104D100070FB00007CFB000088FB000080B500AF4A
:104D20002648FDF7E7FC264B1B78DBB219462548E1
:104D3000FDF7E0FC224B1B78DBB203F00103002BF4
:104D400002D02148FDF7D6FC1D4B1B78DBB203F0E7
:104D50000203002B02D01D48FDF7CCFC184B1B783A
:104D6000DBB203F00403002B02D01948FDF7C2FCAC
:104D7000134B1B78DBB203F00803002B02D015485D
:104D8000FDF7B8FC0E4B1B78DBB203F01003002BD1
:104D900002D01148FDF7AEFC094B1B78DBB25BB2C9
:104DA000002B06DA0D4B1B6819460D48FDF7A2FCD7
:104DB00002E00C48FDF79EFC00BF80BD8CFB0000AC
:104DC00029ED00E098FB0000B0FB0000BCFB0000F8
:104DD000C8FB0000D8FB0000E4FB000038ED00E059
:104DE000ECFB000088FB000080B500AF2148FDF718
:104DF00081FC214B1B78DBB219462048FDF77AFC79
:104E00001D4B1B78DBB203F00103002B02D01C48C2
:104E1000FDF770FC184B1B78DBB203F00203002B8C
:104E200002D01848FDF766FC134B1B78DBB203F089
:104E30000803002B02D01448FDF75CFC0E4B1B78D6
:104E4000DBB203F01003002B02D01048FDF752FC38
:104E5000094B1B78DBB25BB2002B06DA0C4B1B68EC
:104E600019460C48FDF746FC02E00B48FDF742FCF2
:104E700000BF80BDFCFB000028ED00E010FC00003E
:104E800028FC000034FC000040FC00004CFC00004A
:104E900034ED00E058FC000088FB000080B500AF56
:104EA000164B1B6803F00203002B02D01448FDF7D9
:104EB00021FC124B1B6803F08043002B14D0114BD4
:104EC0001B78DBB2002B01D0FFF728FF0E4B1B78BD
:104ED000DBB2002B01D0FFF787FF0C4B1B889BB286
:104EE000002B01D0FFF7B8FE044B1B68002B02DA41
:104EF0000748FDF7FFFB00BF80BD00BF2CED00E0C1
:104F000068FC000029ED00E028ED00E02AED00E05B
:104F100080FC000080B586B000AF78607B682833E5
:104F20007B617B6804333B61474B1B68002B07D0D8
:104F3000454B1B6878699847F860FB68002B7ED06A
:104F40003B691B6C19464148FDF7D4FB3B695B6A22
:104F500019463F48FDF7CEFB3B699B6A19463D4821
:104F6000FDF7C8FB3B69DB6A19463B48FDF7C2FB0E
:104F70003B691B6B19463948FDF7BCFB3B695B6815
:104F800019463748FDF7B6FB3B699B68194635481B
:104F9000FDF7B0FB3B69DB6819463348FDF7AAFB18
:104FA0003B691B6919463148FDF7A4FB3B695B6906
:104FB00019462F48FDF79EFB3B699B6919462D4812
:104FC000FDF798FB3B69DB6919462B48FDF792FB1F
:104FD0003B691B6A19462948FDF78CFB3B695B6BF3
:104FE00019462748FDF786FB3B699B6B1946254808
:104FF000FDF780FB3B69DB6B19462348FDF77AFB25
:105000007B681B6803F00403002B09D0FEF7BAFD90
:10501000034619461D48FDF76DFB00F033F902E029
:105020001B48FDF767FB7B681B6803F01003002B30
:1050300002D11848FDF75EFBFFF730FFFEE700BF27
:105040001837BD4680BD00BFAC0D002090FC0000AD
:10505000A0FC0000B0FC0000C0FC0000D0FC000080
:10506000E0FC0000F0FC000000FD000010FD00006E
:1050700020FD000030FD000040FD000050FD00005C
:1050800060FD000070FD000080FD000090FD00004C
:10509000B0FD0000CCFD000080B483B000AF7860AC
:1050A0007B6893FAA3F3B3FA83F37A68002A01D1F9
:1050B0004FF0FF33013318460C37BD465DF8047BD3
:1050C000704780B500AFFCF75FFD0346184680BD12
:1050D00080B483B000AF78607B681B687A689A42BE
:1050E0000CBF01230023DBB218460C37BD465DF828
:1050F000047B704780B485B000AF78600023FB600C
:105100007B68BB6005E0BB681B68BB60FB68013364
:10511000FB60BB681B687A689A42F4D1FB6818464A
:105120001437BD465DF8047B7047FFFF80B500AFC4
:105130000248FDF7DFFA0023184680BDF0FD0000AD
:1051400080B500AFFCF7AEFE0023184680BDFFFF20
:1051500080B582B000AF786002E00648FDF7CAFA79
:105160007B685A1E7A60002BF7D100BF00BF08375A
:10517000BD4680BDF8FD000080B586B000AFF86088
:105180007A603B600B46FB72FB7A1846FDF71CFF0A
:1051900078617B6904333B61FB683A691A60FB689C
:1051A000FA7A1A72FB687A685A60FB683A68DA60C1
:1051B000FB6800221A6100BF1837BD4680BD80B56C
:1051C0008AB000AF7860396000237B623B680022C0
:1051D0001A613B68DB68002B03D03B681B7A002B0D
:1051E00001D100234AE03B681B687B617B68002B90
:1051F00004D17B693B6201237B6201E07B683B62F7
:10520000FFF744FC03463B617B6A002B10D13B6AED
:105210000C3BFB60FB681B7A23F080033A68127A30
:10522000934205D03B691846FFF734FC002325E084
:105230000023BB613B685B68FB613B6A1B683B62A8
:105240003A6A7B699A4202D100233B620EE0BB6955
:105250000133BB61FB691A1DFA613A6A1A603B6847
:10526000DB68BA699A4200D0E7E700BF3B6918469D
:10527000FFF710FC3B68BA691A613B6A1846283789
:10528000BD4680BD90B5B9B002AF0023C7F8D43099
:10529000744BC7F8C83007F1800207F1A00008235B
:1052A0000121FFF769FF0823C7F8C430D7F8C820E9
:1052B000D7F8C4106C48FDF71DFAD7F8C400FFF703
:1052C00047FF6A48FDF716FA07F1A0031946D7F819
:1052D000D400FFF774FFC7F8D4000023C7F8D0301C
:1052E000AFE0D7F8D0309B0007F1D802134453F851
:1052F000583C0C3BC7F8C030FFF7C8FB0346C7F863
:10530000BC30D7F8C0301B7A23F0800397F8A82070
:10531000934205D0D7F8BC301846FFF7BBFB8BE0B3
:105320003B468022D7F8C0101846FCF7A2FCD7F8FD
:10533000BC301846FFF7AEFBD7F8C030C7F8B8301E
:10534000D7F8B820D7F8B83093F835300093134623
:105350000822D7F8C4104648FDF7CCF9D7F8B83082
:1053600093F8343003F0070387F8B73097F8B73075
:10537000012B03D13F48FDF7BDF91EE097F8B73088
:10538000022B03D13C48FDF7B5F916E097F8B7308A
:10539000002B03D13948FDF7ADF90EE097F8B7308F
:1053A000042B03D13648FDF7A5F906E097F8B7308E
:1053B000032B02D13348FDF79DF9D7F8B8309B6A2B
:1053C000C7F8CC3004E0D7F8CC300133C7F8CC3084
:1053D000D7F8CC301B78232BF5D0D7F8B830DA6A61
:1053E000D7F8B8309B6A1946D7F8B830DB69CB1AC2
:1053F000D118D7F8B830D86AD7F8B830DA6AD7F801
:10540000B8309B6A1C46D7F8CC30E31A13446422A8
:1054100003FB02F2D7F8B830DB6AB2FBF3F4D7F83B
:10542000B8309B6CD7F8B820126B019200932346DA
:1054300002461548FDF75EF9D7F8D0300133C7F8BA
:10544000D030D7F8B030D7F8D0209A42FFF649AF25
:10545000D7F8D430002B7FF437AF00231846DC3761
:10546000BD4690BDFCFD000004FE000048FE0000AB
:1054700088FE000094FE0000A0FE0000ACFE0000CC
:10548000B8FE0000C4FE0000D0FE000080B584B06D
:1054900000AF78607B681B68FB6013E0FB68143B1F
:1054A000BB60BB681A4608210B48FDF723F9FB686F
:1054B0001B687A689A4202D00848FDF71BF9FB681E
:1054C0001B68FB60FA687B689A42E7D100BF00BFA7
:1054D0001037BD4680BD00BFF8FE000000FF000091
:1054E000B0B596B002AF0023FB64424B7B643A46F2
:1054F00007F1200008230221FFF73EFE08233B644A
:105500007A6C396C3C48FDF7F5F8386CFFF720FEF3
:105510003A48FDF7EFF807F120031946F86CFFF75A
:105520004EFEF8640023BB6457E0BB6C9B0007F1A0
:105530005002134453F8503C0C3BFB63FFF7A6FAB0
:105540000346BB63FB6B1B7A23F0800397F828208C
:10555000934204D0BB6B1846FFF79CFA3AE0BB6B52
:105560001846FFF797FAFB6B7B637B6B1433184687
:10557000FFF7AEFD0346002B1AD17C6B7B6B9B8B38
:105580001D467B6B14331846FFF7B4FD03460193A9
:10559000009523460822396C1948FDF7ABF87B6B60
:1055A00014331846FFF772FF1648FDF7A3F811E011
:1055B0007C6B7B6B9B8B1D467B6B14331846FFF714
:1055C00099FD03460193009523460822396C0E4845
:1055D000FDF790F8BB6C0133BB643B6BBA6C9A422D
:1055E000A3DBFB6C002B96D1002318465037BD4639
:1055F000B0BD00BF04FF000010FF00002CFF000042
:1056000044FF000054FF000058FF0000B0B596B002
:1056100002AF0023FB643D4B7B643A4607F1200058
:1056200008230421FFF7A8FD08233B647A6C396C3A
:105630003748FDF75FF8386CFFF78AFD3548FDF70E
:1056400059F807F120031946F86CFFF7B8FDF86424
:105650000023BB644EE0BB6C9B0007F15002134477
:1056600053F8503C0C3BFB63FFF710FA0346BB6357
:10567000FB6B1B7A23F0800397F82820934204D019
:10568000BB6B1846FFF706FA31E0BB6B1846FFF715
:1056900001FAFB6B7B637B6B14331846FFF718FD35
:1056A0000346002B19D17D6B7B6BDC697B6B14335C
:1056B0001846FFF71FFD0346019300942B4608226E
:1056C000396C1548FDF716F87B6B14331846FFF755
:1056D000DDFE1248FDF70EF809E07A6B7B6BDB69A3
:1056E000009313460822396C0D48FDF703F8BB6C94
:1056F0000133BB643B6BBA6C9A42ACDBFB6C002B96
:105700009FD1002318465037BD46B0BD68FF00004A
:1057100070FF000094FF0000B4FF000054FF000081
:10572000CCFF0000F0B599B004AF0023FB64334B0D
:105730007B643A4607F1200008230321FFF71CFD94
:1057400008233B647A6C396C2D48FCF7D3FF386C26
:10575000FFF7FEFC2B48FCF7CDFF07F120031946AD
:10576000F86CFFF72CFDF8640023BB643AE0BB6CD7
:105770009B0007F15002134453F8503C0C3BFB6371
:10578000FFF784F90346BB63FB6B1B7A23F08003AE
:1057900097F82820934204D0BB6B1846FFF77AF99C
:1057A0001DE0BB6B1846FFF775F9FB6B7B637C6BE9
:1057B0007B6B1B6A1D467B6BDB7F1E467B6B14334A
:1057C0001846FFF797FC03460393029601950823BA
:1057D000009323460822396C0B48FCF78BFFBB6C07
:1057E0000133BB643B6BBA6C9A42C0DBFB6C002B91
:1057F000B3D1002318465437BD46F0BDE0FF00008A
:10580000E8FF00000C0001002C000100F0B599B089
:1058100004AF0023FB64464B7B643A4607F120004B
:1058200008230521FFF7A8FC08233B647A6C396C38
:105830004048FCF75FFF386CFFF78AFC3E48FCF7F6
:1058400059FF07F120031946F86CFFF7B8FCF8641C
:105850000023BB645FE0BB6C9B0007F15002134464
:1058600053F8503C0C3BFB63FFF710F90346BB6356
:10587000FB6B1B7A23F0800397F82820934204D017
:10588000BB6B1846FFF706F942E0BB6B1846FFF703
:1058900001F9FB6B7B637B6B14331846FFF718FC35
:1058A0000346002B1ED17C6B7B6B5B8C1D467B6B98
:1058B0001B8C1E467B6B14331846FFF71BFC0346FC
:1058C00002930196009523460822396C1B48FCF789
:1058D00011FF7B6B14331846FFF7D8FD1848FCF70F
:1058E00009FF15E07C6B7B6B5B8C1D467B6B1B8C17
:1058F0001E467B6B14331846FFF7FCFB03460293EE
:105900000196009523460822396C0E48FCF7F2FEFA
:10591000BB6C0133BB643B6BBA6C9A429BDBFB6C88
:10592000002B8ED1002318465437BD46F0BD00BF72
:10593000440001004C000100700001008C000100D7
:1059400054FF0000A4000100B0B596B002AF0023E0
:10595000FB64424B7B643A4607F120000823062192
:10596000FFF70AFC08233B647A6C396C3C48FCF76F
:10597000C1FE386CFFF7ECFB3A48FCF7BBFE07F1C1
:1059800020031946F86CFFF71AFCF8640023BB6487
:1059900057E0BB6C9B0007F15002134453F8503C96
:1059A0000C3BFB63FFF772F80346BB63FB6B1B7A90
:1059B00023F0800397F82820934204D0BB6B18464D
:1059C000FFF768F83AE0BB6B1846FFF763F8FB6B2C
:1059D0007B637B6B14331846FFF77AFB0346002B7F
:1059E0001AD17C6B7B6B9B8C1D467B6B14331846EA
:1059F000FFF780FB03460193009523460822396C8C
:105A00001948FCF777FE7B6B14331846FFF73EFD11
:105A10001648FCF76FFE11E07C6B7B6B9B8C1D4680
:105A20007B6B14331846FFF765FB03460193009523
:105A300023460822396C0E48FCF75CFEBB6C013330
:105A4000BB643B6BBA6C9A42A3DBFB6C002B96D118
:105A5000002318465037BD46B0BD00BFBC00010052
:105A6000C8000100E4000100FC00010054FF000038
:105A70001001010080B596B002AF0023FB643E4BDD
:105A80007B643A4607F1200008230A21FFF774FBE4
:105A900008233B647A6C396C3848FCF72BFE386C71
:105AA000FFF756FB3648FCF725FE07F120031946A1
:105AB000F86CFFF784FBF8640023BB6449E0BB6C1F
:105AC0009B0007F15002134453F8503C0C3BFB631E
:105AD000FEF7DCFF0346BB63FB6B1B7A23F08003FE
